Archive member included to satisfy reference by file (symbol)

d:/softwares/mounriver/mounriver_studio/toolchain/risc-v embedded gcc/bin/../lib/gcc/riscv-none-embed/8.2.0/../../../../riscv-none-embed/lib/rv32imafc/ilp32f\libm.a(lib_a-s_cos.o)
                              ./zf_device/zf_device_gps_tau1201.o (cos)
d:/softwares/mounriver/mounriver_studio/toolchain/risc-v embedded gcc/bin/../lib/gcc/riscv-none-embed/8.2.0/../../../../riscv-none-embed/lib/rv32imafc/ilp32f\libm.a(lib_a-s_sin.o)
                              ./zf_device/zf_device_gps_tau1201.o (sin)
d:/softwares/mounriver/mounriver_studio/toolchain/risc-v embedded gcc/bin/../lib/gcc/riscv-none-embed/8.2.0/../../../../riscv-none-embed/lib/rv32imafc/ilp32f\libm.a(lib_a-w_asin.o)
                              ./zf_device/zf_device_gps_tau1201.o (asin)
d:/softwares/mounriver/mounriver_studio/toolchain/risc-v embedded gcc/bin/../lib/gcc/riscv-none-embed/8.2.0/../../../../riscv-none-embed/lib/rv32imafc/ilp32f\libm.a(lib_a-w_atan2.o)
                              ./zf_device/zf_device_gps_tau1201.o (atan2)
d:/softwares/mounriver/mounriver_studio/toolchain/risc-v embedded gcc/bin/../lib/gcc/riscv-none-embed/8.2.0/../../../../riscv-none-embed/lib/rv32imafc/ilp32f\libm.a(lib_a-w_pow.o)
                              ./zf_device/zf_device_gps_tau1201.o (pow)
d:/softwares/mounriver/mounriver_studio/toolchain/risc-v embedded gcc/bin/../lib/gcc/riscv-none-embed/8.2.0/../../../../riscv-none-embed/lib/rv32imafc/ilp32f\libm.a(lib_a-w_sqrt.o)
                              ./zf_device/zf_device_gps_tau1201.o (sqrt)
d:/softwares/mounriver/mounriver_studio/toolchain/risc-v embedded gcc/bin/../lib/gcc/riscv-none-embed/8.2.0/../../../../riscv-none-embed/lib/rv32imafc/ilp32f\libm.a(lib_a-e_asin.o)
                              d:/softwares/mounriver/mounriver_studio/toolchain/risc-v embedded gcc/bin/../lib/gcc/riscv-none-embed/8.2.0/../../../../riscv-none-embed/lib/rv32imafc/ilp32f\libm.a(lib_a-w_asin.o) (__ieee754_asin)
d:/softwares/mounriver/mounriver_studio/toolchain/risc-v embedded gcc/bin/../lib/gcc/riscv-none-embed/8.2.0/../../../../riscv-none-embed/lib/rv32imafc/ilp32f\libm.a(lib_a-e_atan2.o)
                              d:/softwares/mounriver/mounriver_studio/toolchain/risc-v embedded gcc/bin/../lib/gcc/riscv-none-embed/8.2.0/../../../../riscv-none-embed/lib/rv32imafc/ilp32f\libm.a(lib_a-w_atan2.o) (__ieee754_atan2)
d:/softwares/mounriver/mounriver_studio/toolchain/risc-v embedded gcc/bin/../lib/gcc/riscv-none-embed/8.2.0/../../../../riscv-none-embed/lib/rv32imafc/ilp32f\libm.a(lib_a-e_pow.o)
                              d:/softwares/mounriver/mounriver_studio/toolchain/risc-v embedded gcc/bin/../lib/gcc/riscv-none-embed/8.2.0/../../../../riscv-none-embed/lib/rv32imafc/ilp32f\libm.a(lib_a-w_pow.o) (__ieee754_pow)
d:/softwares/mounriver/mounriver_studio/toolchain/risc-v embedded gcc/bin/../lib/gcc/riscv-none-embed/8.2.0/../../../../riscv-none-embed/lib/rv32imafc/ilp32f\libm.a(lib_a-e_rem_pio2.o)
                              d:/softwares/mounriver/mounriver_studio/toolchain/risc-v embedded gcc/bin/../lib/gcc/riscv-none-embed/8.2.0/../../../../riscv-none-embed/lib/rv32imafc/ilp32f\libm.a(lib_a-s_cos.o) (__ieee754_rem_pio2)
d:/softwares/mounriver/mounriver_studio/toolchain/risc-v embedded gcc/bin/../lib/gcc/riscv-none-embed/8.2.0/../../../../riscv-none-embed/lib/rv32imafc/ilp32f\libm.a(lib_a-e_sqrt.o)
                              d:/softwares/mounriver/mounriver_studio/toolchain/risc-v embedded gcc/bin/../lib/gcc/riscv-none-embed/8.2.0/../../../../riscv-none-embed/lib/rv32imafc/ilp32f\libm.a(lib_a-w_sqrt.o) (__ieee754_sqrt)
d:/softwares/mounriver/mounriver_studio/toolchain/risc-v embedded gcc/bin/../lib/gcc/riscv-none-embed/8.2.0/../../../../riscv-none-embed/lib/rv32imafc/ilp32f\libm.a(lib_a-k_cos.o)
                              d:/softwares/mounriver/mounriver_studio/toolchain/risc-v embedded gcc/bin/../lib/gcc/riscv-none-embed/8.2.0/../../../../riscv-none-embed/lib/rv32imafc/ilp32f\libm.a(lib_a-s_cos.o) (__kernel_cos)
d:/softwares/mounriver/mounriver_studio/toolchain/risc-v embedded gcc/bin/../lib/gcc/riscv-none-embed/8.2.0/../../../../riscv-none-embed/lib/rv32imafc/ilp32f\libm.a(lib_a-k_rem_pio2.o)
                              d:/softwares/mounriver/mounriver_studio/toolchain/risc-v embedded gcc/bin/../lib/gcc/riscv-none-embed/8.2.0/../../../../riscv-none-embed/lib/rv32imafc/ilp32f\libm.a(lib_a-e_rem_pio2.o) (__kernel_rem_pio2)
d:/softwares/mounriver/mounriver_studio/toolchain/risc-v embedded gcc/bin/../lib/gcc/riscv-none-embed/8.2.0/../../../../riscv-none-embed/lib/rv32imafc/ilp32f\libm.a(lib_a-k_sin.o)
                              d:/softwares/mounriver/mounriver_studio/toolchain/risc-v embedded gcc/bin/../lib/gcc/riscv-none-embed/8.2.0/../../../../riscv-none-embed/lib/rv32imafc/ilp32f\libm.a(lib_a-s_cos.o) (__kernel_sin)
d:/softwares/mounriver/mounriver_studio/toolchain/risc-v embedded gcc/bin/../lib/gcc/riscv-none-embed/8.2.0/../../../../riscv-none-embed/lib/rv32imafc/ilp32f\libm.a(lib_a-s_atan.o)
                              d:/softwares/mounriver/mounriver_studio/toolchain/risc-v embedded gcc/bin/../lib/gcc/riscv-none-embed/8.2.0/../../../../riscv-none-embed/lib/rv32imafc/ilp32f\libm.a(lib_a-e_atan2.o) (atan)
d:/softwares/mounriver/mounriver_studio/toolchain/risc-v embedded gcc/bin/../lib/gcc/riscv-none-embed/8.2.0/../../../../riscv-none-embed/lib/rv32imafc/ilp32f\libm.a(lib_a-s_fabs.o)
                              d:/softwares/mounriver/mounriver_studio/toolchain/risc-v embedded gcc/bin/../lib/gcc/riscv-none-embed/8.2.0/../../../../riscv-none-embed/lib/rv32imafc/ilp32f\libm.a(lib_a-w_asin.o) (fabs)
d:/softwares/mounriver/mounriver_studio/toolchain/risc-v embedded gcc/bin/../lib/gcc/riscv-none-embed/8.2.0/../../../../riscv-none-embed/lib/rv32imafc/ilp32f\libm.a(lib_a-s_finite.o)
                              d:/softwares/mounriver/mounriver_studio/toolchain/risc-v embedded gcc/bin/../lib/gcc/riscv-none-embed/8.2.0/../../../../riscv-none-embed/lib/rv32imafc/ilp32f\libm.a(lib_a-w_pow.o) (finite)
d:/softwares/mounriver/mounriver_studio/toolchain/risc-v embedded gcc/bin/../lib/gcc/riscv-none-embed/8.2.0/../../../../riscv-none-embed/lib/rv32imafc/ilp32f\libm.a(lib_a-s_floor.o)
                              d:/softwares/mounriver/mounriver_studio/toolchain/risc-v embedded gcc/bin/../lib/gcc/riscv-none-embed/8.2.0/../../../../riscv-none-embed/lib/rv32imafc/ilp32f\libm.a(lib_a-k_rem_pio2.o) (floor)
d:/softwares/mounriver/mounriver_studio/toolchain/risc-v embedded gcc/bin/../lib/gcc/riscv-none-embed/8.2.0/../../../../riscv-none-embed/lib/rv32imafc/ilp32f\libm.a(lib_a-s_lib_ver.o)
                              d:/softwares/mounriver/mounriver_studio/toolchain/risc-v embedded gcc/bin/../lib/gcc/riscv-none-embed/8.2.0/../../../../riscv-none-embed/lib/rv32imafc/ilp32f\libm.a(lib_a-w_asin.o) (__fdlib_version)
d:/softwares/mounriver/mounriver_studio/toolchain/risc-v embedded gcc/bin/../lib/gcc/riscv-none-embed/8.2.0/../../../../riscv-none-embed/lib/rv32imafc/ilp32f\libm.a(lib_a-s_matherr.o)
                              d:/softwares/mounriver/mounriver_studio/toolchain/risc-v embedded gcc/bin/../lib/gcc/riscv-none-embed/8.2.0/../../../../riscv-none-embed/lib/rv32imafc/ilp32f\libm.a(lib_a-w_asin.o) (matherr)
d:/softwares/mounriver/mounriver_studio/toolchain/risc-v embedded gcc/bin/../lib/gcc/riscv-none-embed/8.2.0/../../../../riscv-none-embed/lib/rv32imafc/ilp32f\libm.a(lib_a-s_nan.o)
                              d:/softwares/mounriver/mounriver_studio/toolchain/risc-v embedded gcc/bin/../lib/gcc/riscv-none-embed/8.2.0/../../../../riscv-none-embed/lib/rv32imafc/ilp32f\libm.a(lib_a-w_asin.o) (nan)
d:/softwares/mounriver/mounriver_studio/toolchain/risc-v embedded gcc/bin/../lib/gcc/riscv-none-embed/8.2.0/../../../../riscv-none-embed/lib/rv32imafc/ilp32f\libm.a(lib_a-s_rint.o)
                              d:/softwares/mounriver/mounriver_studio/toolchain/risc-v embedded gcc/bin/../lib/gcc/riscv-none-embed/8.2.0/../../../../riscv-none-embed/lib/rv32imafc/ilp32f\libm.a(lib_a-w_pow.o) (rint)
d:/softwares/mounriver/mounriver_studio/toolchain/risc-v embedded gcc/bin/../lib/gcc/riscv-none-embed/8.2.0/../../../../riscv-none-embed/lib/rv32imafc/ilp32f\libm.a(lib_a-s_scalbn.o)
                              d:/softwares/mounriver/mounriver_studio/toolchain/risc-v embedded gcc/bin/../lib/gcc/riscv-none-embed/8.2.0/../../../../riscv-none-embed/lib/rv32imafc/ilp32f\libm.a(lib_a-e_pow.o) (scalbn)
d:/softwares/mounriver/mounriver_studio/toolchain/risc-v embedded gcc/bin/../lib/gcc/riscv-none-embed/8.2.0/../../../../riscv-none-embed/lib/rv32imafc/ilp32f\libm.a(lib_a-s_copysign.o)
                              d:/softwares/mounriver/mounriver_studio/toolchain/risc-v embedded gcc/bin/../lib/gcc/riscv-none-embed/8.2.0/../../../../riscv-none-embed/lib/rv32imafc/ilp32f\libm.a(lib_a-s_scalbn.o) (copysign)
F:\十八届智能车\比赛代码\libraries\zf_device\libzf_device_config.a(zf_device_config.o)
                              ./zf_device/zf_device_mt9v03x_dvp.o (mt9v03x_set_config_sccb)
d:/softwares/mounriver/mounriver_studio/toolchain/risc-v embedded gcc/bin/../lib/gcc/riscv-none-embed/8.2.0/rv32imafc/ilp32f\libgcc.a(adddf3.o)
                              ./zf_device/zf_device_gps_tau1201.o (__adddf3)
d:/softwares/mounriver/mounriver_studio/toolchain/risc-v embedded gcc/bin/../lib/gcc/riscv-none-embed/8.2.0/rv32imafc/ilp32f\libgcc.a(divdf3.o)
                              ./zf_device/zf_device_aht20.o (__divdf3)
d:/softwares/mounriver/mounriver_studio/toolchain/risc-v embedded gcc/bin/../lib/gcc/riscv-none-embed/8.2.0/rv32imafc/ilp32f\libgcc.a(eqdf2.o)
                              ./zf_common/zf_common_function.o (__eqdf2)
d:/softwares/mounriver/mounriver_studio/toolchain/risc-v embedded gcc/bin/../lib/gcc/riscv-none-embed/8.2.0/rv32imafc/ilp32f\libgcc.a(gedf2.o)
                              d:/softwares/mounriver/mounriver_studio/toolchain/risc-v embedded gcc/bin/../lib/gcc/riscv-none-embed/8.2.0/../../../../riscv-none-embed/lib/rv32imafc/ilp32f\libm.a(lib_a-e_pow.o) (__gedf2)
d:/softwares/mounriver/mounriver_studio/toolchain/risc-v embedded gcc/bin/../lib/gcc/riscv-none-embed/8.2.0/rv32imafc/ilp32f\libgcc.a(ledf2.o)
                              ./zf_device/zf_device_dl1a.o (__ledf2)
d:/softwares/mounriver/mounriver_studio/toolchain/risc-v embedded gcc/bin/../lib/gcc/riscv-none-embed/8.2.0/rv32imafc/ilp32f\libgcc.a(muldf3.o)
                              ./zf_device/zf_device_aht20.o (__muldf3)
d:/softwares/mounriver/mounriver_studio/toolchain/risc-v embedded gcc/bin/../lib/gcc/riscv-none-embed/8.2.0/rv32imafc/ilp32f\libgcc.a(subdf3.o)
                              ./zf_device/zf_device_aht20.o (__subdf3)
d:/softwares/mounriver/mounriver_studio/toolchain/risc-v embedded gcc/bin/../lib/gcc/riscv-none-embed/8.2.0/rv32imafc/ilp32f\libgcc.a(unorddf2.o)
                              d:/softwares/mounriver/mounriver_studio/toolchain/risc-v embedded gcc/bin/../lib/gcc/riscv-none-embed/8.2.0/../../../../riscv-none-embed/lib/rv32imafc/ilp32f\libm.a(lib_a-w_asin.o) (__unorddf2)
d:/softwares/mounriver/mounriver_studio/toolchain/risc-v embedded gcc/bin/../lib/gcc/riscv-none-embed/8.2.0/rv32imafc/ilp32f\libgcc.a(fixdfsi.o)
                              ./zf_device/zf_device_gps_tau1201.o (__fixdfsi)
d:/softwares/mounriver/mounriver_studio/toolchain/risc-v embedded gcc/bin/../lib/gcc/riscv-none-embed/8.2.0/rv32imafc/ilp32f\libgcc.a(fixunsdfsi.o)
                              ./zf_device/zf_device_dm1xa.o (__fixunsdfsi)
d:/softwares/mounriver/mounriver_studio/toolchain/risc-v embedded gcc/bin/../lib/gcc/riscv-none-embed/8.2.0/rv32imafc/ilp32f\libgcc.a(floatsidf.o)
                              ./zf_device/zf_device_gps_tau1201.o (__floatsidf)
d:/softwares/mounriver/mounriver_studio/toolchain/risc-v embedded gcc/bin/../lib/gcc/riscv-none-embed/8.2.0/rv32imafc/ilp32f\libgcc.a(floatunsidf.o)
                              ./zf_device/zf_device_aht20.o (__floatunsidf)
d:/softwares/mounriver/mounriver_studio/toolchain/risc-v embedded gcc/bin/../lib/gcc/riscv-none-embed/8.2.0/rv32imafc/ilp32f\libgcc.a(extendsfdf2.o)
                              ./zf_device/zf_device_dl1a.o (__extendsfdf2)
d:/softwares/mounriver/mounriver_studio/toolchain/risc-v embedded gcc/bin/../lib/gcc/riscv-none-embed/8.2.0/rv32imafc/ilp32f\libgcc.a(truncdfsf2.o)
                              ./zf_device/zf_device_aht20.o (__truncdfsf2)
d:/softwares/mounriver/mounriver_studio/toolchain/risc-v embedded gcc/bin/../lib/gcc/riscv-none-embed/8.2.0/rv32imafc/ilp32f\libgcc.a(_clzsi2.o)
                              d:/softwares/mounriver/mounriver_studio/toolchain/risc-v embedded gcc/bin/../lib/gcc/riscv-none-embed/8.2.0/rv32imafc/ilp32f\libgcc.a(adddf3.o) (__clzsi2)
d:/softwares/mounriver/mounriver_studio/toolchain/risc-v embedded gcc/bin/../lib/gcc/riscv-none-embed/8.2.0/rv32imafc/ilp32f\libgcc.a(_clz.o)
                              d:/softwares/mounriver/mounriver_studio/toolchain/risc-v embedded gcc/bin/../lib/gcc/riscv-none-embed/8.2.0/rv32imafc/ilp32f\libgcc.a(_clzsi2.o) (__clz_tab)
d:/softwares/mounriver/mounriver_studio/toolchain/risc-v embedded gcc/bin/../lib/gcc/riscv-none-embed/8.2.0/../../../../riscv-none-embed/lib/rv32imafc/ilp32f\libg_nano.a(lib_a-errno.o)
                              d:/softwares/mounriver/mounriver_studio/toolchain/risc-v embedded gcc/bin/../lib/gcc/riscv-none-embed/8.2.0/../../../../riscv-none-embed/lib/rv32imafc/ilp32f\libm.a(lib_a-w_asin.o) (__errno)
d:/softwares/mounriver/mounriver_studio/toolchain/risc-v embedded gcc/bin/../lib/gcc/riscv-none-embed/8.2.0/../../../../riscv-none-embed/lib/rv32imafc/ilp32f\libg_nano.a(lib_a-impure.o)
                              d:/softwares/mounriver/mounriver_studio/toolchain/risc-v embedded gcc/bin/../lib/gcc/riscv-none-embed/8.2.0/../../../../riscv-none-embed/lib/rv32imafc/ilp32f\libg_nano.a(lib_a-errno.o) (_impure_ptr)
d:/softwares/mounriver/mounriver_studio/toolchain/risc-v embedded gcc/bin/../lib/gcc/riscv-none-embed/8.2.0/../../../../riscv-none-embed/lib/rv32imafc/ilp32f\libg_nano.a(lib_a-memcpy.o)
                              ./zf_device/zf_device_wifi_uart.o (memcpy)
d:/softwares/mounriver/mounriver_studio/toolchain/risc-v embedded gcc/bin/../lib/gcc/riscv-none-embed/8.2.0/../../../../riscv-none-embed/lib/rv32imafc/ilp32f\libg_nano.a(lib_a-memset.o)
                              ./zf_driver/zf_driver_flash.o (memset)
d:/softwares/mounriver/mounriver_studio/toolchain/risc-v embedded gcc/bin/../lib/gcc/riscv-none-embed/8.2.0/../../../../riscv-none-embed/lib/rv32imafc/ilp32f\libg_nano.a(lib_a-nano-vfprintf_float.o)
                              (_printf_float)
d:/softwares/mounriver/mounriver_studio/toolchain/risc-v embedded gcc/bin/../lib/gcc/riscv-none-embed/8.2.0/../../../../riscv-none-embed/lib/rv32imafc/ilp32f\libg_nano.a(lib_a-nano-vfprintf_i.o)
                              d:/softwares/mounriver/mounriver_studio/toolchain/risc-v embedded gcc/bin/../lib/gcc/riscv-none-embed/8.2.0/../../../../riscv-none-embed/lib/rv32imafc/ilp32f\libg_nano.a(lib_a-nano-vfprintf_float.o) (_printf_common)
d:/softwares/mounriver/mounriver_studio/toolchain/risc-v embedded gcc/bin/../lib/gcc/riscv-none-embed/8.2.0/../../../../riscv-none-embed/lib/rv32imafc/ilp32f\libg_nano.a(lib_a-printf.o)
                              ./sdk/Peripheral/ch32v30x_usbotg_device.o (printf)
d:/softwares/mounriver/mounriver_studio/toolchain/risc-v embedded gcc/bin/../lib/gcc/riscv-none-embed/8.2.0/../../../../riscv-none-embed/lib/rv32imafc/ilp32f\libg_nano.a(lib_a-sprintf.o)
                              ./zf_common/zf_common_debug.o (sprintf)
d:/softwares/mounriver/mounriver_studio/toolchain/risc-v embedded gcc/bin/../lib/gcc/riscv-none-embed/8.2.0/../../../../riscv-none-embed/lib/rv32imafc/ilp32f\libg_nano.a(lib_a-strchr.o)
                              ./zf_device/zf_device_gps_tau1201.o (strchr)
d:/softwares/mounriver/mounriver_studio/toolchain/risc-v embedded gcc/bin/../lib/gcc/riscv-none-embed/8.2.0/../../../../riscv-none-embed/lib/rv32imafc/ilp32f\libg_nano.a(lib_a-strlen.o)
                              ./zf_device/zf_device_bluetooth_ch9141.o (strlen)
d:/softwares/mounriver/mounriver_studio/toolchain/risc-v embedded gcc/bin/../lib/gcc/riscv-none-embed/8.2.0/../../../../riscv-none-embed/lib/rv32imafc/ilp32f\libg_nano.a(lib_a-strncmp.o)
                              ./zf_device/zf_device_gps_tau1201.o (strncmp)
d:/softwares/mounriver/mounriver_studio/toolchain/risc-v embedded gcc/bin/../lib/gcc/riscv-none-embed/8.2.0/../../../../riscv-none-embed/lib/rv32imafc/ilp32f\libg_nano.a(lib_a-strncpy.o)
                              ./zf_device/zf_device_gps_tau1201.o (strncpy)
d:/softwares/mounriver/mounriver_studio/toolchain/risc-v embedded gcc/bin/../lib/gcc/riscv-none-embed/8.2.0/../../../../riscv-none-embed/lib/rv32imafc/ilp32f\libg_nano.a(lib_a-strrchr.o)
                              ./zf_device/zf_device_wifi_uart.o (strrchr)
d:/softwares/mounriver/mounriver_studio/toolchain/risc-v embedded gcc/bin/../lib/gcc/riscv-none-embed/8.2.0/../../../../riscv-none-embed/lib/rv32imafc/ilp32f\libg_nano.a(lib_a-strstr.o)
                              ./zf_device/zf_device_wifi_uart.o (strstr)
d:/softwares/mounriver/mounriver_studio/toolchain/risc-v embedded gcc/bin/../lib/gcc/riscv-none-embed/8.2.0/../../../../riscv-none-embed/lib/rv32imafc/ilp32f\libg_nano.a(lib_a-dtoa.o)
                              d:/softwares/mounriver/mounriver_studio/toolchain/risc-v embedded gcc/bin/../lib/gcc/riscv-none-embed/8.2.0/../../../../riscv-none-embed/lib/rv32imafc/ilp32f\libg_nano.a(lib_a-nano-vfprintf_float.o) (_dtoa_r)
d:/softwares/mounriver/mounriver_studio/toolchain/risc-v embedded gcc/bin/../lib/gcc/riscv-none-embed/8.2.0/../../../../riscv-none-embed/lib/rv32imafc/ilp32f\libg_nano.a(lib_a-findfp.o)
                              d:/softwares/mounriver/mounriver_studio/toolchain/risc-v embedded gcc/bin/../lib/gcc/riscv-none-embed/8.2.0/../../../../riscv-none-embed/lib/rv32imafc/ilp32f\libg_nano.a(lib_a-printf.o) (__sinit)
d:/softwares/mounriver/mounriver_studio/toolchain/risc-v embedded gcc/bin/../lib/gcc/riscv-none-embed/8.2.0/../../../../riscv-none-embed/lib/rv32imafc/ilp32f\libg_nano.a(lib_a-fwalk.o)
                              d:/softwares/mounriver/mounriver_studio/toolchain/risc-v embedded gcc/bin/../lib/gcc/riscv-none-embed/8.2.0/../../../../riscv-none-embed/lib/rv32imafc/ilp32f\libg_nano.a(lib_a-findfp.o) (_fwalk)
d:/softwares/mounriver/mounriver_studio/toolchain/risc-v embedded gcc/bin/../lib/gcc/riscv-none-embed/8.2.0/../../../../riscv-none-embed/lib/rv32imafc/ilp32f\libg_nano.a(lib_a-localeconv.o)
                              d:/softwares/mounriver/mounriver_studio/toolchain/risc-v embedded gcc/bin/../lib/gcc/riscv-none-embed/8.2.0/../../../../riscv-none-embed/lib/rv32imafc/ilp32f\libg_nano.a(lib_a-nano-vfprintf_float.o) (_localeconv_r)
d:/softwares/mounriver/mounriver_studio/toolchain/risc-v embedded gcc/bin/../lib/gcc/riscv-none-embed/8.2.0/../../../../riscv-none-embed/lib/rv32imafc/ilp32f\libg_nano.a(lib_a-malloc.o)
                              d:/softwares/mounriver/mounriver_studio/toolchain/risc-v embedded gcc/bin/../lib/gcc/riscv-none-embed/8.2.0/../../../../riscv-none-embed/lib/rv32imafc/ilp32f\libg_nano.a(lib_a-dtoa.o) (malloc)
d:/softwares/mounriver/mounriver_studio/toolchain/risc-v embedded gcc/bin/../lib/gcc/riscv-none-embed/8.2.0/../../../../riscv-none-embed/lib/rv32imafc/ilp32f\libg_nano.a(lib_a-memchr.o)
                              d:/softwares/mounriver/mounriver_studio/toolchain/risc-v embedded gcc/bin/../lib/gcc/riscv-none-embed/8.2.0/../../../../riscv-none-embed/lib/rv32imafc/ilp32f\libg_nano.a(lib_a-nano-vfprintf_i.o) (memchr)
d:/softwares/mounriver/mounriver_studio/toolchain/risc-v embedded gcc/bin/../lib/gcc/riscv-none-embed/8.2.0/../../../../riscv-none-embed/lib/rv32imafc/ilp32f\libg_nano.a(lib_a-mprec.o)
                              d:/softwares/mounriver/mounriver_studio/toolchain/risc-v embedded gcc/bin/../lib/gcc/riscv-none-embed/8.2.0/../../../../riscv-none-embed/lib/rv32imafc/ilp32f\libg_nano.a(lib_a-dtoa.o) (_Balloc)
d:/softwares/mounriver/mounriver_studio/toolchain/risc-v embedded gcc/bin/../lib/gcc/riscv-none-embed/8.2.0/../../../../riscv-none-embed/lib/rv32imafc/ilp32f\libg_nano.a(lib_a-nano-callocr.o)
                              d:/softwares/mounriver/mounriver_studio/toolchain/risc-v embedded gcc/bin/../lib/gcc/riscv-none-embed/8.2.0/../../../../riscv-none-embed/lib/rv32imafc/ilp32f\libg_nano.a(lib_a-mprec.o) (_calloc_r)
d:/softwares/mounriver/mounriver_studio/toolchain/risc-v embedded gcc/bin/../lib/gcc/riscv-none-embed/8.2.0/../../../../riscv-none-embed/lib/rv32imafc/ilp32f\libg_nano.a(lib_a-nano-freer.o)
                              d:/softwares/mounriver/mounriver_studio/toolchain/risc-v embedded gcc/bin/../lib/gcc/riscv-none-embed/8.2.0/../../../../riscv-none-embed/lib/rv32imafc/ilp32f\libg_nano.a(lib_a-malloc.o) (_free_r)
d:/softwares/mounriver/mounriver_studio/toolchain/risc-v embedded gcc/bin/../lib/gcc/riscv-none-embed/8.2.0/../../../../riscv-none-embed/lib/rv32imafc/ilp32f\libg_nano.a(lib_a-nano-mallocr.o)
                              d:/softwares/mounriver/mounriver_studio/toolchain/risc-v embedded gcc/bin/../lib/gcc/riscv-none-embed/8.2.0/../../../../riscv-none-embed/lib/rv32imafc/ilp32f\libg_nano.a(lib_a-findfp.o) (_malloc_r)
d:/softwares/mounriver/mounriver_studio/toolchain/risc-v embedded gcc/bin/../lib/gcc/riscv-none-embed/8.2.0/../../../../riscv-none-embed/lib/rv32imafc/ilp32f\libg_nano.a(lib_a-nano-svfprintf.o)
                              d:/softwares/mounriver/mounriver_studio/toolchain/risc-v embedded gcc/bin/../lib/gcc/riscv-none-embed/8.2.0/../../../../riscv-none-embed/lib/rv32imafc/ilp32f\libg_nano.a(lib_a-sprintf.o) (_svfprintf_r)
d:/softwares/mounriver/mounriver_studio/toolchain/risc-v embedded gcc/bin/../lib/gcc/riscv-none-embed/8.2.0/../../../../riscv-none-embed/lib/rv32imafc/ilp32f\libg_nano.a(lib_a-nano-vfprintf.o)
                              d:/softwares/mounriver/mounriver_studio/toolchain/risc-v embedded gcc/bin/../lib/gcc/riscv-none-embed/8.2.0/../../../../riscv-none-embed/lib/rv32imafc/ilp32f\libg_nano.a(lib_a-printf.o) (_vfprintf_r)
d:/softwares/mounriver/mounriver_studio/toolchain/risc-v embedded gcc/bin/../lib/gcc/riscv-none-embed/8.2.0/../../../../riscv-none-embed/lib/rv32imafc/ilp32f\libg_nano.a(lib_a-sbrkr.o)
                              d:/softwares/mounriver/mounriver_studio/toolchain/risc-v embedded gcc/bin/../lib/gcc/riscv-none-embed/8.2.0/../../../../riscv-none-embed/lib/rv32imafc/ilp32f\libg_nano.a(lib_a-nano-mallocr.o) (_sbrk_r)
d:/softwares/mounriver/mounriver_studio/toolchain/risc-v embedded gcc/bin/../lib/gcc/riscv-none-embed/8.2.0/../../../../riscv-none-embed/lib/rv32imafc/ilp32f\libg_nano.a(lib_a-stdio.o)
                              d:/softwares/mounriver/mounriver_studio/toolchain/risc-v embedded gcc/bin/../lib/gcc/riscv-none-embed/8.2.0/../../../../riscv-none-embed/lib/rv32imafc/ilp32f\libg_nano.a(lib_a-findfp.o) (__sread)
d:/softwares/mounriver/mounriver_studio/toolchain/risc-v embedded gcc/bin/../lib/gcc/riscv-none-embed/8.2.0/../../../../riscv-none-embed/lib/rv32imafc/ilp32f\libg_nano.a(lib_a-wbuf.o)
                              d:/softwares/mounriver/mounriver_studio/toolchain/risc-v embedded gcc/bin/../lib/gcc/riscv-none-embed/8.2.0/../../../../riscv-none-embed/lib/rv32imafc/ilp32f\libg_nano.a(lib_a-nano-vfprintf.o) (__swbuf_r)
d:/softwares/mounriver/mounriver_studio/toolchain/risc-v embedded gcc/bin/../lib/gcc/riscv-none-embed/8.2.0/../../../../riscv-none-embed/lib/rv32imafc/ilp32f\libg_nano.a(lib_a-writer.o)
                              d:/softwares/mounriver/mounriver_studio/toolchain/risc-v embedded gcc/bin/../lib/gcc/riscv-none-embed/8.2.0/../../../../riscv-none-embed/lib/rv32imafc/ilp32f\libg_nano.a(lib_a-stdio.o) (_write_r)
d:/softwares/mounriver/mounriver_studio/toolchain/risc-v embedded gcc/bin/../lib/gcc/riscv-none-embed/8.2.0/../../../../riscv-none-embed/lib/rv32imafc/ilp32f\libg_nano.a(lib_a-wsetup.o)
                              d:/softwares/mounriver/mounriver_studio/toolchain/risc-v embedded gcc/bin/../lib/gcc/riscv-none-embed/8.2.0/../../../../riscv-none-embed/lib/rv32imafc/ilp32f\libg_nano.a(lib_a-nano-vfprintf.o) (__swsetup_r)
d:/softwares/mounriver/mounriver_studio/toolchain/risc-v embedded gcc/bin/../lib/gcc/riscv-none-embed/8.2.0/../../../../riscv-none-embed/lib/rv32imafc/ilp32f\libg_nano.a(lib_a-closer.o)
                              d:/softwares/mounriver/mounriver_studio/toolchain/risc-v embedded gcc/bin/../lib/gcc/riscv-none-embed/8.2.0/../../../../riscv-none-embed/lib/rv32imafc/ilp32f\libg_nano.a(lib_a-stdio.o) (_close_r)
d:/softwares/mounriver/mounriver_studio/toolchain/risc-v embedded gcc/bin/../lib/gcc/riscv-none-embed/8.2.0/../../../../riscv-none-embed/lib/rv32imafc/ilp32f\libg_nano.a(lib_a-fflush.o)
                              d:/softwares/mounriver/mounriver_studio/toolchain/risc-v embedded gcc/bin/../lib/gcc/riscv-none-embed/8.2.0/../../../../riscv-none-embed/lib/rv32imafc/ilp32f\libg_nano.a(lib_a-findfp.o) (_fflush_r)
d:/softwares/mounriver/mounriver_studio/toolchain/risc-v embedded gcc/bin/../lib/gcc/riscv-none-embed/8.2.0/../../../../riscv-none-embed/lib/rv32imafc/ilp32f\libg_nano.a(lib_a-fvwrite.o)
                              d:/softwares/mounriver/mounriver_studio/toolchain/risc-v embedded gcc/bin/../lib/gcc/riscv-none-embed/8.2.0/../../../../riscv-none-embed/lib/rv32imafc/ilp32f\libg_nano.a(lib_a-nano-vfprintf.o) (__sfvwrite_r)
d:/softwares/mounriver/mounriver_studio/toolchain/risc-v embedded gcc/bin/../lib/gcc/riscv-none-embed/8.2.0/../../../../riscv-none-embed/lib/rv32imafc/ilp32f\libg_nano.a(lib_a-locale.o)
                              d:/softwares/mounriver/mounriver_studio/toolchain/risc-v embedded gcc/bin/../lib/gcc/riscv-none-embed/8.2.0/../../../../riscv-none-embed/lib/rv32imafc/ilp32f\libg_nano.a(lib_a-localeconv.o) (__global_locale)
d:/softwares/mounriver/mounriver_studio/toolchain/risc-v embedded gcc/bin/../lib/gcc/riscv-none-embed/8.2.0/../../../../riscv-none-embed/lib/rv32imafc/ilp32f\libg_nano.a(lib_a-lseekr.o)
                              d:/softwares/mounriver/mounriver_studio/toolchain/risc-v embedded gcc/bin/../lib/gcc/riscv-none-embed/8.2.0/../../../../riscv-none-embed/lib/rv32imafc/ilp32f\libg_nano.a(lib_a-stdio.o) (_lseek_r)
d:/softwares/mounriver/mounriver_studio/toolchain/risc-v embedded gcc/bin/../lib/gcc/riscv-none-embed/8.2.0/../../../../riscv-none-embed/lib/rv32imafc/ilp32f\libg_nano.a(lib_a-makebuf.o)
                              d:/softwares/mounriver/mounriver_studio/toolchain/risc-v embedded gcc/bin/../lib/gcc/riscv-none-embed/8.2.0/../../../../riscv-none-embed/lib/rv32imafc/ilp32f\libg_nano.a(lib_a-wsetup.o) (__smakebuf_r)
d:/softwares/mounriver/mounriver_studio/toolchain/risc-v embedded gcc/bin/../lib/gcc/riscv-none-embed/8.2.0/../../../../riscv-none-embed/lib/rv32imafc/ilp32f\libg_nano.a(lib_a-mbtowc_r.o)
                              d:/softwares/mounriver/mounriver_studio/toolchain/risc-v embedded gcc/bin/../lib/gcc/riscv-none-embed/8.2.0/../../../../riscv-none-embed/lib/rv32imafc/ilp32f\libg_nano.a(lib_a-locale.o) (__ascii_mbtowc)
d:/softwares/mounriver/mounriver_studio/toolchain/risc-v embedded gcc/bin/../lib/gcc/riscv-none-embed/8.2.0/../../../../riscv-none-embed/lib/rv32imafc/ilp32f\libg_nano.a(lib_a-memmove.o)
                              d:/softwares/mounriver/mounriver_studio/toolchain/risc-v embedded gcc/bin/../lib/gcc/riscv-none-embed/8.2.0/../../../../riscv-none-embed/lib/rv32imafc/ilp32f\libg_nano.a(lib_a-nano-svfprintf.o) (memmove)
d:/softwares/mounriver/mounriver_studio/toolchain/risc-v embedded gcc/bin/../lib/gcc/riscv-none-embed/8.2.0/../../../../riscv-none-embed/lib/rv32imafc/ilp32f\libg_nano.a(lib_a-mlock.o)
                              d:/softwares/mounriver/mounriver_studio/toolchain/risc-v embedded gcc/bin/../lib/gcc/riscv-none-embed/8.2.0/../../../../riscv-none-embed/lib/rv32imafc/ilp32f\libg_nano.a(lib_a-nano-freer.o) (__malloc_lock)
d:/softwares/mounriver/mounriver_studio/toolchain/risc-v embedded gcc/bin/../lib/gcc/riscv-none-embed/8.2.0/../../../../riscv-none-embed/lib/rv32imafc/ilp32f\libg_nano.a(lib_a-nano-reallocr.o)
                              d:/softwares/mounriver/mounriver_studio/toolchain/risc-v embedded gcc/bin/../lib/gcc/riscv-none-embed/8.2.0/../../../../riscv-none-embed/lib/rv32imafc/ilp32f\libg_nano.a(lib_a-nano-svfprintf.o) (_realloc_r)
d:/softwares/mounriver/mounriver_studio/toolchain/risc-v embedded gcc/bin/../lib/gcc/riscv-none-embed/8.2.0/../../../../riscv-none-embed/lib/rv32imafc/ilp32f\libg_nano.a(lib_a-readr.o)
                              d:/softwares/mounriver/mounriver_studio/toolchain/risc-v embedded gcc/bin/../lib/gcc/riscv-none-embed/8.2.0/../../../../riscv-none-embed/lib/rv32imafc/ilp32f\libg_nano.a(lib_a-stdio.o) (_read_r)
d:/softwares/mounriver/mounriver_studio/toolchain/risc-v embedded gcc/bin/../lib/gcc/riscv-none-embed/8.2.0/../../../../riscv-none-embed/lib/rv32imafc/ilp32f\libg_nano.a(lib_a-reent.o)
                              d:/softwares/mounriver/mounriver_studio/toolchain/risc-v embedded gcc/bin/../lib/gcc/riscv-none-embed/8.2.0/../../../../riscv-none-embed/lib/rv32imafc/ilp32f\libg_nano.a(lib_a-sbrkr.o) (errno)
d:/softwares/mounriver/mounriver_studio/toolchain/risc-v embedded gcc/bin/../lib/gcc/riscv-none-embed/8.2.0/../../../../riscv-none-embed/lib/rv32imafc/ilp32f\libg_nano.a(lib_a-strcmp.o)
                              d:/softwares/mounriver/mounriver_studio/toolchain/risc-v embedded gcc/bin/../lib/gcc/riscv-none-embed/8.2.0/../../../../riscv-none-embed/lib/rv32imafc/ilp32f\libg_nano.a(lib_a-locale.o) (strcmp)
d:/softwares/mounriver/mounriver_studio/toolchain/risc-v embedded gcc/bin/../lib/gcc/riscv-none-embed/8.2.0/../../../../riscv-none-embed/lib/rv32imafc/ilp32f\libg_nano.a(lib_a-wctomb_r.o)
                              d:/softwares/mounriver/mounriver_studio/toolchain/risc-v embedded gcc/bin/../lib/gcc/riscv-none-embed/8.2.0/../../../../riscv-none-embed/lib/rv32imafc/ilp32f\libg_nano.a(lib_a-locale.o) (__ascii_wctomb)
d:/softwares/mounriver/mounriver_studio/toolchain/risc-v embedded gcc/bin/../lib/gcc/riscv-none-embed/8.2.0/../../../../riscv-none-embed/lib/rv32imafc/ilp32f\libg_nano.a(lib_a-ctype_.o)
                              d:/softwares/mounriver/mounriver_studio/toolchain/risc-v embedded gcc/bin/../lib/gcc/riscv-none-embed/8.2.0/../../../../riscv-none-embed/lib/rv32imafc/ilp32f\libg_nano.a(lib_a-locale.o) (_ctype_)
d:/softwares/mounriver/mounriver_studio/toolchain/risc-v embedded gcc/bin/../lib/gcc/riscv-none-embed/8.2.0/../../../../riscv-none-embed/lib/rv32imafc/ilp32f\libg_nano.a(lib_a-fstatr.o)
                              d:/softwares/mounriver/mounriver_studio/toolchain/risc-v embedded gcc/bin/../lib/gcc/riscv-none-embed/8.2.0/../../../../riscv-none-embed/lib/rv32imafc/ilp32f\libg_nano.a(lib_a-makebuf.o) (_fstat_r)
d:/softwares/mounriver/mounriver_studio/toolchain/risc-v embedded gcc/bin/../lib/gcc/riscv-none-embed/8.2.0/../../../../riscv-none-embed/lib/rv32imafc/ilp32f\libg_nano.a(lib_a-isattyr.o)
                              d:/softwares/mounriver/mounriver_studio/toolchain/risc-v embedded gcc/bin/../lib/gcc/riscv-none-embed/8.2.0/../../../../riscv-none-embed/lib/rv32imafc/ilp32f\libg_nano.a(lib_a-makebuf.o) (_isatty_r)
d:/softwares/mounriver/mounriver_studio/toolchain/risc-v embedded gcc/bin/../lib/gcc/riscv-none-embed/8.2.0/../../../../riscv-none-embed/lib/rv32imafc/ilp32f\libg_nano.a(lib_a-nano-msizer.o)
                              d:/softwares/mounriver/mounriver_studio/toolchain/risc-v embedded gcc/bin/../lib/gcc/riscv-none-embed/8.2.0/../../../../riscv-none-embed/lib/rv32imafc/ilp32f\libg_nano.a(lib_a-nano-reallocr.o) (_malloc_usable_size_r)
d:/softwares/mounriver/mounriver_studio/toolchain/risc-v embedded gcc/bin/../lib/gcc/riscv-none-embed/8.2.0/rv32imafc/ilp32f\libgcc.a(trunctfdf2.o)
                              d:/softwares/mounriver/mounriver_studio/toolchain/risc-v embedded gcc/bin/../lib/gcc/riscv-none-embed/8.2.0/../../../../riscv-none-embed/lib/rv32imafc/ilp32f\libg_nano.a(lib_a-nano-vfprintf_float.o) (__trunctfdf2)
d:/softwares/mounriver/mounriver_studio/toolchain/risc-v embedded gcc/bin/../lib/gcc/riscv-none-embed/8.2.0/../../../../riscv-none-embed/lib/rv32imafc/ilp32f\libnosys.a(close.o)
                              d:/softwares/mounriver/mounriver_studio/toolchain/risc-v embedded gcc/bin/../lib/gcc/riscv-none-embed/8.2.0/../../../../riscv-none-embed/lib/rv32imafc/ilp32f\libg_nano.a(lib_a-closer.o) (_close)
d:/softwares/mounriver/mounriver_studio/toolchain/risc-v embedded gcc/bin/../lib/gcc/riscv-none-embed/8.2.0/../../../../riscv-none-embed/lib/rv32imafc/ilp32f\libnosys.a(fstat.o)
                              d:/softwares/mounriver/mounriver_studio/toolchain/risc-v embedded gcc/bin/../lib/gcc/riscv-none-embed/8.2.0/../../../../riscv-none-embed/lib/rv32imafc/ilp32f\libg_nano.a(lib_a-fstatr.o) (_fstat)
d:/softwares/mounriver/mounriver_studio/toolchain/risc-v embedded gcc/bin/../lib/gcc/riscv-none-embed/8.2.0/../../../../riscv-none-embed/lib/rv32imafc/ilp32f\libnosys.a(isatty.o)
                              d:/softwares/mounriver/mounriver_studio/toolchain/risc-v embedded gcc/bin/../lib/gcc/riscv-none-embed/8.2.0/../../../../riscv-none-embed/lib/rv32imafc/ilp32f\libg_nano.a(lib_a-isattyr.o) (_isatty)
d:/softwares/mounriver/mounriver_studio/toolchain/risc-v embedded gcc/bin/../lib/gcc/riscv-none-embed/8.2.0/../../../../riscv-none-embed/lib/rv32imafc/ilp32f\libnosys.a(lseek.o)
                              d:/softwares/mounriver/mounriver_studio/toolchain/risc-v embedded gcc/bin/../lib/gcc/riscv-none-embed/8.2.0/../../../../riscv-none-embed/lib/rv32imafc/ilp32f\libg_nano.a(lib_a-lseekr.o) (_lseek)
d:/softwares/mounriver/mounriver_studio/toolchain/risc-v embedded gcc/bin/../lib/gcc/riscv-none-embed/8.2.0/../../../../riscv-none-embed/lib/rv32imafc/ilp32f\libnosys.a(read.o)
                              d:/softwares/mounriver/mounriver_studio/toolchain/risc-v embedded gcc/bin/../lib/gcc/riscv-none-embed/8.2.0/../../../../riscv-none-embed/lib/rv32imafc/ilp32f\libg_nano.a(lib_a-readr.o) (_read)
d:/softwares/mounriver/mounriver_studio/toolchain/risc-v embedded gcc/bin/../lib/gcc/riscv-none-embed/8.2.0/../../../../riscv-none-embed/lib/rv32imafc/ilp32f\libnosys.a(sbrk.o)
                              d:/softwares/mounriver/mounriver_studio/toolchain/risc-v embedded gcc/bin/../lib/gcc/riscv-none-embed/8.2.0/../../../../riscv-none-embed/lib/rv32imafc/ilp32f\libg_nano.a(lib_a-sbrkr.o) (_sbrk)

Allocating common symbols
Common symbol       size              file

errno               0x4               d:/softwares/mounriver/mounriver_studio/toolchain/risc-v embedded gcc/bin/../lib/gcc/riscv-none-embed/8.2.0/../../../../riscv-none-embed/lib/rv32imafc/ilp32f\libg_nano.a(lib_a-reent.o)

Discarded input sections

 .text          0x0000000000000000        0x0 ./zf_driver/zf_driver_adc.o
 .data          0x0000000000000000        0x0 ./zf_driver/zf_driver_adc.o
 .bss           0x0000000000000000        0x0 ./zf_driver/zf_driver_adc.o
 .rodata        0x0000000000000000       0x5c ./zf_driver/zf_driver_adc.o
 .text.adc_mean_filter_convert
                0x0000000000000000       0x88 ./zf_driver/zf_driver_adc.o
 .text          0x0000000000000000        0x0 ./zf_driver/zf_driver_delay.o
 .data          0x0000000000000000        0x0 ./zf_driver/zf_driver_delay.o
 .bss           0x0000000000000000        0x0 ./zf_driver/zf_driver_delay.o
 .text          0x0000000000000000        0x0 ./zf_driver/zf_driver_dvp.o
 .data          0x0000000000000000        0x0 ./zf_driver/zf_driver_dvp.o
 .bss           0x0000000000000000        0x0 ./zf_driver/zf_driver_dvp.o
 .text          0x0000000000000000        0x0 ./zf_driver/zf_driver_encoder.o
 .data          0x0000000000000000        0x0 ./zf_driver/zf_driver_encoder.o
 .bss           0x0000000000000000        0x0 ./zf_driver/zf_driver_encoder.o
 .text.encoder_quad_init
                0x0000000000000000      0x33e ./zf_driver/zf_driver_encoder.o
 .rodata.encoder_quad_init
Memory Configuration

Name             Origin             Length             Attributes
RAM              0x0000000020000000 0x0000000000010000 xrw
FLASH            0x0000000000000000 0x0000000000040000 xr
*default*        0x0000000000000000 0xffffffffffffffff

Linker script and memory map

LOAD ./zf_driver/zf_driver_adc.o
LOAD ./zf_driver/zf_driver_delay.o
LOAD ./zf_driver/zf_driver_dvp.o
LOAD ./zf_driver/zf_driver_encoder.o
LOAD ./zf_driver/zf_driver_exti.o
LOAD ./zf_driver/zf_driver_flash.o
LOAD ./zf_driver/zf_driver_gpio.o
LOAD ./zf_driver/zf_driver_iic.o
LOAD ./zf_driver/zf_driver_pit.o
LOAD ./zf_driver/zf_driver_pwm.o
LOAD ./zf_driver/zf_driver_soft_iic.o
LOAD ./zf_driver/zf_driver_soft_spi.o
LOAD ./zf_driver/zf_driver_spi.o
LOAD ./zf_driver/zf_driver_timer.o
LOAD ./zf_driver/zf_driver_uart.o
LOAD ./zf_driver/zf_driver_usb_cdc.o
LOAD ./zf_device/zf_device_absolute_encoder.o
LOAD ./zf_device/zf_device_aht20.o
LOAD ./zf_device/zf_device_bluetooth_ch9141.o
LOAD ./zf_device/zf_device_camera.o
LOAD ./zf_device/zf_device_dl1a.o
LOAD ./zf_device/zf_device_dm1xa.o
LOAD ./zf_device/zf_device_gps_tau1201.o
LOAD ./zf_device/zf_device_icm20602.o
LOAD ./zf_device/zf_device_imu660ra.o
LOAD ./zf_device/zf_device_imu963ra.o
LOAD ./zf_device/zf_device_ips114.o
LOAD ./zf_device/zf_device_ips200.o
LOAD ./zf_device/zf_device_k24c02.o
LOAD ./zf_device/zf_device_key.o
LOAD ./zf_device/zf_device_mpu6050.o
LOAD ./zf_device/zf_device_mt9v03x_dvp.o
LOAD ./zf_device/zf_device_oled.o
LOAD ./zf_device/zf_device_scc8660_dvp.o
LOAD ./zf_device/zf_device_tft180.o
LOAD ./zf_device/zf_device_type.o
LOAD ./zf_device/zf_device_virtual_oscilloscope.o
LOAD ./zf_device/zf_device_w25q32.o
LOAD ./zf_device/zf_device_wifi_uart.o
LOAD ./zf_device/zf_device_wireless_ch573.o
LOAD ./zf_device/zf_device_wireless_uart.o
LOAD ./zf_common/zf_common_clock.o
LOAD ./zf_common/zf_common_debug.o
LOAD ./zf_common/zf_common_fifo.o
LOAD ./zf_common/zf_common_font.o
LOAD ./zf_common/zf_common_function.o
LOAD ./zf_common/zf_common_interrupt.o
LOAD ./user_c/isr.o
LOAD ./user_c/main.o
LOAD ./sdk/Startup/startup_ch32v30x_D8C.o
LOAD ./sdk/Peripheral/ch32v30x_adc.o
LOAD ./sdk/Peripheral/ch32v30x_bkp.o
LOAD ./sdk/Peripheral/ch32v30x_can.o
LOAD ./sdk/Peripheral/ch32v30x_crc.o
LOAD ./sdk/Peripheral/ch32v30x_dac.o
LOAD ./sdk/Peripheral/ch32v30x_dbgmcu.o
LOAD ./sdk/Peripheral/ch32v30x_dma.o
LOAD ./sdk/Peripheral/ch32v30x_dvp.o
LOAD ./sdk/Peripheral/ch32v30x_eth.o
LOAD ./sdk/Peripheral/ch32v30x_exti.o
LOAD ./sdk/Peripheral/ch32v30x_flash.o
LOAD ./sdk/Peripheral/ch32v30x_fsmc.o
LOAD ./sdk/Peripheral/ch32v30x_gpio.o
LOAD ./sdk/Peripheral/ch32v30x_i2c.o
LOAD ./sdk/Peripheral/ch32v30x_iwdg.o
LOAD ./sdk/Peripheral/ch32v30x_opa.o
LOAD ./sdk/Peripheral/ch32v30x_pwr.o
LOAD ./sdk/Peripheral/ch32v30x_rcc.o
LOAD ./sdk/Peripheral/ch32v30x_rng.o
LOAD ./sdk/Peripheral/ch32v30x_rtc.o
LOAD ./sdk/Peripheral/ch32v30x_sdio.o
LOAD ./sdk/Peripheral/ch32v30x_spi.o
LOAD ./sdk/Peripheral/ch32v30x_tim.o
LOAD ./sdk/Peripheral/ch32v30x_usart.o
LOAD ./sdk/Peripheral/ch32v30x_usbotg_device.o
LOAD ./sdk/Peripheral/ch32v30x_wwdg.o
LOAD ./sdk/Core/core_riscv.o
LOAD ./code/ADC.o
LOAD ./code/Camera.o
LOAD ./code/Control.o
LOAD ./code/FUZZY_PID_UCAS.o
LOAD ./code/Fuzzy.o
LOAD ./code/Gyroscope.o
LOAD ./code/Island.o
LOAD ./code/KEY.o
LOAD ./code/PID.o
LOAD ./code/UI.o
LOAD ./code/ZwPlus_lib.o
LOAD ./code/flash.o
LOAD ./code/pico_link_ii.o
LOAD ./code/test.o
LOAD d:/softwares/mounriver/mounriver_studio/toolchain/risc-v embedded gcc/bin/../lib/gcc/riscv-none-embed/8.2.0/../../../../riscv-none-embed/lib/rv32imafc/ilp32f\libm.a
LOAD F:\十八届智能车\比赛代码\libraries\zf_device\libzf_device_config.a
LOAD d:/softwares/mounriver/mounriver_studio/toolchain/risc-v embedded gcc/bin/../lib/gcc/riscv-none-embed/8.2.0/rv32imafc/ilp32f\libgcc.a
LOAD d:/softwares/mounriver/mounriver_studio/toolchain/risc-v embedded gcc/bin/../lib/gcc/riscv-none-embed/8.2.0/../../../../riscv-none-embed/lib/rv32imafc/ilp32f\libg_nano.a
LOAD d:/softwares/mounriver/mounriver_studio/toolchain/risc-v embedded gcc/bin/../lib/gcc/riscv-none-embed/8.2.0/../../../../riscv-none-embed/lib/rv32imafc/ilp32f\libc_nano.a
LOAD d:/softwares/mounriver/mounriver_studio/toolchain/risc-v embedded gcc/bin/../lib/gcc/riscv-none-embed/8.2.0/rv32imafc/ilp32f\libgcc.a
START GROUP
LOAD d:/softwares/mounriver/mounriver_studio/toolchain/risc-v embedded gcc/bin/../lib/gcc/riscv-none-embed/8.2.0/rv32imafc/ilp32f\libgcc.a
LOAD d:/softwares/mounriver/mounriver_studio/toolchain/risc-v embedded gcc/bin/../lib/gcc/riscv-none-embed/8.2.0/../../../../riscv-none-embed/lib/rv32imafc/ilp32f\libc_nano.a
LOAD d:/softwares/mounriver/mounriver_studio/toolchain/risc-v embedded gcc/bin/../lib/gcc/riscv-none-embed/8.2.0/../../../../riscv-none-embed/lib/rv32imafc/ilp32f\libnosys.a
END GROUP
START GROUP
LOAD d:/softwares/mounriver/mounriver_studio/toolchain/risc-v embedded gcc/bin/../lib/gcc/riscv-none-embed/8.2.0/rv32imafc/ilp32f\libgcc.a
LOAD d:/softwares/mounriver/mounriver_studio/toolchain/risc-v embedded gcc/bin/../lib/gcc/riscv-none-embed/8.2.0/../../../../riscv-none-embed/lib/rv32imafc/ilp32f\libc_nano.a
LOAD d:/softwares/mounriver/mounriver_studio/toolchain/risc-v embedded gcc/bin/../lib/gcc/riscv-none-embed/8.2.0/../../../../riscv-none-embed/lib/rv32imafc/ilp32f\libnosys.a
END GROUP
                0x0000000000000800                __stack_size = 0x800
                [!provide]                        PROVIDE (_stack_size = __stack_size)

.init           0x0000000000000000       0x38
                0x0000000000000000                _sinit = .
                0x0000000000000000                . = ALIGN (0x4)
 *(SORT_NONE(.init))
 .init          0x0000000000000000       0x38 ./sdk/Startup/startup_ch32v30x_D8C.o
                0x0000000000000000                _start
                0x0000000000000038                . = ALIGN (0x4)
                0x0000000000000038                _einit = .

.vector         0x0000000000000038      0x1c8
 *(.vector)
 .vector        0x0000000000000038      0x1a0 ./sdk/Startup/startup_ch32v30x_D8C.o
                0x0000000000000200                . = ALIGN (0x40)
 *fill*         0x00000000000001d8       0x28 

.text           0x0000000000000200    0x23274
                0x0000000000000200                . = ALIGN (0x4)
 *(.text)
 .text          0x0000000000000200       0xa8 d:/softwares/mounriver/mounriver_studio/toolchain/risc-v embedded gcc/bin/../lib/gcc/riscv-none-embed/8.2.0/../../../../riscv-none-embed/lib/rv32imafc/ilp32f\libg_nano.a(lib_a-memset.o)
                0x0000000000000200                memset
 *(.text.*)
 .text.adc_convert
                0x00000000000002a8       0xbc ./zf_driver/zf_driver_adc.o
                0x00000000000002a8                adc_convert
 .text.adc_init
                0x0000000000000364      0x194 ./zf_driver/zf_driver_adc.o
                0x0000000000000364                adc_init
 .text.system_delay_ms
                0x00000000000004f8       0xa2 ./zf_driver/zf_driver_delay.o
                0x00000000000004f8                system_delay_ms
 .text.system_delay_us
                0x000000000000059a       0xa4 ./zf_driver/zf_driver_delay.o
                0x000000000000059a                system_delay_us
 .text.dvp_gpio_init
                0x000000000000063e      0x118 ./zf_driver/zf_driver_dvp.o
                0x000000000000063e                dvp_gpio_init
 .text.dvp_camera_init
                0x0000000000000756      0x144 ./zf_driver/zf_driver_dvp.o
                0x0000000000000756                dvp_camera_init
 .text.encoder_get_count
                0x000000000000089a      0x152 ./zf_driver/zf_driver_encoder.o
                0x000000000000089a                encoder_get_count
 .text.encoder_clear_count
                0x00000000000009ec       0x9c ./zf_driver/zf_driver_encoder.o
                0x00000000000009ec                encoder_clear_count
 .text.encoder_dir_init
                0x0000000000000a88      0x2f8 ./zf_driver/zf_driver_encoder.o
                0x0000000000000a88                encoder_dir_init
 .text.exti_init
                0x0000000000000d80      0x108 ./zf_driver/zf_driver_exti.o
                0x0000000000000d80                exti_init
 .text.flash_check
                0x0000000000000e88       0xe4 ./zf_driver/zf_driver_flash.o
                0x0000000000000e88                flash_check
 .text.flash_erase_sector
                0x0000000000000f6c       0xde ./zf_driver/zf_driver_flash.o
                0x0000000000000f6c                flash_erase_sector
 .text.flash_read_page_to_buffer
                0x000000000000104a       0xb0 ./zf_driver/zf_driver_flash.o
                0x000000000000104a                flash_read_page_to_buffer
 .text.flash_write_page_from_buffer
                0x00000000000010fa      0x126 ./zf_driver/zf_driver_flash.o
                0x00000000000010fa                flash_write_page_from_buffer
 .text.gpio_set_level
                0x0000000000001220       0x78 ./zf_driver/zf_driver_gpio.o
                0x0000000000001220                gpio_set_level
 .text.gpio_get_level
                0x0000000000001298       0x42 ./zf_driver/zf_driver_gpio.o
                0x0000000000001298                gpio_get_level
 .text.gpio_init
                0x00000000000012da      0x15c ./zf_driver/zf_driver_gpio.o
                0x00000000000012da                gpio_init
 .text.pit_init
                0x0000000000001436      0x220 ./zf_driver/zf_driver_pit.o
                0x0000000000001436                pit_init
 .text.pwm_set_duty
                0x0000000000001656      0x16a ./zf_driver/zf_driver_pwm.o
                0x0000000000001656                pwm_set_duty
 .text.pwm_init
                0x00000000000017c0      0x41c ./zf_driver/zf_driver_pwm.o
                0x00000000000017c0                pwm_init
 .text.soft_iic_start
                0x0000000000001bdc      0x12a ./zf_driver/zf_driver_soft_iic.o
 .text.soft_iic_stop
                0x0000000000001d06      0x144 ./zf_driver/zf_driver_soft_iic.o
 .text.soft_iic_send_ack
                0x0000000000001e4a      0x198 ./zf_driver/zf_driver_soft_iic.o
 .text.soft_iic_wait_ack
                0x0000000000001fe2      0x162 ./zf_driver/zf_driver_soft_iic.o
 .text.soft_iic_send_data
                0x0000000000002144      0x170 ./zf_driver/zf_driver_soft_iic.o
 .text.soft_iic_read_data
                0x00000000000022b4      0x1ec ./zf_driver/zf_driver_soft_iic.o
 .text.soft_iic_write_8bit_array
                0x00000000000024a0       0xac ./zf_driver/zf_driver_soft_iic.o
                0x00000000000024a0                soft_iic_write_8bit_array
 .text.soft_iic_write_8bit_register
                0x000000000000254c       0x82 ./zf_driver/zf_driver_soft_iic.o
                0x000000000000254c                soft_iic_write_8bit_register
 .text.soft_iic_read_8bit_register
                0x00000000000025ce       0xb0 ./zf_driver/zf_driver_soft_iic.o
                0x00000000000025ce                soft_iic_read_8bit_register
 .text.soft_iic_read_8bit_registers
                0x000000000000267e      0x102 ./zf_driver/zf_driver_soft_iic.o
                0x000000000000267e                soft_iic_read_8bit_registers
 .text.soft_iic_sccb_write_register
                0x0000000000002780       0x88 ./zf_driver/zf_driver_soft_iic.o
                0x0000000000002780                soft_iic_sccb_write_register
 .text.soft_iic_sccb_read_register
                0x0000000000002808       0xbe ./zf_driver/zf_driver_soft_iic.o
                0x0000000000002808                soft_iic_sccb_read_register
 .text.soft_iic_init
                0x00000000000028c6       0xb6 ./zf_driver/zf_driver_soft_iic.o
                0x00000000000028c6                soft_iic_init
 .text.spi_write_8bit
                0x000000000000297c       0x70 ./zf_driver/zf_driver_spi.o
                0x000000000000297c                spi_write_8bit
 .text.spi_write_16bit
                0x00000000000029ec       0xae ./zf_driver/zf_driver_spi.o
                0x00000000000029ec                spi_write_16bit
 .text.spi_write_8bit_register
                0x0000000000002a9a       0xd0 ./zf_driver/zf_driver_spi.o
                0x0000000000002a9a                spi_write_8bit_register
 .text.spi_write_8bit_registers
                0x0000000000002b6a       0xc2 ./zf_driver/zf_driver_spi.o
                0x0000000000002b6a                spi_write_8bit_registers
 .text.spi_read_8bit_registers
                0x0000000000002c2c       0xf0 ./zf_driver/zf_driver_spi.o
                0x0000000000002c2c                spi_read_8bit_registers
 .text.spi_init
                0x0000000000002d1c      0x2de ./zf_driver/zf_driver_spi.o
                0x0000000000002d1c                spi_init
 .text.timer_funciton_check
                0x0000000000002ffa       0x66 ./zf_driver/zf_driver_timer.o
                0x0000000000002ffa                timer_funciton_check
 .text.timer_clock_enable
                0x0000000000003060       0xe2 ./zf_driver/zf_driver_timer.o
                0x0000000000003060                timer_clock_enable
 .text.timer_start
                0x0000000000003142       0xcc ./zf_driver/zf_driver_timer.o
                0x0000000000003142                timer_start
 .text.timer_get
                0x000000000000320e      0x100 ./zf_driver/zf_driver_timer.o
                0x000000000000320e                timer_get
 .text.timer_clear
                0x000000000000330e       0xc6 ./zf_driver/zf_driver_timer.o
                0x000000000000330e                timer_clear
 .text.timer_init
                0x00000000000033d4      0x1a6 ./zf_driver/zf_driver_timer.o
                0x00000000000033d4                timer_init
 .text.uart_write_byte
                0x000000000000357a       0x5a ./zf_driver/zf_driver_uart.o
                0x000000000000357a                uart_write_byte
 .text.uart_write_buffer
                0x00000000000035d4       0x66 ./zf_driver/zf_driver_uart.o
                0x00000000000035d4                uart_write_buffer
 .text.uart_write_string
                0x000000000000363a       0x62 ./zf_driver/zf_driver_uart.o
                0x000000000000363a                uart_write_string
 .text.uart_rx_interrupt
                0x000000000000369c       0x86 ./zf_driver/zf_driver_uart.o
                0x000000000000369c                uart_rx_interrupt
 .text.uart_query_byte
                0x0000000000003722       0x62 ./zf_driver/zf_driver_uart.o
                0x0000000000003722                uart_query_byte
 .text.uart_init
                0x0000000000003784      0x5b2 ./zf_driver/zf_driver_uart.o
                0x0000000000003784                uart_init
 .text.camera_fifo_init
                0x0000000000003d36       0x22 ./zf_device/zf_device_camera.o
                0x0000000000003d36                camera_fifo_init
 .text.dl1a_get_spad_info
                0x0000000000003d58      0x1f8 ./zf_device/zf_device_dl1a.o
 .text.dl1a_timeout_mclks_to_microseconds
                0x0000000000003f50       0x58 ./zf_device/zf_device_dl1a.o
 .text.dl1a_timeout_microseconds_to_mclks
                0x0000000000003fa8       0x54 ./zf_device/zf_device_dl1a.o
 .text.dl1a_decode_timeout
                0x0000000000003ffc       0x34 ./zf_device/zf_device_dl1a.o
 .text.dl1a_encode_timeout
                0x0000000000004030       0x7a ./zf_device/zf_device_dl1a.o
 .text.dl1a_get_sequence_step_enables
                0x00000000000040aa       0x9e ./zf_device/zf_device_dl1a.o
 .text.dl1a_get_vcsel_pulse_period
                0x0000000000004148       0x88 ./zf_device/zf_device_dl1a.o
 .text.dl1a_get_sequence_step_timeouts
                0x00000000000041d0      0x198 ./zf_device/zf_device_dl1a.o
 .text.dl1a_perform_single_ref_calibration
                0x0000000000004368       0xbe ./zf_device/zf_device_dl1a.o
 .text.dl1a_set_measurement_timing_budget
                0x0000000000004426      0x168 ./zf_device/zf_device_dl1a.o
 .text.dl1a_get_measurement_timing_budget
                0x000000000000458e       0xb6 ./zf_device/zf_device_dl1a.o
 .text.dl1a_set_signal_rate_limit
                0x0000000000004644       0xac ./zf_device/zf_device_dl1a.o
 .text.dl1a_get_distance
                0x00000000000046f0       0xa4 ./zf_device/zf_device_dl1a.o
                0x00000000000046f0                dl1a_get_distance
 .text.dl1a_init
                0x0000000000004794      0x8fc ./zf_device/zf_device_dl1a.o
                0x0000000000004794                dl1a_init
 .text.dm1xa_sound_callback
                0x0000000000005090       0xf4 ./zf_device/zf_device_dm1xa.o
                0x0000000000005090                dm1xa_sound_callback
 .text.dm1xa_light_callback
                0x0000000000005184       0x32 ./zf_device/zf_device_dm1xa.o
                0x0000000000005184                dm1xa_light_callback
 .text.dm1xa_transmitter_ranging
                0x00000000000051b6       0x1c ./zf_device/zf_device_dm1xa.o
                0x00000000000051b6                dm1xa_transmitter_ranging
 .text.dm1xa_init
                0x00000000000051d2      0x12c ./zf_device/zf_device_dm1xa.o
                0x00000000000051d2                dm1xa_init
 .text.gps_uart_callback
                0x00000000000052fe      0x112 ./zf_device/zf_device_gps_tau1201.o
                0x00000000000052fe                gps_uart_callback
 .text.imu660ra_write_register
                0x0000000000005410       0x52 ./zf_device/zf_device_imu660ra.o
 .text.imu660ra_write_registers
                0x0000000000005462       0x54 ./zf_device/zf_device_imu660ra.o
 .text.imu660ra_read_register
                0x00000000000054b6       0x58 ./zf_device/zf_device_imu660ra.o
 .text.imu660ra_read_registers
                0x000000000000550e       0xa0 ./zf_device/zf_device_imu660ra.o
 .text.imu660ra_self_check
                0x00000000000055ae       0x5c ./zf_device/zf_device_imu660ra.o
 .text.imu660ra_get_gyro
                0x000000000000560a       0x80 ./zf_device/zf_device_imu660ra.o
                0x000000000000560a                imu660ra_get_gyro
 .text.imu660ra_init
                0x000000000000568a      0x156 ./zf_device/zf_device_imu660ra.o
                0x000000000000568a                imu660ra_init
 .text.ips200_write_data
                0x00000000000057e0       0x32 ./zf_device/zf_device_ips200.o
 .text.ips200_write_command
                0x0000000000005812      0x1ae ./zf_device/zf_device_ips200.o
 .text.ips200_write_8bit_data
                0x00000000000059c0       0xc8 ./zf_device/zf_device_ips200.o
 .text.ips200_write_16bit_data
                0x0000000000005a88      0x128 ./zf_device/zf_device_ips200.o
 .text.ips200_set_region
                0x0000000000005bb0       0xfc ./zf_device/zf_device_ips200.o
 .text.ips200_debug_init
                0x0000000000005cac       0x7e ./zf_device/zf_device_ips200.o
 .text.ips200_clear
                0x0000000000005d2a       0xda ./zf_device/zf_device_ips200.o
                0x0000000000005d2a                ips200_clear
 .text.ips200_set_dir
                0x0000000000005e04       0x46 ./zf_device/zf_device_ips200.o
                0x0000000000005e04                ips200_set_dir
 .text.ips200_set_color
                0x0000000000005e4a       0x2c ./zf_device/zf_device_ips200.o
                0x0000000000005e4a                ips200_set_color
 .text.ips200_show_char
                0x0000000000005e76      0x2d8 ./zf_device/zf_device_ips200.o
                0x0000000000005e76                ips200_show_char
 .text.ips200_show_string
                0x000000000000614e      0x11e ./zf_device/zf_device_ips200.o
                0x000000000000614e                ips200_show_string
 .text.ips200_show_int
                0x000000000000626c      0x146 ./zf_device/zf_device_ips200.o
                0x000000000000626c                ips200_show_int
 .text.ips200_show_uint
                0x00000000000063b2      0x142 ./zf_device/zf_device_ips200.o
                0x00000000000063b2                ips200_show_uint
 .text.ips200_show_float
                0x00000000000064f4      0x21a ./zf_device/zf_device_ips200.o
                0x00000000000064f4                ips200_show_float
 .text.ips200_show_gray_image
                0x000000000000670e      0x27e ./zf_device/zf_device_ips200.o
                0x000000000000670e                ips200_show_gray_image
 .text.ips200_init
                0x000000000000698c      0x44c ./zf_device/zf_device_ips200.o
                0x000000000000698c                ips200_init
 .text.mt9v03x_set_config
                0x0000000000006dd8      0x12c ./zf_device/zf_device_mt9v03x_dvp.o
 .text.mt9v03x_get_config
                0x0000000000006f04      0x164 ./zf_device/zf_device_mt9v03x_dvp.o
 .text.mt9v03x_uart_handler
                0x0000000000007068       0x44 ./zf_device/zf_device_mt9v03x_dvp.o
 .text.mt9v03x_dvp_handler
                0x00000000000070ac       0x14 ./zf_device/zf_device_mt9v03x_dvp.o
                0x00000000000070ac                mt9v03x_dvp_handler
 .text.mt9v03x_get_version
                0x00000000000070c0       0xca ./zf_device/zf_device_mt9v03x_dvp.o
                0x00000000000070c0                mt9v03x_get_version
 .text.mt9v03x_set_exposure_time
                0x000000000000718a      0x106 ./zf_device/zf_device_mt9v03x_dvp.o
                0x000000000000718a                mt9v03x_set_exposure_time
 .text.mt9v03x_init
                0x0000000000007290      0x182 ./zf_device/zf_device_mt9v03x_dvp.o
                0x0000000000007290                mt9v03x_init
 .text.type_default_callback
                0x0000000000007412        0xe ./zf_device/zf_device_type.o
 .text.set_camera_type
                0x0000000000007420       0x52 ./zf_device/zf_device_type.o
                0x0000000000007420                set_camera_type
 .text.clock_reset
                0x0000000000007472       0x76 ./zf_common/zf_common_clock.o
                0x0000000000007472                clock_reset
 .text.clock_set_freq
                0x00000000000074e8      0x1e0 ./zf_common/zf_common_clock.o
                0x00000000000074e8                clock_set_freq
 .text.clock_init
                0x00000000000076c8       0x2e ./zf_common/zf_common_clock.o
                0x00000000000076c8                clock_init
 .text.__NOP    0x00000000000076f6       0x10 ./zf_common/zf_common_debug.o
 .text.debug_delay
                0x0000000000007706       0x54 ./zf_common/zf_common_debug.o
 .text.debug_protective_handler
                0x000000000000775a        0xe ./zf_common/zf_common_debug.o
 .text.debug_uart_str_output
                0x0000000000007768       0x20 ./zf_common/zf_common_debug.o
 .text.debug_output
                0x0000000000007788      0x570 ./zf_common/zf_common_debug.o
 .text._write   0x0000000000007cf8       0x80 ./zf_common/zf_common_debug.o
                0x0000000000007cf8                _write
 .text.debug_assert_handler
                0x0000000000007d78       0x6a ./zf_common/zf_common_debug.o
                0x0000000000007d78                debug_assert_handler
 .text.debug_log_handler
                0x0000000000007de2       0x50 ./zf_common/zf_common_debug.o
                0x0000000000007de2                debug_log_handler
 .text.debug_output_struct_init
                0x0000000000007e32       0x5a ./zf_common/zf_common_debug.o
                0x0000000000007e32                debug_output_struct_init
 .text.debug_output_init
                0x0000000000007e8c       0xa8 ./zf_common/zf_common_debug.o
                0x0000000000007e8c                debug_output_init
 .text.debug_init
                0x0000000000007f34       0x4a ./zf_common/zf_common_debug.o
                0x0000000000007f34                debug_init
 .text.fifo_head_offset
                0x0000000000007f7e       0x4e ./zf_common/zf_common_fifo.o
 .text.fifo_end_offset
                0x0000000000007fcc       0x4e ./zf_common/zf_common_fifo.o
 .text.fifo_clear
                0x000000000000801a      0x102 ./zf_common/zf_common_fifo.o
                0x000000000000801a                fifo_clear
 .text.fifo_used
                0x000000000000811c       0x46 ./zf_common/zf_common_fifo.o
                0x000000000000811c                fifo_used
 .text.fifo_write_element
                0x0000000000008162      0x11a ./zf_common/zf_common_fifo.o
                0x0000000000008162                fifo_write_element
 .text.fifo_write_buffer
                0x000000000000827c      0x306 ./zf_common/zf_common_fifo.o
                0x000000000000827c                fifo_write_buffer
 .text.fifo_read_buffer
                0x0000000000008582      0x2e4 ./zf_common/zf_common_fifo.o
                0x0000000000008582                fifo_read_buffer
 .text.fifo_init
                0x0000000000008866       0x98 ./zf_common/zf_common_fifo.o
                0x0000000000008866                fifo_init
 .text.func_int_to_str
                0x00000000000088fe      0x118 ./zf_common/zf_common_function.o
                0x00000000000088fe                func_int_to_str
 .text.func_uint_to_str
                0x0000000000008a16       0xda ./zf_common/zf_common_function.o
                0x0000000000008a16                func_uint_to_str
 .text.func_double_to_str
                0x0000000000008af0      0x2a6 ./zf_common/zf_common_function.o
                0x0000000000008af0                func_double_to_str
 .text.__enable_irq
                0x0000000000008d96       0x18 ./zf_common/zf_common_interrupt.o
 .text.__disable_irq
                0x0000000000008dae       0x14 ./zf_common/zf_common_interrupt.o
 .text.NVIC_EnableIRQ
                0x0000000000008dc2       0x32 ./zf_common/zf_common_interrupt.o
 .text.NVIC_DisableIRQ
                0x0000000000008df4       0x32 ./zf_common/zf_common_interrupt.o
 .text.NVIC_SetPriority
                0x0000000000008e26       0x2a ./zf_common/zf_common_interrupt.o
 .text.interrupt_enable
                0x0000000000008e50       0x1e ./zf_common/zf_common_interrupt.o
                0x0000000000008e50                interrupt_enable
 .text.interrupt_disable
                0x0000000000008e6e       0x1e ./zf_common/zf_common_interrupt.o
                0x0000000000008e6e                interrupt_disable
 .text.interrupt_set_priority
                0x0000000000008e8c       0x2a ./zf_common/zf_common_interrupt.o
                0x0000000000008e8c                interrupt_set_priority
 .text.interrupt_global_enable
                0x0000000000008eb6       0x32 ./zf_common/zf_common_interrupt.o
                0x0000000000008eb6                interrupt_global_enable
 .text.interrupt_global_disable
                0x0000000000008ee8       0x2c ./zf_common/zf_common_interrupt.o
                0x0000000000008ee8                interrupt_global_disable
 .text.interrupt_init
                0x0000000000008f14       0x18 ./zf_common/zf_common_interrupt.o
                0x0000000000008f14                interrupt_init
 .text.USART1_IRQHandler
                0x0000000000008f2c       0xc4 ./user_c/isr.o
                0x0000000000008f2c                USART1_IRQHandler
 .text.USART2_IRQHandler
                0x0000000000008ff0       0xc4 ./user_c/isr.o
                0x0000000000008ff0                USART2_IRQHandler
 .text.USART3_IRQHandler
                0x00000000000090b4       0xc4 ./user_c/isr.o
                0x00000000000090b4                USART3_IRQHandler
 .text.UART4_IRQHandler
                0x0000000000009178       0xc4 ./user_c/isr.o
                0x0000000000009178                UART4_IRQHandler
 .text.UART5_IRQHandler
                0x000000000000923c       0xc2 ./user_c/isr.o
                0x000000000000923c                UART5_IRQHandler
 .text.UART6_IRQHandler
                0x00000000000092fe       0xc4 ./user_c/isr.o
                0x00000000000092fe                UART6_IRQHandler
 .text.UART7_IRQHandler
                0x00000000000093c2       0xf8 ./user_c/isr.o
                0x00000000000093c2                UART7_IRQHandler
 .text.UART8_IRQHandler
                0x00000000000094ba       0xc0 ./user_c/isr.o
                0x00000000000094ba                UART8_IRQHandler
 .text.DVP_IRQHandler
                0x000000000000957a       0xd0 ./user_c/isr.o
                0x000000000000957a                DVP_IRQHandler
 .text.EXTI0_IRQHandler
                0x000000000000964a       0xb4 ./user_c/isr.o
                0x000000000000964a                EXTI0_IRQHandler
 .text.EXTI1_IRQHandler
                0x00000000000096fe       0xb4 ./user_c/isr.o
                0x00000000000096fe                EXTI1_IRQHandler
 .text.EXTI2_IRQHandler
                0x00000000000097b2       0xb4 ./user_c/isr.o
                0x00000000000097b2                EXTI2_IRQHandler
 .text.EXTI3_IRQHandler
                0x0000000000009866       0xb4 ./user_c/isr.o
                0x0000000000009866                EXTI3_IRQHandler
 .text.EXTI4_IRQHandler
                0x000000000000991a       0xb4 ./user_c/isr.o
                0x000000000000991a                EXTI4_IRQHandler
 .text.EXTI9_5_IRQHandler
                0x00000000000099ce      0x118 ./user_c/isr.o
                0x00000000000099ce                EXTI9_5_IRQHandler
 .text.EXTI15_10_IRQHandler
                0x0000000000009ae6      0x12c ./user_c/isr.o
                0x0000000000009ae6                EXTI15_10_IRQHandler
 .text.TIM1_UP_IRQHandler
                0x0000000000009c12       0xc0 ./user_c/isr.o
                0x0000000000009c12                TIM1_UP_IRQHandler
 .text.TIM2_IRQHandler
                0x0000000000009cd2       0xb8 ./user_c/isr.o
                0x0000000000009cd2                TIM2_IRQHandler
 .text.TIM3_IRQHandler
                0x0000000000009d8a      0x110 ./user_c/isr.o
                0x0000000000009d8a                TIM3_IRQHandler
 .text.TIM4_IRQHandler
                0x0000000000009e9a       0xc0 ./user_c/isr.o
                0x0000000000009e9a                TIM4_IRQHandler
 .text.TIM5_IRQHandler
                0x0000000000009f5a      0x3ec ./user_c/isr.o
                0x0000000000009f5a                TIM5_IRQHandler
 .text.TIM6_IRQHandler
                0x000000000000a346      0x124 ./user_c/isr.o
                0x000000000000a346                TIM6_IRQHandler
 .text.TIM7_IRQHandler
                0x000000000000a46a       0xc0 ./user_c/isr.o
                0x000000000000a46a                TIM7_IRQHandler
 .text.TIM8_UP_IRQHandler
                0x000000000000a52a       0xc0 ./user_c/isr.o
                0x000000000000a52a                TIM8_UP_IRQHandler
 .text.TIM9_UP_IRQHandler
                0x000000000000a5ea       0xc0 ./user_c/isr.o
                0x000000000000a5ea                TIM9_UP_IRQHandler
 .text.TIM10_UP_IRQHandler
                0x000000000000a6aa       0xb8 ./user_c/isr.o
                0x000000000000a6aa                TIM10_UP_IRQHandler
 .text.NMI_Handler
                0x000000000000a762       0x10 ./user_c/isr.o
                0x000000000000a762                NMI_Handler
 .text.HardFault_Handler
                0x000000000000a772        0x8 ./user_c/isr.o
                0x000000000000a772                HardFault_Handler
 .text.main     0x000000000000a77a      0x246 ./user_c/main.o
                0x000000000000a77a                main
 .text.vector_handler
                0x000000000000a9c0       0xbe ./sdk/Startup/startup_ch32v30x_D8C.o
                0x000000000000a9c4                Ecall_M_Mode_Handler
                0x000000000000a9c6                Ecall_U_Mode_Handler
                0x000000000000a9c8                Break_Point_Handler
                0x000000000000a9ca                SysTick_Handler
                0x000000000000a9cc                SW_Handler
                0x000000000000a9ce                WWDG_IRQHandler
                0x000000000000a9d0                PVD_IRQHandler
                0x000000000000a9d2                TAMPER_IRQHandler
                0x000000000000a9d4                RTC_IRQHandler
                0x000000000000a9d6                FLASH_IRQHandler
                0x000000000000a9d8                RCC_IRQHandler
                0x000000000000a9e4                DMA1_Channel1_IRQHandler
                0x000000000000a9e6                DMA1_Channel2_IRQHandler
                0x000000000000a9e8                DMA1_Channel3_IRQHandler
                0x000000000000a9ea                DMA1_Channel4_IRQHandler
                0x000000000000a9ec                DMA1_Channel5_IRQHandler
                0x000000000000a9ee                DMA1_Channel6_IRQHandler
                0x000000000000a9f0                DMA1_Channel7_IRQHandler
                0x000000000000a9f2                ADC1_2_IRQHandler
                0x000000000000a9f4                USB_HP_CAN1_TX_IRQHandler
                0x000000000000a9f6                USB_LP_CAN1_RX0_IRQHandler
                0x000000000000a9f8                CAN1_RX1_IRQHandler
                0x000000000000a9fa                CAN1_SCE_IRQHandler
                0x000000000000a9fe                TIM1_BRK_IRQHandler
                0x000000000000aa02                TIM1_TRG_COM_IRQHandler
                0x000000000000aa04                TIM1_CC_IRQHandler
                0x000000000000aa0c                I2C1_EV_IRQHandler
                0x000000000000aa0e                I2C1_ER_IRQHandler
                0x000000000000aa10                I2C2_EV_IRQHandler
                0x000000000000aa12                I2C2_ER_IRQHandler
                0x000000000000aa14                SPI1_IRQHandler
                0x000000000000aa16                SPI2_IRQHandler
                0x000000000000aa20                RTCAlarm_IRQHandler
                0x000000000000aa22                USBWakeUp_IRQHandler
                0x000000000000aa24                TIM8_BRK_IRQHandler
                0x000000000000aa28                TIM8_TRG_COM_IRQHandler
                0x000000000000aa2a                TIM8_CC_IRQHandler
                0x000000000000aa2c                RNG_IRQHandler
                0x000000000000aa2e                FSMC_IRQHandler
                0x000000000000aa30                SDIO_IRQHandler
                0x000000000000aa34                SPI3_IRQHandler
                0x000000000000aa3e                DMA2_Channel1_IRQHandler
                0x000000000000aa40                DMA2_Channel2_IRQHandler
                0x000000000000aa42                DMA2_Channel3_IRQHandler
                0x000000000000aa44                DMA2_Channel4_IRQHandler
                0x000000000000aa46                DMA2_Channel5_IRQHandler
                0x000000000000aa48                ETH_IRQHandler
                0x000000000000aa4a                ETH_WKUP_IRQHandler
                0x000000000000aa4c                CAN2_TX_IRQHandler
                0x000000000000aa4e                CAN2_RX0_IRQHandler
                0x000000000000aa50                CAN2_RX1_IRQHandler
                0x000000000000aa52                CAN2_SCE_IRQHandler
                0x000000000000aa56                USBHSWakeup_IRQHandler
                0x000000000000aa58                USBHS_IRQHandler
                0x000000000000aa62                TIM9_BRK_IRQHandler
                0x000000000000aa66                TIM9_TRG_COM_IRQHandler
                0x000000000000aa68                TIM9_CC_IRQHandler
                0x000000000000aa6a                TIM10_BRK_IRQHandler
                0x000000000000aa6e                TIM10_TRG_COM_IRQHandler
                0x000000000000aa70                TIM10_CC_IRQHandler
                0x000000000000aa72                DMA2_Channel6_IRQHandler
                0x000000000000aa74                DMA2_Channel7_IRQHandler
                0x000000000000aa76                DMA2_Channel8_IRQHandler
                0x000000000000aa78                DMA2_Channel9_IRQHandler
                0x000000000000aa7a                DMA2_Channel10_IRQHandler
                0x000000000000aa7c                DMA2_Channel11_IRQHandler
 .text.handle_reset
                0x000000000000aa7e       0x8a ./sdk/Startup/startup_ch32v30x_D8C.o
                0x000000000000aa7e                handle_reset
 .text.ADC_DeInit
                0x000000000000ab08       0x60 ./sdk/Peripheral/ch32v30x_adc.o
                0x000000000000ab08                ADC_DeInit
 .text.ADC_Init
                0x000000000000ab68      0x102 ./sdk/Peripheral/ch32v30x_adc.o
                0x000000000000ab68                ADC_Init
 .text.ADC_Cmd  0x000000000000ac6a       0x3e ./sdk/Peripheral/ch32v30x_adc.o
                0x000000000000ac6a                ADC_Cmd
 .text.ADC_ResetCalibration
                0x000000000000aca8       0x22 ./sdk/Peripheral/ch32v30x_adc.o
                0x000000000000aca8                ADC_ResetCalibration
 .text.ADC_GetResetCalibrationStatus
                0x000000000000acca       0x30 ./sdk/Peripheral/ch32v30x_adc.o
                0x000000000000acca                ADC_GetResetCalibrationStatus
 .text.ADC_StartCalibration
                0x000000000000acfa       0x22 ./sdk/Peripheral/ch32v30x_adc.o
                0x000000000000acfa                ADC_StartCalibration
 .text.ADC_GetCalibrationStatus
                0x000000000000ad1c       0x30 ./sdk/Peripheral/ch32v30x_adc.o
                0x000000000000ad1c                ADC_GetCalibrationStatus
 .text.ADC_SoftwareStartConvCmd
                0x000000000000ad4c       0x44 ./sdk/Peripheral/ch32v30x_adc.o
                0x000000000000ad4c                ADC_SoftwareStartConvCmd
 .text.ADC_RegularChannelConfig
                0x000000000000ad90      0x248 ./sdk/Peripheral/ch32v30x_adc.o
                0x000000000000ad90                ADC_RegularChannelConfig
 .text.ADC_GetFlagStatus
                0x000000000000afd8       0x3a ./sdk/Peripheral/ch32v30x_adc.o
                0x000000000000afd8                ADC_GetFlagStatus
 .text.ADC_BufferCmd
                0x000000000000b012       0x44 ./sdk/Peripheral/ch32v30x_adc.o
                0x000000000000b012                ADC_BufferCmd
 .text.EXTI_Init
                0x000000000000b056      0x170 ./sdk/Peripheral/ch32v30x_exti.o
                0x000000000000b056                EXTI_Init
 .text.EXTI_GetITStatus
                0x000000000000b1c6       0x56 ./sdk/Peripheral/ch32v30x_exti.o
                0x000000000000b1c6                EXTI_GetITStatus
 .text.EXTI_ClearITPendingBit
                0x000000000000b21c       0x20 ./sdk/Peripheral/ch32v30x_exti.o
                0x000000000000b21c                EXTI_ClearITPendingBit
 .text.FLASH_Unlock
                0x000000000000b23c       0x2a ./sdk/Peripheral/ch32v30x_flash.o
                0x000000000000b23c                FLASH_Unlock
 .text.FLASH_Lock
                0x000000000000b266       0x1e ./sdk/Peripheral/ch32v30x_flash.o
                0x000000000000b266                FLASH_Lock
 .text.FLASH_ErasePage
                0x000000000000b284       0x76 ./sdk/Peripheral/ch32v30x_flash.o
                0x000000000000b284                FLASH_ErasePage
 .text.FLASH_ProgramWord
                0x000000000000b2fa       0xae ./sdk/Peripheral/ch32v30x_flash.o
                0x000000000000b2fa                FLASH_ProgramWord
 .text.FLASH_ClearFlag
                0x000000000000b3a8       0x1c ./sdk/Peripheral/ch32v30x_flash.o
                0x000000000000b3a8                FLASH_ClearFlag
 .text.FLASH_GetBank1Status
                0x000000000000b3c4       0x5a ./sdk/Peripheral/ch32v30x_flash.o
                0x000000000000b3c4                FLASH_GetBank1Status
 .text.FLASH_WaitForLastOperation
                0x000000000000b41e       0x58 ./sdk/Peripheral/ch32v30x_flash.o
                0x000000000000b41e                FLASH_WaitForLastOperation
 .text.GPIO_Init
                0x000000000000b476      0x22a ./sdk/Peripheral/ch32v30x_gpio.o
                0x000000000000b476                GPIO_Init
 .text.GPIO_WriteBit
                0x000000000000b6a0       0x38 ./sdk/Peripheral/ch32v30x_gpio.o
                0x000000000000b6a0                GPIO_WriteBit
 .text.GPIO_PinRemapConfig
                0x000000000000b6d8      0x1c8 ./sdk/Peripheral/ch32v30x_gpio.o
                0x000000000000b6d8                GPIO_PinRemapConfig
 .text.GPIO_EXTILineConfig
                0x000000000000b8a0       0xa2 ./sdk/Peripheral/ch32v30x_gpio.o
                0x000000000000b8a0                GPIO_EXTILineConfig
 .text.RCC_ADCCLKConfig
                0x000000000000b942       0x46 ./sdk/Peripheral/ch32v30x_rcc.o
                0x000000000000b942                RCC_ADCCLKConfig
 .text.RCC_GetClocksFreq
                0x000000000000b988      0x2c6 ./sdk/Peripheral/ch32v30x_rcc.o
                0x000000000000b988                RCC_GetClocksFreq
 .text.RCC_AHBPeriphClockCmd
                0x000000000000bc4e       0x46 ./sdk/Peripheral/ch32v30x_rcc.o
                0x000000000000bc4e                RCC_AHBPeriphClockCmd
 .text.RCC_APB2PeriphClockCmd
                0x000000000000bc94       0x46 ./sdk/Peripheral/ch32v30x_rcc.o
                0x000000000000bc94                RCC_APB2PeriphClockCmd
 .text.RCC_APB1PeriphClockCmd
                0x000000000000bcda       0x46 ./sdk/Peripheral/ch32v30x_rcc.o
                0x000000000000bcda                RCC_APB1PeriphClockCmd
 .text.RCC_APB2PeriphResetCmd
                0x000000000000bd20       0x46 ./sdk/Peripheral/ch32v30x_rcc.o
                0x000000000000bd20                RCC_APB2PeriphResetCmd
 .text.RCC_APB1PeriphResetCmd
                0x000000000000bd66       0x46 ./sdk/Peripheral/ch32v30x_rcc.o
                0x000000000000bd66                RCC_APB1PeriphResetCmd
 .text.SPI_I2S_DeInit
                0x000000000000bdac       0x76 ./sdk/Peripheral/ch32v30x_spi.o
                0x000000000000bdac                SPI_I2S_DeInit
 .text.SPI_Init
                0x000000000000be22       0xf8 ./sdk/Peripheral/ch32v30x_spi.o
                0x000000000000be22                SPI_Init
 .text.SPI_Cmd  0x000000000000bf1a       0x5a ./sdk/Peripheral/ch32v30x_spi.o
                0x000000000000bf1a                SPI_Cmd
 .text.TIM_TimeBaseInit
                0x000000000000bf74      0x17e ./sdk/Peripheral/ch32v30x_tim.o
                0x000000000000bf74                TIM_TimeBaseInit
 .text.TIM_OC1Init
                0x000000000000c0f2      0x19c ./sdk/Peripheral/ch32v30x_tim.o
                0x000000000000c0f2                TIM_OC1Init
 .text.TIM_OC2Init
                0x000000000000c28e      0x1e2 ./sdk/Peripheral/ch32v30x_tim.o
                0x000000000000c28e                TIM_OC2Init
 .text.TIM_OC3Init
                0x000000000000c470      0x1dc ./sdk/Peripheral/ch32v30x_tim.o
                0x000000000000c470                TIM_OC3Init
 .text.TIM_OC4Init
                0x000000000000c64c      0x176 ./sdk/Peripheral/ch32v30x_tim.o
                0x000000000000c64c                TIM_OC4Init
 .text.TIM_TimeBaseStructInit
                0x000000000000c7c2       0x3c ./sdk/Peripheral/ch32v30x_tim.o
                0x000000000000c7c2                TIM_TimeBaseStructInit
 .text.TIM_Cmd  0x000000000000c7fe       0x58 ./sdk/Peripheral/ch32v30x_tim.o
                0x000000000000c7fe                TIM_Cmd
 .text.TIM_CtrlPWMOutputs
                0x000000000000c856       0x60 ./sdk/Peripheral/ch32v30x_tim.o
                0x000000000000c856                TIM_CtrlPWMOutputs
 .text.TIM_ITConfig
                0x000000000000c8b6       0x70 ./sdk/Peripheral/ch32v30x_tim.o
                0x000000000000c8b6                TIM_ITConfig
 .text.TIM_ITRxExternalClockConfig
                0x000000000000c926       0x46 ./sdk/Peripheral/ch32v30x_tim.o
                0x000000000000c926                TIM_ITRxExternalClockConfig
 .text.TIM_SelectInputTrigger
                0x000000000000c96c       0x4e ./sdk/Peripheral/ch32v30x_tim.o
                0x000000000000c96c                TIM_SelectInputTrigger
 .text.TIM_OC1PreloadConfig
                0x000000000000c9ba       0x4c ./sdk/Peripheral/ch32v30x_tim.o
                0x000000000000c9ba                TIM_OC1PreloadConfig
 .text.TIM_OC2PreloadConfig
                0x000000000000ca06       0x5a ./sdk/Peripheral/ch32v30x_tim.o
                0x000000000000ca06                TIM_OC2PreloadConfig
 .text.TIM_OC3PreloadConfig
                0x000000000000ca60       0x4c ./sdk/Peripheral/ch32v30x_tim.o
                0x000000000000ca60                TIM_OC3PreloadConfig
 .text.TIM_OC4PreloadConfig
                0x000000000000caac       0x5a ./sdk/Peripheral/ch32v30x_tim.o
                0x000000000000caac                TIM_OC4PreloadConfig
 .text.TIM_OC1FastConfig
                0x000000000000cb06       0x4c ./sdk/Peripheral/ch32v30x_tim.o
                0x000000000000cb06                TIM_OC1FastConfig
 .text.TIM_OC2FastConfig
                0x000000000000cb52       0x56 ./sdk/Peripheral/ch32v30x_tim.o
                0x000000000000cb52                TIM_OC2FastConfig
 .text.TIM_OC3FastConfig
                0x000000000000cba8       0x4c ./sdk/Peripheral/ch32v30x_tim.o
                0x000000000000cba8                TIM_OC3FastConfig
 .text.TIM_OC4FastConfig
                0x000000000000cbf4       0x56 ./sdk/Peripheral/ch32v30x_tim.o
                0x000000000000cbf4                TIM_OC4FastConfig
 .text.TIM_GetITStatus
                0x000000000000cc4a       0x70 ./sdk/Peripheral/ch32v30x_tim.o
                0x000000000000cc4a                TIM_GetITStatus
 .text.TIM_ClearITPendingBit
                0x000000000000ccba       0x2e ./sdk/Peripheral/ch32v30x_tim.o
                0x000000000000ccba                TIM_ClearITPendingBit
 .text.USART_Init
                0x000000000000cce8      0x234 ./sdk/Peripheral/ch32v30x_usart.o
                0x000000000000cce8                USART_Init
 .text.USART_Cmd
                0x000000000000cf1c       0x60 ./sdk/Peripheral/ch32v30x_usart.o
                0x000000000000cf1c                USART_Cmd
 .text.USART_ITConfig
                0x000000000000cf7c       0xc4 ./sdk/Peripheral/ch32v30x_usart.o
                0x000000000000cf7c                USART_ITConfig
 .text.USART_SendData
                0x000000000000d040       0x2e ./sdk/Peripheral/ch32v30x_usart.o
                0x000000000000d040                USART_SendData
 .text.USART_GetFlagStatus
                0x000000000000d06e       0x46 ./sdk/Peripheral/ch32v30x_usart.o
                0x000000000000d06e                USART_GetFlagStatus
 .text.USART_GetITStatus
                0x000000000000d0b4      0x102 ./sdk/Peripheral/ch32v30x_usart.o
                0x000000000000d0b4                USART_GetITStatus
 .text.USART_ClearITPendingBit
                0x000000000000d1b6       0x4e ./sdk/Peripheral/ch32v30x_usart.o
                0x000000000000d1b6                USART_ClearITPendingBit
 .text.DevEP1_IN_Deal
                0x000000000000d204       0x3e ./sdk/Peripheral/ch32v30x_usbotg_device.o
                0x000000000000d204                DevEP1_IN_Deal
 .text.DevEP2_IN_Deal
                0x000000000000d242       0x3e ./sdk/Peripheral/ch32v30x_usbotg_device.o
                0x000000000000d242                DevEP2_IN_Deal
 .text.DevEP1_OUT_Deal
                0x000000000000d280       0x66 ./sdk/Peripheral/ch32v30x_usbotg_device.o
                0x000000000000d280                DevEP1_OUT_Deal
 .text.DevEP2_OUT_Deal
                0x000000000000d2e6       0x66 ./sdk/Peripheral/ch32v30x_usbotg_device.o
                0x000000000000d2e6                DevEP2_OUT_Deal
 .text.OTG_FS_IRQHandler
                0x000000000000d34c      0xd32 ./sdk/Peripheral/ch32v30x_usbotg_device.o
                0x000000000000d34c                OTG_FS_IRQHandler
 .text.ADC_Get_Value
                0x000000000000e07e       0xbe ./code/ADC.o
                0x000000000000e07e                ADC_Get_Value
 .text.ADC_Get_Err
                0x000000000000e13c      0x41c ./code/ADC.o
                0x000000000000e13c                ADC_Get_Err
 .text.My_Adapt_Threshold
                0x000000000000e558      0x3f8 ./code/Camera.o
                0x000000000000e558                My_Adapt_Threshold
 .text.Image_Binarization
                0x000000000000e950       0xb8 ./code/Camera.o
                0x000000000000e950                Image_Binarization
 .text.Longest_White_Column
                0x000000000000ea08      0x638 ./code/Camera.o
                0x000000000000ea08                Longest_White_Column
 .text.Show_Boundry
                0x000000000000f040       0xe2 ./code/Camera.o
                0x000000000000f040                Show_Boundry
 .text.Left_Add_Line
                0x000000000000f122      0x166 ./code/Camera.o
                0x000000000000f122                Left_Add_Line
 .text.Right_Add_Line
                0x000000000000f288      0x166 ./code/Camera.o
                0x000000000000f288                Right_Add_Line
 .text.Find_Down_Point
                0x000000000000f3ee      0x366 ./code/Camera.o
                0x000000000000f3ee                Find_Down_Point
 .text.Find_Up_Point
                0x000000000000f754      0x388 ./code/Camera.o
                0x000000000000f754                Find_Up_Point
 .text.Cross_Detect
                0x000000000000fadc      0x208 ./code/Camera.o
                0x000000000000fadc                Cross_Detect
 .text.Img_Disappear_Detect
                0x000000000000fce4      0x51e ./code/Camera.o
                0x000000000000fce4                Img_Disappear_Detect
 .text.Ramp_Detect
                0x0000000000010202       0xf4 ./code/Camera.o
                0x0000000000010202                Ramp_Detect
 .text.Zebra_Stripes_Detect
                0x00000000000102f6      0x228 ./code/Camera.o
                0x00000000000102f6                Zebra_Stripes_Detect
 .text.Break_Road_Detect
                0x000000000001051e      0x204 ./code/Camera.o
                0x000000000001051e                Break_Road_Detect
 .text.Lengthen_Left_Boundry
                0x0000000000010722      0x1c8 ./code/Camera.o
                0x0000000000010722                Lengthen_Left_Boundry
 .text.Lengthen_Right_Boundry
                0x00000000000108ea      0x1c8 ./code/Camera.o
                0x00000000000108ea                Lengthen_Right_Boundry
 .text.Draw_Line
                0x0000000000010ab2      0x398 ./code/Camera.o
                0x0000000000010ab2                Draw_Line
 .text.Barricade_Detect
                0x0000000000010e4a      0x17a ./code/Camera.o
                0x0000000000010e4a                Barricade_Detect
 .text.Err_Sum  0x0000000000010fc4      0x146 ./code/Control.o
                0x0000000000010fc4                Err_Sum
 .text.Direction_Control
                0x000000000001110a      0x1f4 ./code/Control.o
                0x000000000001110a                Direction_Control
 .text.Velocity_Control
                0x00000000000112fe      0x46a ./code/Control.o
                0x00000000000112fe                Velocity_Control
 .text.Motor_Left
                0x0000000000011768       0x8e ./code/Control.o
                0x0000000000011768                Motor_Left
 .text.Motor_Right
                0x00000000000117f6       0x8e ./code/Control.o
                0x00000000000117f6                Motor_Right
 .text.Steer    0x0000000000011884       0x54 ./code/Control.o
                0x0000000000011884                Steer
 .text.InitMH   0x00000000000118d8       0x58 ./code/FUZZY_PID_UCAS.o
                0x00000000000118d8                InitMH
 .text.DuoJi_GetP
                0x0000000000011930      0x516 ./code/FUZZY_PID_UCAS.o
                0x0000000000011930                DuoJi_GetP
 .text.f_Get_H_approximation
                0x0000000000011e46       0x48 ./code/FUZZY_PID_UCAS.o
                0x0000000000011e46                f_Get_H_approximation
 .text.f_Get_E_approximation
                0x0000000000011e8e       0x50 ./code/FUZZY_PID_UCAS.o
                0x0000000000011e8e                f_Get_E_approximation
 .text.Fuzzy_P  0x0000000000011ede      0x91e ./code/Fuzzy.o
                0x0000000000011ede                Fuzzy_P
 .text.Zero_Point_Detect
                0x00000000000127fc       0xb4 ./code/Gyroscope.o
                0x00000000000127fc                Zero_Point_Detect
 .text.Gyroscope_GetData
                0x00000000000128b0       0x70 ./code/Gyroscope.o
                0x00000000000128b0                Gyroscope_GetData
 .text.Get_Gyroscope_Angle
                0x0000000000012920      0x116 ./code/Gyroscope.o
                0x0000000000012920                Get_Gyroscope_Angle
 .text.Get_Gyroscope_Pitch
                0x0000000000012a36      0x13a ./code/Gyroscope.o
                0x0000000000012a36                Get_Gyroscope_Pitch
 .text.Clear_Gyroscope_Angle
                0x0000000000012b70       0x1e ./code/Gyroscope.o
                0x0000000000012b70                Clear_Gyroscope_Angle
 .text.Island_Detect
                0x0000000000012b8e      0xc1a ./code/Island.o
                0x0000000000012b8e                Island_Detect
 .text.Continuity_Change_Left
                0x00000000000137a8       0xe8 ./code/Island.o
                0x00000000000137a8                Continuity_Change_Left
 .text.Continuity_Change_Right
                0x0000000000013890       0xda ./code/Island.o
                0x0000000000013890                Continuity_Change_Right
 .text.Find_Left_Down_Point
                0x000000000001396a      0x214 ./code/Island.o
                0x000000000001396a                Find_Left_Down_Point
 .text.Find_Left_Up_Point
                0x0000000000013b7e      0x214 ./code/Island.o
                0x0000000000013b7e                Find_Left_Up_Point
 .text.Find_Right_Down_Point
                0x0000000000013d92      0x214 ./code/Island.o
                0x0000000000013d92                Find_Right_Down_Point
 .text.Find_Right_Up_Point
                0x0000000000013fa6      0x214 ./code/Island.o
                0x0000000000013fa6                Find_Right_Up_Point
 .text.Monotonicity_Change_Left
                0x00000000000141ba      0x402 ./code/Island.o
                0x00000000000141ba                Monotonicity_Change_Left
 .text.Monotonicity_Change_Right
                0x00000000000145bc      0x402 ./code/Island.o
                0x00000000000145bc                Monotonicity_Change_Right
 .text.K_Add_Boundry_Left
                0x00000000000149be      0x13c ./code/Island.o
                0x00000000000149be                K_Add_Boundry_Left
 .text.K_Add_Boundry_Right
                0x0000000000014afa      0x13c ./code/Island.o
                0x0000000000014afa                K_Add_Boundry_Right
 .text.K_Draw_Line
                0x0000000000014c36       0xcc ./code/Island.o
                0x0000000000014c36                K_Draw_Line
 .text.Key_Init
                0x0000000000014d02       0x7e ./code/KEY.o
                0x0000000000014d02                Key_Init
 .text.Key_Scan
                0x0000000000014d80      0x11a ./code/KEY.o
                0x0000000000014d80                Key_Scan
 .text.PD_Camera
                0x0000000000014e9a      0x10a ./code/PID.o
                0x0000000000014e9a                PD_Camera
 .text.PD_ADC   0x0000000000014fa4       0xd0 ./code/PID.o
                0x0000000000014fa4                PD_ADC
 .text.PID_L    0x0000000000015074       0xf4 ./code/PID.o
                0x0000000000015074                PID_L
 .text.PID_R    0x0000000000015168       0xf4 ./code/PID.o
                0x0000000000015168                PID_R
 .text.User_Interface
                0x000000000001525c      0x104 ./code/UI.o
                0x000000000001525c                User_Interface
 .text.Main_Menu
                0x0000000000015360       0xfa ./code/UI.o
                0x0000000000015360                Main_Menu
 .text.Sec_Menu_01
                0x000000000001545a      0x124 ./code/UI.o
                0x000000000001545a                Sec_Menu_01
 .text.Sec_Menu_02
                0x000000000001557e      0x3a0 ./code/UI.o
                0x000000000001557e                Sec_Menu_02
 .text.Sec_Menu_03
                0x000000000001591e      0x2e8 ./code/UI.o
                0x000000000001591e                Sec_Menu_03
 .text.Sec_Menu_04
                0x0000000000015c06      0x12c ./code/UI.o
                0x0000000000015c06                Sec_Menu_04
 .text.Sec_Menu_05
                0x0000000000015d32      0x15e ./code/UI.o
                0x0000000000015d32                Sec_Menu_05
 .text.Sec_Menu_06
                0x0000000000015e90       0x6a ./code/UI.o
                0x0000000000015e90                Sec_Menu_06
 .text.Sec_Menu_07
                0x0000000000015efa      0x36a ./code/UI.o
                0x0000000000015efa                Sec_Menu_07
 .text.Sec_Menu_08
                0x0000000000016264      0x1b4 ./code/UI.o
                0x0000000000016264                Sec_Menu_08
 .text.Sec_Menu_09
                0x0000000000016418       0x1a ./code/UI.o
                0x0000000000016418                Sec_Menu_09
 .text.Sec_Menu_10
                0x0000000000016432       0x42 ./code/UI.o
                0x0000000000016432                Sec_Menu_10
 .text.Menu_Select
                0x0000000000016474     0x11c2 ./code/UI.o
                0x0000000000016474                Menu_Select
 .text.Write_Flash
                0x0000000000017636      0x128 ./code/flash.o
                0x0000000000017636                Write_Flash
 .text.Read_Flash
                0x000000000001775e      0x128 ./code/flash.o
                0x000000000001775e                Read_Flash
 .text.pow      0x0000000000017886      0x324 d:/softwares/mounriver/mounriver_studio/toolchain/risc-v embedded gcc/bin/../lib/gcc/riscv-none-embed/8.2.0/../../../../riscv-none-embed/lib/rv32imafc/ilp32f\libm.a(lib_a-w_pow.o)
                0x0000000000017886                pow
 .text.__ieee754_pow
                0x0000000000017baa      0xad6 d:/softwares/mounriver/mounriver_studio/toolchain/risc-v embedded gcc/bin/../lib/gcc/riscv-none-embed/8.2.0/../../../../riscv-none-embed/lib/rv32imafc/ilp32f\libm.a(lib_a-e_pow.o)
                0x0000000000017baa                __ieee754_pow
 .text.__ieee754_sqrt
                0x0000000000018680      0x1d6 d:/softwares/mounriver/mounriver_studio/toolchain/risc-v embedded gcc/bin/../lib/gcc/riscv-none-embed/8.2.0/../../../../riscv-none-embed/lib/rv32imafc/ilp32f\libm.a(lib_a-e_sqrt.o)
                0x0000000000018680                __ieee754_sqrt
 .text.fabs     0x0000000000018856        0x6 d:/softwares/mounriver/mounriver_studio/toolchain/risc-v embedded gcc/bin/../lib/gcc/riscv-none-embed/8.2.0/../../../../riscv-none-embed/lib/rv32imafc/ilp32f\libm.a(lib_a-s_fabs.o)
                0x0000000000018856                fabs
 .text.finite   0x000000000001885c        0xe d:/softwares/mounriver/mounriver_studio/toolchain/risc-v embedded gcc/bin/../lib/gcc/riscv-none-embed/8.2.0/../../../../riscv-none-embed/lib/rv32imafc/ilp32f\libm.a(lib_a-s_finite.o)
                0x000000000001885c                finite
 .text.matherr  0x000000000001886a        0x4 d:/softwares/mounriver/mounriver_studio/toolchain/risc-v embedded gcc/bin/../lib/gcc/riscv-none-embed/8.2.0/../../../../riscv-none-embed/lib/rv32imafc/ilp32f\libm.a(lib_a-s_matherr.o)
                0x000000000001886a                matherr
 .text.nan      0x000000000001886e        0xe d:/softwares/mounriver/mounriver_studio/toolchain/risc-v embedded gcc/bin/../lib/gcc/riscv-none-embed/8.2.0/../../../../riscv-none-embed/lib/rv32imafc/ilp32f\libm.a(lib_a-s_nan.o)
                0x000000000001886e                nan
 .text.rint     0x000000000001887c      0x18c d:/softwares/mounriver/mounriver_studio/toolchain/risc-v embedded gcc/bin/../lib/gcc/riscv-none-embed/8.2.0/../../../../riscv-none-embed/lib/rv32imafc/ilp32f\libm.a(lib_a-s_rint.o)
                0x000000000001887c                rint
 .text.scalbn   0x0000000000018a08      0x140 d:/softwares/mounriver/mounriver_studio/toolchain/risc-v embedded gcc/bin/../lib/gcc/riscv-none-embed/8.2.0/../../../../riscv-none-embed/lib/rv32imafc/ilp32f\libm.a(lib_a-s_scalbn.o)
                0x0000000000018a08                scalbn
 .text.copysign
                0x0000000000018b48       0x16 d:/softwares/mounriver/mounriver_studio/toolchain/risc-v embedded gcc/bin/../lib/gcc/riscv-none-embed/8.2.0/../../../../riscv-none-embed/lib/rv32imafc/ilp32f\libm.a(lib_a-s_copysign.o)
                0x0000000000018b48                copysign
 .text.mt9v03x_write_word_sccb
                0x0000000000018b5e       0x34 F:\十八届智能车\比赛代码\libraries\zf_device\libzf_device_config.a(zf_device_config.o)
 .text.mt9v03x_set_config_sccb
                0x0000000000018b92      0x602 F:\十八届智能车\比赛代码\libraries\zf_device\libzf_device_config.a(zf_device_config.o)
                0x0000000000018b92                mt9v03x_set_config_sccb
 .text.mt9v03x_set_exposure_time_sccb
                0x0000000000019194       0x6a F:\十八届智能车\比赛代码\libraries\zf_device\libzf_device_config.a(zf_device_config.o)
                0x0000000000019194                mt9v03x_set_exposure_time_sccb
 .text.__adddf3
                0x00000000000191fe      0xa0e d:/softwares/mounriver/mounriver_studio/toolchain/risc-v embedded gcc/bin/../lib/gcc/riscv-none-embed/8.2.0/rv32imafc/ilp32f\libgcc.a(adddf3.o)
                0x00000000000191fe                __adddf3
 .text.__divdf3
                0x0000000000019c0c      0x7ea d:/softwares/mounriver/mounriver_studio/toolchain/risc-v embedded gcc/bin/../lib/gcc/riscv-none-embed/8.2.0/rv32imafc/ilp32f\libgcc.a(divdf3.o)
                0x0000000000019c0c                __divdf3
 .text.__eqdf2  0x000000000001a3f6       0x98 d:/softwares/mounriver/mounriver_studio/toolchain/risc-v embedded gcc/bin/../lib/gcc/riscv-none-embed/8.2.0/rv32imafc/ilp32f\libgcc.a(eqdf2.o)
                0x000000000001a3f6                __nedf2
                0x000000000001a3f6                __eqdf2
 .text.__gedf2  0x000000000001a48e       0xb6 d:/softwares/mounriver/mounriver_studio/toolchain/risc-v embedded gcc/bin/../lib/gcc/riscv-none-embed/8.2.0/rv32imafc/ilp32f\libgcc.a(gedf2.o)
                0x000000000001a48e                __gedf2
                0x000000000001a48e                __gtdf2
 .text.__ledf2  0x000000000001a544       0xb6 d:/softwares/mounriver/mounriver_studio/toolchain/risc-v embedded gcc/bin/../lib/gcc/riscv-none-embed/8.2.0/rv32imafc/ilp32f\libgcc.a(ledf2.o)
                0x000000000001a544                __ledf2
                0x000000000001a544                __ltdf2
 .text.__muldf3
                0x000000000001a5fa      0x656 d:/softwares/mounriver/mounriver_studio/toolchain/risc-v embedded gcc/bin/../lib/gcc/riscv-none-embed/8.2.0/rv32imafc/ilp32f\libgcc.a(muldf3.o)
                0x000000000001a5fa                __muldf3
 .text.__subdf3
                0x000000000001ac50      0xa8c d:/softwares/mounriver/mounriver_studio/toolchain/risc-v embedded gcc/bin/../lib/gcc/riscv-none-embed/8.2.0/rv32imafc/ilp32f\libgcc.a(subdf3.o)
                0x000000000001ac50                __subdf3
 .text.__unorddf2
                0x000000000001b6dc       0x7c d:/softwares/mounriver/mounriver_studio/toolchain/risc-v embedded gcc/bin/../lib/gcc/riscv-none-embed/8.2.0/rv32imafc/ilp32f\libgcc.a(unorddf2.o)
                0x000000000001b6dc                __unorddf2
 .text.__fixdfsi
                0x000000000001b758       0xd8 d:/softwares/mounriver/mounriver_studio/toolchain/risc-v embedded gcc/bin/../lib/gcc/riscv-none-embed/8.2.0/rv32imafc/ilp32f\libgcc.a(fixdfsi.o)
                0x000000000001b758                __fixdfsi
 .text.__fixunsdfsi
                0x000000000001b830       0x9e d:/softwares/mounriver/mounriver_studio/toolchain/risc-v embedded gcc/bin/../lib/gcc/riscv-none-embed/8.2.0/rv32imafc/ilp32f\libgcc.a(fixunsdfsi.o)
                0x000000000001b830                __fixunsdfsi
 .text.__floatsidf
                0x000000000001b8ce       0x70 d:/softwares/mounriver/mounriver_studio/toolchain/risc-v embedded gcc/bin/../lib/gcc/riscv-none-embed/8.2.0/rv32imafc/ilp32f\libgcc.a(floatsidf.o)
                0x000000000001b8ce                __floatsidf
 .text.__floatunsidf
                0x000000000001b93e       0x66 d:/softwares/mounriver/mounriver_studio/toolchain/risc-v embedded gcc/bin/../lib/gcc/riscv-none-embed/8.2.0/rv32imafc/ilp32f\libgcc.a(floatunsidf.o)
                0x000000000001b93e                __floatunsidf
 .text.__extendsfdf2
                0x000000000001b9a4       0xe8 d:/softwares/mounriver/mounriver_studio/toolchain/risc-v embedded gcc/bin/../lib/gcc/riscv-none-embed/8.2.0/rv32imafc/ilp32f\libgcc.a(extendsfdf2.o)
                0x000000000001b9a4                __extendsfdf2
 .text.__truncdfsf2
                0x000000000001ba8c      0x31e d:/softwares/mounriver/mounriver_studio/toolchain/risc-v embedded gcc/bin/../lib/gcc/riscv-none-embed/8.2.0/rv32imafc/ilp32f\libgcc.a(truncdfsf2.o)
                0x000000000001ba8c                __truncdfsf2
 .text.__clzsi2
                0x000000000001bdaa       0x76 d:/softwares/mounriver/mounriver_studio/toolchain/risc-v embedded gcc/bin/../lib/gcc/riscv-none-embed/8.2.0/rv32imafc/ilp32f\libgcc.a(_clzsi2.o)
                0x000000000001bdaa                __clzsi2
 .text.__errno  0x000000000001be20        0x8 d:/softwares/mounriver/mounriver_studio/toolchain/risc-v embedded gcc/bin/../lib/gcc/riscv-none-embed/8.2.0/../../../../riscv-none-embed/lib/rv32imafc/ilp32f\libg_nano.a(lib_a-errno.o)
                0x000000000001be20                __errno
 .text.memcpy   0x000000000001be28       0xb6 d:/softwares/mounriver/mounriver_studio/toolchain/risc-v embedded gcc/bin/../lib/gcc/riscv-none-embed/8.2.0/../../../../riscv-none-embed/lib/rv32imafc/ilp32f\libg_nano.a(lib_a-memcpy.o)
                0x000000000001be28                memcpy
 .text.__cvt    0x000000000001bede       0xee d:/softwares/mounriver/mounriver_studio/toolchain/risc-v embedded gcc/bin/../lib/gcc/riscv-none-embed/8.2.0/../../../../riscv-none-embed/lib/rv32imafc/ilp32f\libg_nano.a(lib_a-nano-vfprintf_float.o)
                0x000000000001bede                __cvt
 .text.__exponent
                0x000000000001bfcc       0x8c d:/softwares/mounriver/mounriver_studio/toolchain/risc-v embedded gcc/bin/../lib/gcc/riscv-none-embed/8.2.0/../../../../riscv-none-embed/lib/rv32imafc/ilp32f\libg_nano.a(lib_a-nano-vfprintf_float.o)
                0x000000000001bfcc                __exponent
 .text._printf_float
                0x000000000001c058      0x4c4 d:/softwares/mounriver/mounriver_studio/toolchain/risc-v embedded gcc/bin/../lib/gcc/riscv-none-embed/8.2.0/../../../../riscv-none-embed/lib/rv32imafc/ilp32f\libg_nano.a(lib_a-nano-vfprintf_float.o)
                0x000000000001c058                _printf_float
 .text._printf_common
                0x000000000001c51c      0x10c d:/softwares/mounriver/mounriver_studio/toolchain/risc-v embedded gcc/bin/../lib/gcc/riscv-none-embed/8.2.0/../../../../riscv-none-embed/lib/rv32imafc/ilp32f\libg_nano.a(lib_a-nano-vfprintf_i.o)
                0x000000000001c51c                _printf_common
 .text._printf_i
                0x000000000001c628      0x2ac d:/softwares/mounriver/mounriver_studio/toolchain/risc-v embedded gcc/bin/../lib/gcc/riscv-none-embed/8.2.0/../../../../riscv-none-embed/lib/rv32imafc/ilp32f\libg_nano.a(lib_a-nano-vfprintf_i.o)
                0x000000000001c628                _printf_i
 .text.printf   0x000000000001c8d4       0x42 d:/softwares/mounriver/mounriver_studio/toolchain/risc-v embedded gcc/bin/../lib/gcc/riscv-none-embed/8.2.0/../../../../riscv-none-embed/lib/rv32imafc/ilp32f\libg_nano.a(lib_a-printf.o)
                0x000000000001c8d4                iprintf
                0x000000000001c8d4                printf
 .text.sprintf  0x000000000001c916       0x46 d:/softwares/mounriver/mounriver_studio/toolchain/risc-v embedded gcc/bin/../lib/gcc/riscv-none-embed/8.2.0/../../../../riscv-none-embed/lib/rv32imafc/ilp32f\libg_nano.a(lib_a-sprintf.o)
                0x000000000001c916                siprintf
                0x000000000001c916                sprintf
 .text.strlen   0x000000000001c95c       0x12 d:/softwares/mounriver/mounriver_studio/toolchain/risc-v embedded gcc/bin/../lib/gcc/riscv-none-embed/8.2.0/../../../../riscv-none-embed/lib/rv32imafc/ilp32f\libg_nano.a(lib_a-strlen.o)
                0x000000000001c95c                strlen
 .text.strncmp  0x000000000001c96e       0x2c d:/softwares/mounriver/mounriver_studio/toolchain/risc-v embedded gcc/bin/../lib/gcc/riscv-none-embed/8.2.0/../../../../riscv-none-embed/lib/rv32imafc/ilp32f\libg_nano.a(lib_a-strncmp.o)
                0x000000000001c96e                strncmp
 .text.quorem   0x000000000001c99a      0x13a d:/softwares/mounriver/mounriver_studio/toolchain/risc-v embedded gcc/bin/../lib/gcc/riscv-none-embed/8.2.0/../../../../riscv-none-embed/lib/rv32imafc/ilp32f\libg_nano.a(lib_a-dtoa.o)
 .text._dtoa_r  0x000000000001cad4      0xbea d:/softwares/mounriver/mounriver_studio/toolchain/risc-v embedded gcc/bin/../lib/gcc/riscv-none-embed/8.2.0/../../../../riscv-none-embed/lib/rv32imafc/ilp32f\libg_nano.a(lib_a-dtoa.o)
                0x000000000001cad4                _dtoa_r
 .text.std      0x000000000001d6be       0x6a d:/softwares/mounriver/mounriver_studio/toolchain/risc-v embedded gcc/bin/../lib/gcc/riscv-none-embed/8.2.0/../../../../riscv-none-embed/lib/rv32imafc/ilp32f\libg_nano.a(lib_a-findfp.o)
 .text._cleanup_r
                0x000000000001d728        0xa d:/softwares/mounriver/mounriver_studio/toolchain/risc-v embedded gcc/bin/../lib/gcc/riscv-none-embed/8.2.0/../../../../riscv-none-embed/lib/rv32imafc/ilp32f\libg_nano.a(lib_a-findfp.o)
                0x000000000001d728                _cleanup_r
 .text.__sfmoreglue
                0x000000000001d732       0x48 d:/softwares/mounriver/mounriver_studio/toolchain/risc-v embedded gcc/bin/../lib/gcc/riscv-none-embed/8.2.0/../../../../riscv-none-embed/lib/rv32imafc/ilp32f\libg_nano.a(lib_a-findfp.o)
                0x000000000001d732                __sfmoreglue
 .text.__sinit  0x000000000001d77a       0x6c d:/softwares/mounriver/mounriver_studio/toolchain/risc-v embedded gcc/bin/../lib/gcc/riscv-none-embed/8.2.0/../../../../riscv-none-embed/lib/rv32imafc/ilp32f\libg_nano.a(lib_a-findfp.o)
                0x000000000001d77a                __sinit
 .text.__sfp    0x000000000001d7e6       0xa0 d:/softwares/mounriver/mounriver_studio/toolchain/risc-v embedded gcc/bin/../lib/gcc/riscv-none-embed/8.2.0/../../../../riscv-none-embed/lib/rv32imafc/ilp32f\libg_nano.a(lib_a-findfp.o)
                0x000000000001d7e6                __sfp
 .text._fwalk_reent
                0x000000000001d886       0x6c d:/softwares/mounriver/mounriver_studio/toolchain/risc-v embedded gcc/bin/../lib/gcc/riscv-none-embed/8.2.0/../../../../riscv-none-embed/lib/rv32imafc/ilp32f\libg_nano.a(lib_a-fwalk.o)
                0x000000000001d886                _fwalk_reent
 .text._localeconv_r
                0x000000000001d8f2       0x18 d:/softwares/mounriver/mounriver_studio/toolchain/risc-v embedded gcc/bin/../lib/gcc/riscv-none-embed/8.2.0/../../../../riscv-none-embed/lib/rv32imafc/ilp32f\libg_nano.a(lib_a-localeconv.o)
                0x000000000001d8f2                _localeconv_r
 .text.malloc   0x000000000001d90a        0xc d:/softwares/mounriver/mounriver_studio/toolchain/risc-v embedded gcc/bin/../lib/gcc/riscv-none-embed/8.2.0/../../../../riscv-none-embed/lib/rv32imafc/ilp32f\libg_nano.a(lib_a-malloc.o)
                0x000000000001d90a                malloc
 .text.memchr   0x000000000001d916       0x1a d:/softwares/mounriver/mounriver_studio/toolchain/risc-v embedded gcc/bin/../lib/gcc/riscv-none-embed/8.2.0/../../../../riscv-none-embed/lib/rv32imafc/ilp32f\libg_nano.a(lib_a-memchr.o)
                0x000000000001d916                memchr
 .text._Balloc  0x000000000001d930       0x88 d:/softwares/mounriver/mounriver_studio/toolchain/risc-v embedded gcc/bin/../lib/gcc/riscv-none-embed/8.2.0/../../../../riscv-none-embed/lib/rv32imafc/ilp32f\libg_nano.a(lib_a-mprec.o)
                0x000000000001d930                _Balloc
 .text._Bfree   0x000000000001d9b8       0x44 d:/softwares/mounriver/mounriver_studio/toolchain/risc-v embedded gcc/bin/../lib/gcc/riscv-none-embed/8.2.0/../../../../riscv-none-embed/lib/rv32imafc/ilp32f\libg_nano.a(lib_a-mprec.o)
                0x000000000001d9b8                _Bfree
 .text.__multadd
                0x000000000001d9fc       0x98 d:/softwares/mounriver/mounriver_studio/toolchain/risc-v embedded gcc/bin/../lib/gcc/riscv-none-embed/8.2.0/../../../../riscv-none-embed/lib/rv32imafc/ilp32f\libg_nano.a(lib_a-mprec.o)
                0x000000000001d9fc                __multadd
 .text.__hi0bits
                0x000000000001da94       0x46 d:/softwares/mounriver/mounriver_studio/toolchain/risc-v embedded gcc/bin/../lib/gcc/riscv-none-embed/8.2.0/../../../../riscv-none-embed/lib/rv32imafc/ilp32f\libg_nano.a(lib_a-mprec.o)
                0x000000000001da94                __hi0bits
 .text.__lo0bits
                0x000000000001dada       0x6a d:/softwares/mounriver/mounriver_studio/toolchain/risc-v embedded gcc/bin/../lib/gcc/riscv-none-embed/8.2.0/../../../../riscv-none-embed/lib/rv32imafc/ilp32f\libg_nano.a(lib_a-mprec.o)
                0x000000000001dada                __lo0bits
 .text.__i2b    0x000000000001db44       0x1c d:/softwares/mounriver/mounriver_studio/toolchain/risc-v embedded gcc/bin/../lib/gcc/riscv-none-embed/8.2.0/../../../../riscv-none-embed/lib/rv32imafc/ilp32f\libg_nano.a(lib_a-mprec.o)
                0x000000000001db44                __i2b
 .text.__multiply
                0x000000000001db60      0x144 d:/softwares/mounriver/mounriver_studio/toolchain/risc-v embedded gcc/bin/../lib/gcc/riscv-none-embed/8.2.0/../../../../riscv-none-embed/lib/rv32imafc/ilp32f\libg_nano.a(lib_a-mprec.o)
                0x000000000001db60                __multiply
 .text.__pow5mult
                0x000000000001dca4       0xbe d:/softwares/mounriver/mounriver_studio/toolchain/risc-v embedded gcc/bin/../lib/gcc/riscv-none-embed/8.2.0/../../../../riscv-none-embed/lib/rv32imafc/ilp32f\libg_nano.a(lib_a-mprec.o)
                0x000000000001dca4                __pow5mult
 .text.__lshift
                0x000000000001dd62       0xce d:/softwares/mounriver/mounriver_studio/toolchain/risc-v embedded gcc/bin/../lib/gcc/riscv-none-embed/8.2.0/../../../../riscv-none-embed/lib/rv32imafc/ilp32f\libg_nano.a(lib_a-mprec.o)
                0x000000000001dd62                __lshift
 .text.__mcmp   0x000000000001de30       0x32 d:/softwares/mounriver/mounriver_studio/toolchain/risc-v embedded gcc/bin/../lib/gcc/riscv-none-embed/8.2.0/../../../../riscv-none-embed/lib/rv32imafc/ilp32f\libg_nano.a(lib_a-mprec.o)
                0x000000000001de30                __mcmp
 .text.__mdiff  0x000000000001de62       0xf2 d:/softwares/mounriver/mounriver_studio/toolchain/risc-v embedded gcc/bin/../lib/gcc/riscv-none-embed/8.2.0/../../../../riscv-none-embed/lib/rv32imafc/ilp32f\libg_nano.a(lib_a-mprec.o)
                0x000000000001de62                __mdiff
 .text.__d2b    0x000000000001df54       0xd4 d:/softwares/mounriver/mounriver_studio/toolchain/risc-v embedded gcc/bin/../lib/gcc/riscv-none-embed/8.2.0/../../../../riscv-none-embed/lib/rv32imafc/ilp32f\libg_nano.a(lib_a-mprec.o)
                0x000000000001df54                __d2b
 .text._calloc_r
                0x000000000001e028       0x26 d:/softwares/mounriver/mounriver_studio/toolchain/risc-v embedded gcc/bin/../lib/gcc/riscv-none-embed/8.2.0/../../../../riscv-none-embed/lib/rv32imafc/ilp32f\libg_nano.a(lib_a-nano-callocr.o)
                0x000000000001e028                _calloc_r
 .text._free_r  0x000000000001e04e       0xa8 d:/softwares/mounriver/mounriver_studio/toolchain/risc-v embedded gcc/bin/../lib/gcc/riscv-none-embed/8.2.0/../../../../riscv-none-embed/lib/rv32imafc/ilp32f\libg_nano.a(lib_a-nano-freer.o)
                0x000000000001e04e                _free_r
 .text._malloc_r
                0x000000000001e0f6       0xd4 d:/softwares/mounriver/mounriver_studio/toolchain/risc-v embedded gcc/bin/../lib/gcc/riscv-none-embed/8.2.0/../../../../riscv-none-embed/lib/rv32imafc/ilp32f\libg_nano.a(lib_a-nano-mallocr.o)
                0x000000000001e0f6                _malloc_r
 .text.__ssputs_r
                0x000000000001e1ca       0xee d:/softwares/mounriver/mounriver_studio/toolchain/risc-v embedded gcc/bin/../lib/gcc/riscv-none-embed/8.2.0/../../../../riscv-none-embed/lib/rv32imafc/ilp32f\libg_nano.a(lib_a-nano-svfprintf.o)
                0x000000000001e1ca                __ssputs_r
 .text._svfprintf_r
                0x000000000001e2b8      0x27e d:/softwares/mounriver/mounriver_studio/toolchain/risc-v embedded gcc/bin/../lib/gcc/riscv-none-embed/8.2.0/../../../../riscv-none-embed/lib/rv32imafc/ilp32f\libg_nano.a(lib_a-nano-svfprintf.o)
                0x000000000001e2b8                _svfiprintf_r
                0x000000000001e2b8                _svfprintf_r
 .text.__sfputc_r
                0x000000000001e536       0x28 d:/softwares/mounriver/mounriver_studio/toolchain/risc-v embedded gcc/bin/../lib/gcc/riscv-none-embed/8.2.0/../../../../riscv-none-embed/lib/rv32imafc/ilp32f\libg_nano.a(lib_a-nano-vfprintf.o)
 .text.__sfputs_r
                0x000000000001e55e       0x44 d:/softwares/mounriver/mounriver_studio/toolchain/risc-v embedded gcc/bin/../lib/gcc/riscv-none-embed/8.2.0/../../../../riscv-none-embed/lib/rv32imafc/ilp32f\libg_nano.a(lib_a-nano-vfprintf.o)
                0x000000000001e55e                __sfputs_r
 .text._vfprintf_r
                0x000000000001e5a2      0x29e d:/softwares/mounriver/mounriver_studio/toolchain/risc-v embedded gcc/bin/../lib/gcc/riscv-none-embed/8.2.0/../../../../riscv-none-embed/lib/rv32imafc/ilp32f\libg_nano.a(lib_a-nano-vfprintf.o)
                0x000000000001e5a2                _vfprintf_r
                0x000000000001e5a2                _vfiprintf_r
 .text._sbrk_r  0x000000000001e840       0x32 d:/softwares/mounriver/mounriver_studio/toolchain/risc-v embedded gcc/bin/../lib/gcc/riscv-none-embed/8.2.0/../../../../riscv-none-embed/lib/rv32imafc/ilp32f\libg_nano.a(lib_a-sbrkr.o)
                0x000000000001e840                _sbrk_r
 .text.__sread  0x000000000001e872       0x30 d:/softwares/mounriver/mounriver_studio/toolchain/risc-v embedded gcc/bin/../lib/gcc/riscv-none-embed/8.2.0/../../../../riscv-none-embed/lib/rv32imafc/ilp32f\libg_nano.a(lib_a-stdio.o)
                0x000000000001e872                __sread
 .text.__swrite
                0x000000000001e8a2       0x4e d:/softwares/mounriver/mounriver_studio/toolchain/risc-v embedded gcc/bin/../lib/gcc/riscv-none-embed/8.2.0/../../../../riscv-none-embed/lib/rv32imafc/ilp32f\libg_nano.a(lib_a-stdio.o)
                0x000000000001e8a2                __swrite
 .text.__sseek  0x000000000001e8f0       0x36 d:/softwares/mounriver/mounriver_studio/toolchain/risc-v embedded gcc/bin/../lib/gcc/riscv-none-embed/8.2.0/../../../../riscv-none-embed/lib/rv32imafc/ilp32f\libg_nano.a(lib_a-stdio.o)
                0x000000000001e8f0                __sseek
 .text.__sclose
                0x000000000001e926        0x6 d:/softwares/mounriver/mounriver_studio/toolchain/risc-v embedded gcc/bin/../lib/gcc/riscv-none-embed/8.2.0/../../../../riscv-none-embed/lib/rv32imafc/ilp32f\libg_nano.a(lib_a-stdio.o)
                0x000000000001e926                __sclose
 .text.__swbuf_r
                0x000000000001e92c       0xc2 d:/softwares/mounriver/mounriver_studio/toolchain/risc-v embedded gcc/bin/../lib/gcc/riscv-none-embed/8.2.0/../../../../riscv-none-embed/lib/rv32imafc/ilp32f\libg_nano.a(lib_a-wbuf.o)
                0x000000000001e92c                __swbuf_r
 .text._write_r
                0x000000000001e9ee       0x36 d:/softwares/mounriver/mounriver_studio/toolchain/risc-v embedded gcc/bin/../lib/gcc/riscv-none-embed/8.2.0/../../../../riscv-none-embed/lib/rv32imafc/ilp32f\libg_nano.a(lib_a-writer.o)
                0x000000000001e9ee                _write_r
 .text.__swsetup_r
                0x000000000001ea24      0x110 d:/softwares/mounriver/mounriver_studio/toolchain/risc-v embedded gcc/bin/../lib/gcc/riscv-none-embed/8.2.0/../../../../riscv-none-embed/lib/rv32imafc/ilp32f\libg_nano.a(lib_a-wsetup.o)
                0x000000000001ea24                __swsetup_r
 .text._close_r
                0x000000000001eb34       0x32 d:/softwares/mounriver/mounriver_studio/toolchain/risc-v embedded gcc/bin/../lib/gcc/riscv-none-embed/8.2.0/../../../../riscv-none-embed/lib/rv32imafc/ilp32f\libg_nano.a(lib_a-closer.o)
                0x000000000001eb34                _close_r
 .text.__sflush_r
                0x000000000001eb66      0x13e d:/softwares/mounriver/mounriver_studio/toolchain/risc-v embedded gcc/bin/../lib/gcc/riscv-none-embed/8.2.0/../../../../riscv-none-embed/lib/rv32imafc/ilp32f\libg_nano.a(lib_a-fflush.o)
                0x000000000001eb66                __sflush_r
 .text._fflush_r
                0x000000000001eca4       0x68 d:/softwares/mounriver/mounriver_studio/toolchain/risc-v embedded gcc/bin/../lib/gcc/riscv-none-embed/8.2.0/../../../../riscv-none-embed/lib/rv32imafc/ilp32f\libg_nano.a(lib_a-fflush.o)
                0x000000000001eca4                _fflush_r
 .text._lseek_r
                0x000000000001ed0c       0x34 d:/softwares/mounriver/mounriver_studio/toolchain/risc-v embedded gcc/bin/../lib/gcc/riscv-none-embed/8.2.0/../../../../riscv-none-embed/lib/rv32imafc/ilp32f\libg_nano.a(lib_a-lseekr.o)
                0x000000000001ed0c                _lseek_r
 .text.__swhatbuf_r
                0x000000000001ed40       0x58 d:/softwares/mounriver/mounriver_studio/toolchain/risc-v embedded gcc/bin/../lib/gcc/riscv-none-embed/8.2.0/../../../../riscv-none-embed/lib/rv32imafc/ilp32f\libg_nano.a(lib_a-makebuf.o)
                0x000000000001ed40                __swhatbuf_r
 .text.__smakebuf_r
                0x000000000001ed98       0xa0 d:/softwares/mounriver/mounriver_studio/toolchain/risc-v embedded gcc/bin/../lib/gcc/riscv-none-embed/8.2.0/../../../../riscv-none-embed/lib/rv32imafc/ilp32f\libg_nano.a(lib_a-makebuf.o)
                0x000000000001ed98                __smakebuf_r
 .text.__ascii_mbtowc
                0x000000000001ee38       0x3a d:/softwares/mounriver/mounriver_studio/toolchain/risc-v embedded gcc/bin/../lib/gcc/riscv-none-embed/8.2.0/../../../../riscv-none-embed/lib/rv32imafc/ilp32f\libg_nano.a(lib_a-mbtowc_r.o)
                0x000000000001ee38                __ascii_mbtowc
 .text.memmove  0x000000000001ee72       0x4a d:/softwares/mounriver/mounriver_studio/toolchain/risc-v embedded gcc/bin/../lib/gcc/riscv-none-embed/8.2.0/../../../../riscv-none-embed/lib/rv32imafc/ilp32f\libg_nano.a(lib_a-memmove.o)
                0x000000000001ee72                memmove
 .text.__malloc_lock
                0x000000000001eebc        0x2 d:/softwares/mounriver/mounriver_studio/toolchain/risc-v embedded gcc/bin/../lib/gcc/riscv-none-embed/8.2.0/../../../../riscv-none-embed/lib/rv32imafc/ilp32f\libg_nano.a(lib_a-mlock.o)
                0x000000000001eebc                __malloc_lock
 .text.__malloc_unlock
                0x000000000001eebe        0x2 d:/softwares/mounriver/mounriver_studio/toolchain/risc-v embedded gcc/bin/../lib/gcc/riscv-none-embed/8.2.0/../../../../riscv-none-embed/lib/rv32imafc/ilp32f\libg_nano.a(lib_a-mlock.o)
                0x000000000001eebe                __malloc_unlock
 .text._realloc_r
                0x000000000001eec0       0x58 d:/softwares/mounriver/mounriver_studio/toolchain/risc-v embedded gcc/bin/../lib/gcc/riscv-none-embed/8.2.0/../../../../riscv-none-embed/lib/rv32imafc/ilp32f\libg_nano.a(lib_a-nano-reallocr.o)
                0x000000000001eec0                _realloc_r
 .text._read_r  0x000000000001ef18       0x34 d:/softwares/mounriver/mounriver_studio/toolchain/risc-v embedded gcc/bin/../lib/gcc/riscv-none-embed/8.2.0/../../../../riscv-none-embed/lib/rv32imafc/ilp32f\libg_nano.a(lib_a-readr.o)
                0x000000000001ef18                _read_r
 .text.__ascii_wctomb
                0x000000000001ef4c       0x20 d:/softwares/mounriver/mounriver_studio/toolchain/risc-v embedded gcc/bin/../lib/gcc/riscv-none-embed/8.2.0/../../../../riscv-none-embed/lib/rv32imafc/ilp32f\libg_nano.a(lib_a-wctomb_r.o)
                0x000000000001ef4c                __ascii_wctomb
 .text._fstat_r
                0x000000000001ef6c       0x32 d:/softwares/mounriver/mounriver_studio/toolchain/risc-v embedded gcc/bin/../lib/gcc/riscv-none-embed/8.2.0/../../../../riscv-none-embed/lib/rv32imafc/ilp32f\libg_nano.a(lib_a-fstatr.o)
                0x000000000001ef6c                _fstat_r
 .text._isatty_r
                0x000000000001ef9e       0x30 d:/softwares/mounriver/mounriver_studio/toolchain/risc-v embedded gcc/bin/../lib/gcc/riscv-none-embed/8.2.0/../../../../riscv-none-embed/lib/rv32imafc/ilp32f\libg_nano.a(lib_a-isattyr.o)
                0x000000000001ef9e                _isatty_r
 .text._malloc_usable_size_r
                0x000000000001efce       0x14 d:/softwares/mounriver/mounriver_studio/toolchain/risc-v embedded gcc/bin/../lib/gcc/riscv-none-embed/8.2.0/../../../../riscv-none-embed/lib/rv32imafc/ilp32f\libg_nano.a(lib_a-nano-msizer.o)
                0x000000000001efce                _malloc_usable_size_r
 .text.__trunctfdf2
                0x000000000001efe2      0x3d0 d:/softwares/mounriver/mounriver_studio/toolchain/risc-v embedded gcc/bin/../lib/gcc/riscv-none-embed/8.2.0/rv32imafc/ilp32f\libgcc.a(trunctfdf2.o)
                0x000000000001efe2                __trunctfdf2
 .text._close   0x000000000001f3b2       0x10 d:/softwares/mounriver/mounriver_studio/toolchain/risc-v embedded gcc/bin/../lib/gcc/riscv-none-embed/8.2.0/../../../../riscv-none-embed/lib/rv32imafc/ilp32f\libnosys.a(close.o)
                0x000000000001f3b2                _close
 .text._fstat   0x000000000001f3c2       0x10 d:/softwares/mounriver/mounriver_studio/toolchain/risc-v embedded gcc/bin/../lib/gcc/riscv-none-embed/8.2.0/../../../../riscv-none-embed/lib/rv32imafc/ilp32f\libnosys.a(fstat.o)
                0x000000000001f3c2                _fstat
 .text._isatty  0x000000000001f3d2       0x10 d:/softwares/mounriver/mounriver_studio/toolchain/risc-v embedded gcc/bin/../lib/gcc/riscv-none-embed/8.2.0/../../../../riscv-none-embed/lib/rv32imafc/ilp32f\libnosys.a(isatty.o)
                0x000000000001f3d2                _isatty
 .text._lseek   0x000000000001f3e2       0x10 d:/softwares/mounriver/mounriver_studio/toolchain/risc-v embedded gcc/bin/../lib/gcc/riscv-none-embed/8.2.0/../../../../riscv-none-embed/lib/rv32imafc/ilp32f\libnosys.a(lseek.o)
                0x000000000001f3e2                _lseek
 .text._read    0x000000000001f3f2       0x10 d:/softwares/mounriver/mounriver_studio/toolchain/risc-v embedded gcc/bin/../lib/gcc/riscv-none-embed/8.2.0/../../../../riscv-none-embed/lib/rv32imafc/ilp32f\libnosys.a(read.o)
                0x000000000001f3f2                _read
 .text._sbrk    0x000000000001f402       0x24 d:/softwares/mounriver/mounriver_studio/toolchain/risc-v embedded gcc/bin/../lib/gcc/riscv-none-embed/8.2.0/../../../../riscv-none-embed/lib/rv32imafc/ilp32f\libnosys.a(sbrk.o)
                0x000000000001f402                _sbrk
 *(.rodata)
 *fill*         0x000000000001f426        0x2 
 .rodata        0x000000000001f428       0x60 ./zf_driver/zf_driver_encoder.o
 .rodata        0x000000000001f488       0x5e ./zf_driver/zf_driver_flash.o
 *fill*         0x000000000001f4e6        0x2 
 .rodata        0x000000000001f4e8       0x84 ./zf_driver/zf_driver_pit.o
 .rodata        0x000000000001f56c       0x5c ./zf_driver/zf_driver_pwm.o
 .rodata        0x000000000001f5c8       0x61 ./zf_driver/zf_driver_soft_iic.o
 *fill*         0x000000000001f629        0x3 
 .rodata        0x000000000001f62c       0x5c ./zf_driver/zf_driver_spi.o
 .rodata        0x000000000001f688       0x5e ./zf_driver/zf_driver_timer.o
 *fill*         0x000000000001f6e6        0x2 
 .rodata        0x000000000001f6e8       0x5d ./zf_driver/zf_driver_uart.o
 *fill*         0x000000000001f745        0x3 
 .rodata        0x000000000001f748       0xc0 ./zf_device/zf_device_dl1a.o
 .rodata        0x000000000001f808        0x8 ./zf_device/zf_device_dm1xa.o
 .rodata        0x000000000001f810       0xf0 ./zf_device/zf_device_gps_tau1201.o
 .rodata        0x000000000001f900       0xa0 ./zf_device/zf_device_imu660ra.o
 .rodata        0x000000000001f9a0       0x70 ./zf_device/zf_device_ips200.o
 .rodata        0x000000000001fa10       0x9a ./zf_device/zf_device_mt9v03x_dvp.o
 *fill*         0x000000000001faaa        0x2 
 .rodata        0x000000000001faac       0x78 ./zf_common/zf_common_debug.o
 .rodata        0x000000000001fb24       0x5d ./zf_common/zf_common_fifo.o
 *fill*         0x000000000001fb81        0x7 
 .rodata        0x000000000001fb88       0xa0 ./zf_common/zf_common_function.o
 .rodata        0x000000000001fc28       0x41 ./sdk/Peripheral/ch32v30x_usbotg_device.o
 *fill*         0x000000000001fc69        0x7 
 .rodata        0x000000000001fc70       0x1c ./code/ADC.o
 *fill*         0x000000000001fc8c        0x4 
 .rodata        0x000000000001fc90       0x18 ./code/Camera.o
 .rodata        0x000000000001fca8       0x20 ./code/Control.o
 .rodata        0x000000000001fcc8       0x10 ./code/FUZZY_PID_UCAS.o
 .rodata        0x000000000001fcd8      0x234 ./code/Fuzzy.o
 *fill*         0x000000000001ff0c        0x4 
 .rodata        0x000000000001ff10       0x2c ./code/Gyroscope.o
 *fill*         0x000000000001ff3c        0x4 
 .rodata        0x000000000001ff40       0x24 ./code/Island.o
 .rodata        0x000000000001ff64       0x2c ./code/PID.o
 .rodata        0x000000000001ff90      0x328 ./code/UI.o
 *(.rodata*)
 .rodata.encoder_get_count
                0x00000000000202b8       0x28 ./zf_driver/zf_driver_encoder.o
 .rodata.encoder_clear_count
                0x00000000000202e0       0x28 ./zf_driver/zf_driver_encoder.o
 .rodata.encoder_dir_init
                0x0000000000020308       0x28 ./zf_driver/zf_driver_encoder.o
 .rodata.pit_init
                0x0000000000020330       0x28 ./zf_driver/zf_driver_pit.o
 .rodata.pwm_set_duty
                0x0000000000020358       0x28 ./zf_driver/zf_driver_pwm.o
 .rodata.pwm_init
                0x0000000000020380       0x28 ./zf_driver/zf_driver_pwm.o
 .rodata.spi_index
                0x00000000000203a8        0xc ./zf_driver/zf_driver_spi.o
                0x00000000000203a8                spi_index
 .rodata.timer_start
                0x00000000000203b4       0x28 ./zf_driver/zf_driver_timer.o
 .rodata.timer_get
                0x00000000000203dc       0x28 ./zf_driver/zf_driver_timer.o
 .rodata.timer_clear
                0x0000000000020404       0x28 ./zf_driver/zf_driver_timer.o
 .rodata.timer_init
                0x000000000002042c       0x28 ./zf_driver/zf_driver_timer.o
 .rodata.uart_index
                0x0000000000020454       0x20 ./zf_driver/zf_driver_uart.o
                0x0000000000020454                uart_index
 .rodata.ascii_font_8x16
                0x0000000000020474      0x5f0 ./zf_common/zf_common_font.o
                0x0000000000020474                ascii_font_8x16
 .rodata.ascii_font_6x8
                0x0000000000020a64      0x228 ./zf_common/zf_common_font.o
                0x0000000000020a64                ascii_font_6x8
 .rodata.MyDevDescrHD
                0x0000000000020c8c       0x12 ./sdk/Peripheral/ch32v30x_usbotg_device.o
                0x0000000000020c8c                MyDevDescrHD
 *fill*         0x0000000000020c9e        0x2 
 .rodata.MyCfgDescrHD
                0x0000000000020ca0       0x43 ./sdk/Peripheral/ch32v30x_usbotg_device.o
                0x0000000000020ca0                MyCfgDescrHD
 *fill*         0x0000000000020ce3        0x1 
 .rodata.MyReportDescHD
                0x0000000000020ce4       0x14 ./sdk/Peripheral/ch32v30x_usbotg_device.o
                0x0000000000020ce4                MyReportDescHD
 .rodata.MyManuInfoHD
                0x0000000000020cf8        0xe ./sdk/Peripheral/ch32v30x_usbotg_device.o
                0x0000000000020cf8                MyManuInfoHD
 *fill*         0x0000000000020d06        0x2 
 .rodata.MyProdInfoHD
                0x0000000000020d08        0xc ./sdk/Peripheral/ch32v30x_usbotg_device.o
                0x0000000000020d08                MyProdInfoHD
 .rodata.MySerNumInfoHD
                0x0000000000020d14       0x16 ./sdk/Peripheral/ch32v30x_usbotg_device.o
                0x0000000000020d14                MySerNumInfoHD
 *fill*         0x0000000000020d2a        0x2 
 .rodata.MyUSBQUADescHD
                0x0000000000020d2c        0xa ./sdk/Peripheral/ch32v30x_usbotg_device.o
                0x0000000000020d2c                MyUSBQUADescHD
 *fill*         0x0000000000020d36        0x2 
 .rodata.OTG_FS_IRQHandler
                0x0000000000020d38       0xbc ./sdk/Peripheral/ch32v30x_usbotg_device.o
 .rodata.Standard_Road_Wide
                0x0000000000020df4       0x46 ./code/Camera.o
                0x0000000000020df4                Standard_Road_Wide
 *fill*         0x0000000000020e3a        0x2 
 .rodata.Weight
                0x0000000000020e3c       0x46 ./code/Control.o
                0x0000000000020e3c                Weight
 *fill*         0x0000000000020e82        0x6 
 .rodata.pow.cst8
                0x0000000000020e88       0x30 d:/softwares/mounriver/mounriver_studio/toolchain/risc-v embedded gcc/bin/../lib/gcc/riscv-none-embed/8.2.0/../../../../riscv-none-embed/lib/rv32imafc/ilp32f\libm.a(lib_a-w_pow.o)
 .rodata.pow.str1.4
                0x0000000000020eb8        0x4 d:/softwares/mounriver/mounriver_studio/toolchain/risc-v embedded gcc/bin/../lib/gcc/riscv-none-embed/8.2.0/../../../../riscv-none-embed/lib/rv32imafc/ilp32f\libm.a(lib_a-w_pow.o)
 *fill*         0x0000000000020ebc        0x4 
 .rodata.__ieee754_pow.cst8
                0x0000000000020ec0      0x100 d:/softwares/mounriver/mounriver_studio/toolchain/risc-v embedded gcc/bin/../lib/gcc/riscv-none-embed/8.2.0/../../../../riscv-none-embed/lib/rv32imafc/ilp32f\libm.a(lib_a-e_pow.o)
                                        0x110 (size before relaxing)
 .rodata.__ieee754_pow.str1.4
                0x0000000000020fc0        0x4 d:/softwares/mounriver/mounriver_studio/toolchain/risc-v embedded gcc/bin/../lib/gcc/riscv-none-embed/8.2.0/../../../../riscv-none-embed/lib/rv32imafc/ilp32f\libm.a(lib_a-e_pow.o)
                                          0x1 (size before relaxing)
 .rodata.nan.cst8
                0x0000000000020fc0        0x8 d:/softwares/mounriver/mounriver_studio/toolchain/risc-v embedded gcc/bin/../lib/gcc/riscv-none-embed/8.2.0/../../../../riscv-none-embed/lib/rv32imafc/ilp32f\libm.a(lib_a-s_nan.o)
 .rodata.TWO52  0x0000000000020fc8       0x10 d:/softwares/mounriver/mounriver_studio/toolchain/risc-v embedded gcc/bin/../lib/gcc/riscv-none-embed/8.2.0/../../../../riscv-none-embed/lib/rv32imafc/ilp32f\libm.a(lib_a-s_rint.o)
 .rodata.scalbn.cst8
                0x0000000000020fd8       0x10 d:/softwares/mounriver/mounriver_studio/toolchain/risc-v embedded gcc/bin/../lib/gcc/riscv-none-embed/8.2.0/../../../../riscv-none-embed/lib/rv32imafc/ilp32f\libm.a(lib_a-s_scalbn.o)
                                         0x20 (size before relaxing)
 .rodata.imu660ra_config_file
                0x0000000000020fe8     0x2000 F:\十八届智能车\比赛代码\libraries\zf_device\libzf_device_config.a(zf_device_config.o)
                0x0000000000020fe8                imu660ra_config_file
 .rodata.__divdf3
                0x0000000000022fe8       0x40 d:/softwares/mounriver/mounriver_studio/toolchain/risc-v embedded gcc/bin/../lib/gcc/riscv-none-embed/8.2.0/rv32imafc/ilp32f\libgcc.a(divdf3.o)
 .rodata.__muldf3
                0x0000000000023028       0x40 d:/softwares/mounriver/mounriver_studio/toolchain/risc-v embedded gcc/bin/../lib/gcc/riscv-none-embed/8.2.0/rv32imafc/ilp32f\libgcc.a(muldf3.o)
 .rodata.__clz_tab
                0x0000000000023068      0x100 d:/softwares/mounriver/mounriver_studio/toolchain/risc-v embedded gcc/bin/../lib/gcc/riscv-none-embed/8.2.0/rv32imafc/ilp32f\libgcc.a(_clz.o)
                0x0000000000023068                __clz_tab
 .rodata._printf_float.cst8
                0x0000000000023168        0x8 d:/softwares/mounriver/mounriver_studio/toolchain/risc-v embedded gcc/bin/../lib/gcc/riscv-none-embed/8.2.0/../../../../riscv-none-embed/lib/rv32imafc/ilp32f\libg_nano.a(lib_a-nano-vfprintf_float.o)
 .rodata._printf_float.str1.4
                0x0000000000023170       0x12 d:/softwares/mounriver/mounriver_studio/toolchain/risc-v embedded gcc/bin/../lib/gcc/riscv-none-embed/8.2.0/../../../../riscv-none-embed/lib/rv32imafc/ilp32f\libg_nano.a(lib_a-nano-vfprintf_float.o)
 *fill*         0x0000000000023182        0x2 
 .rodata._printf_i.str1.4
                0x0000000000023184       0x25 d:/softwares/mounriver/mounriver_studio/toolchain/risc-v embedded gcc/bin/../lib/gcc/riscv-none-embed/8.2.0/../../../../riscv-none-embed/lib/rv32imafc/ilp32f\libg_nano.a(lib_a-nano-vfprintf_i.o)
 *fill*         0x00000000000231a9        0x7 
 .rodata._dtoa_r.cst8
                0x00000000000231b0       0x30 d:/softwares/mounriver/mounriver_studio/toolchain/risc-v embedded gcc/bin/../lib/gcc/riscv-none-embed/8.2.0/../../../../riscv-none-embed/lib/rv32imafc/ilp32f\libg_nano.a(lib_a-dtoa.o)
                                         0x48 (size before relaxing)
 .rodata._dtoa_r.str1.4
                0x00000000000231e0       0x10 d:/softwares/mounriver/mounriver_studio/toolchain/risc-v embedded gcc/bin/../lib/gcc/riscv-none-embed/8.2.0/../../../../riscv-none-embed/lib/rv32imafc/ilp32f\libg_nano.a(lib_a-dtoa.o)
                                         0x12 (size before relaxing)
 .rodata.__sf_fake_stderr
                0x00000000000231f0       0x20 d:/softwares/mounriver/mounriver_studio/toolchain/risc-v embedded gcc/bin/../lib/gcc/riscv-none-embed/8.2.0/../../../../riscv-none-embed/lib/rv32imafc/ilp32f\libg_nano.a(lib_a-findfp.o)
                0x00000000000231f0                __sf_fake_stderr
 .rodata.__sf_fake_stdin
                0x0000000000023210       0x20 d:/softwares/mounriver/mounriver_studio/toolchain/risc-v embedded gcc/bin/../lib/gcc/riscv-none-embed/8.2.0/../../../../riscv-none-embed/lib/rv32imafc/ilp32f\libg_nano.a(lib_a-findfp.o)
                0x0000000000023210                __sf_fake_stdin
 .rodata.__sf_fake_stdout
                0x0000000000023230       0x20 d:/softwares/mounriver/mounriver_studio/toolchain/risc-v embedded gcc/bin/../lib/gcc/riscv-none-embed/8.2.0/../../../../riscv-none-embed/lib/rv32imafc/ilp32f\libg_nano.a(lib_a-findfp.o)
                0x0000000000023230                __sf_fake_stdout
 .rodata.__mprec_bigtens
                0x0000000000023250       0x28 d:/softwares/mounriver/mounriver_studio/toolchain/risc-v embedded gcc/bin/../lib/gcc/riscv-none-embed/8.2.0/../../../../riscv-none-embed/lib/rv32imafc/ilp32f\libg_nano.a(lib_a-mprec.o)
                0x0000000000023250                __mprec_bigtens
 .rodata.__mprec_tens
                0x0000000000023278       0xc8 d:/softwares/mounriver/mounriver_studio/toolchain/risc-v embedded gcc/bin/../lib/gcc/riscv-none-embed/8.2.0/../../../../riscv-none-embed/lib/rv32imafc/ilp32f\libg_nano.a(lib_a-mprec.o)
                0x0000000000023278                __mprec_tens
 .rodata.p05.3321
                0x0000000000023340        0xc d:/softwares/mounriver/mounriver_studio/toolchain/risc-v embedded gcc/bin/../lib/gcc/riscv-none-embed/8.2.0/../../../../riscv-none-embed/lib/rv32imafc/ilp32f\libg_nano.a(lib_a-mprec.o)
 .rodata._svfprintf_r.str1.4
                0x000000000002334c       0x13 d:/softwares/mounriver/mounriver_studio/toolchain/risc-v embedded gcc/bin/../lib/gcc/riscv-none-embed/8.2.0/../../../../riscv-none-embed/lib/rv32imafc/ilp32f\libg_nano.a(lib_a-nano-svfprintf.o)
 .rodata._vfprintf_r.str1.4
                0x000000000002335f       0x13 d:/softwares/mounriver/mounriver_studio/toolchain/risc-v embedded gcc/bin/../lib/gcc/riscv-none-embed/8.2.0/../../../../riscv-none-embed/lib/rv32imafc/ilp32f\libg_nano.a(lib_a-nano-vfprintf.o)
 *fill*         0x000000000002335f        0x1 
 .rodata._setlocale_r.str1.4
                0x0000000000023360        0xa d:/softwares/mounriver/mounriver_studio/toolchain/risc-v embedded gcc/bin/../lib/gcc/riscv-none-embed/8.2.0/../../../../riscv-none-embed/lib/rv32imafc/ilp32f\libg_nano.a(lib_a-locale.o)
                                          0xd (size before relaxing)
 *fill*         0x000000000002336a        0x2 
 .rodata.str1.4
                0x000000000002336c        0x4 d:/softwares/mounriver/mounriver_studio/toolchain/risc-v embedded gcc/bin/../lib/gcc/riscv-none-embed/8.2.0/../../../../riscv-none-embed/lib/rv32imafc/ilp32f\libg_nano.a(lib_a-locale.o)
                                          0x2 (size before relaxing)
 .rodata._ctype_
                0x0000000000023370      0x101 d:/softwares/mounriver/mounriver_studio/toolchain/risc-v embedded gcc/bin/../lib/gcc/riscv-none-embed/8.2.0/../../../../riscv-none-embed/lib/rv32imafc/ilp32f\libg_nano.a(lib_a-ctype_.o)
                0x0000000000023370                _ctype_
 *(.glue_7)
 *(.glue_7t)
 *(.gnu.linkonce.t.*)
                0x0000000000023474                . = ALIGN (0x4)
 *fill*         0x0000000000023471        0x3 

.rela.dyn       0x0000000000023474        0x0
 .rela.init     0x0000000000023474        0x0 ./zf_driver/zf_driver_adc.o
 .rela.vector   0x0000000000023474        0x0 ./zf_driver/zf_driver_adc.o
 .rela.text.handle_reset
                0x0000000000023474        0x0 ./zf_driver/zf_driver_adc.o
 .rela.text._svfprintf_r
                0x0000000000023474        0x0 ./zf_driver/zf_driver_adc.o
 .rela.text._vfprintf_r
                0x0000000000023474        0x0 ./zf_driver/zf_driver_adc.o
 .rela.text._sbrk_r
                0x0000000000023474        0x0 ./zf_driver/zf_driver_adc.o
 .rela.text._write_r
                0x0000000000023474        0x0 ./zf_driver/zf_driver_adc.o
 .rela.text._close_r
                0x0000000000023474        0x0 ./zf_driver/zf_driver_adc.o
 .rela.text._lseek_r
                0x0000000000023474        0x0 ./zf_driver/zf_driver_adc.o
 .rela.text._read_r
                0x0000000000023474        0x0 ./zf_driver/zf_driver_adc.o
 .rela.text._fstat_r
                0x0000000000023474        0x0 ./zf_driver/zf_driver_adc.o
 .rela.text._isatty_r
                0x0000000000023474        0x0 ./zf_driver/zf_driver_adc.o
 .rela.text._close
                0x0000000000023474        0x0 ./zf_driver/zf_driver_adc.o
 .rela.text._fstat
                0x0000000000023474        0x0 ./zf_driver/zf_driver_adc.o
 .rela.text._isatty
                0x0000000000023474        0x0 ./zf_driver/zf_driver_adc.o
 .rela.text._lseek
                0x0000000000023474        0x0 ./zf_driver/zf_driver_adc.o
 .rela.text._read
                0x0000000000023474        0x0 ./zf_driver/zf_driver_adc.o
 .rela.text._sbrk
                0x0000000000023474        0x0 ./zf_driver/zf_driver_adc.o

.fini           0x0000000000023474        0x0
 *(SORT_NONE(.fini))
                0x0000000000023474                . = ALIGN (0x4)
                [!provide]                        PROVIDE (_etext = .)
                [!provide]                        PROVIDE (_eitcm = .)

.preinit_array  0x0000000000023474        0x0
                [!provide]                        PROVIDE (__preinit_array_start = .)
 *(.preinit_array)
                [!provide]                        PROVIDE (__preinit_array_end = .)

.init_array     0x0000000000023474        0x0
                [!provide]                        PROVIDE (__init_array_start = .)
 *(SORT_BY_INIT_PRIORITY(.init_array.*) SORT_BY_INIT_PRIORITY(.ctors.*))
 *(.init_array EXCLUDE_FILE(*crtend?.o *crtend.o *crtbegin?.o *crtbegin.o) .ctors)
                [!provide]                        PROVIDE (__init_array_end = .)

.fini_array     0x0000000000023474        0x0
                [!provide]                        PROVIDE (__fini_array_start = .)
 *(SORT_BY_INIT_PRIORITY(.fini_array.*) SORT_BY_INIT_PRIORITY(.dtors.*))
 *(.fini_array EXCLUDE_FILE(*crtend?.o *crtend.o *crtbegin?.o *crtbegin.o) .dtors)
                [!provide]                        PROVIDE (__fini_array_end = .)

.ctors
 *crtbegin.o(.ctors)
 *crtbegin?.o(.ctors)
 *(EXCLUDE_FILE(*crtend?.o *crtend.o) .ctors)
 *(SORT_BY_NAME(.ctors.*))
 *(.ctors)

.dtors
 *crtbegin.o(.dtors)
 *crtbegin?.o(.dtors)
 *(EXCLUDE_FILE(*crtend?.o *crtend.o) .dtors)
 *(SORT_BY_NAME(.dtors.*))
 *(.dtors)

.dalign         0x0000000020000000        0x0 load address 0x0000000000023474
                0x0000000020000000                . = ALIGN (0x4)
                0x0000000020000000                PROVIDE (_data_vma = .)

.dlalign        0x0000000000023474        0x0
                0x0000000000023474                . = ALIGN (0x4)
                0x0000000000023474                PROVIDE (_data_lma = .)

.data           0x0000000020000000      0x460 load address 0x0000000000023474
 *(.gnu.linkonce.r.*)
 *(.data .data.*)
 .data.encoder_dir_pin
                0x0000000020000000        0xa ./zf_driver/zf_driver_encoder.o
 *fill*         0x000000002000000a        0x2 
 .data.gpio_group
                0x000000002000000c       0x14 ./zf_driver/zf_driver_gpio.o
                0x000000002000000c                gpio_group
 .data.mt9v03x_set_confing_buffer
                0x0000000020000020       0x28 ./zf_device/zf_device_mt9v03x_dvp.o
 .data.mt9v03x_get_confing_buffer
                0x0000000020000048       0x24 ./zf_device/zf_device_mt9v03x_dvp.o
 .data.APBAHBPrescTable
                0x000000002000006c       0x10 ./sdk/Peripheral/ch32v30x_rcc.o
 .data.TAB_USB_FS_OSC_DESC
                0x000000002000007c       0x43 ./sdk/Peripheral/ch32v30x_usbotg_device.o
                0x000000002000007c                TAB_USB_FS_OSC_DESC
 *fill*         0x00000000200000bf        0x1 
 .data.MHstructFastCar
                0x00000000200000c0      0x104 ./code/FUZZY_PID_UCAS.o
                0x00000000200000c0                MHstructFastCar
 .data.impure_data
                0x00000000200001c4       0x60 d:/softwares/mounriver/mounriver_studio/toolchain/risc-v embedded gcc/bin/../lib/gcc/riscv-none-embed/8.2.0/../../../../riscv-none-embed/lib/rv32imafc/ilp32f\libg_nano.a(lib_a-impure.o)
 .data.__global_locale
                0x0000000020000224      0x16c d:/softwares/mounriver/mounriver_studio/toolchain/risc-v embedded gcc/bin/../lib/gcc/riscv-none-embed/8.2.0/../../../../riscv-none-embed/lib/rv32imafc/ilp32f\libg_nano.a(lib_a-locale.o)
                0x0000000020000224                __global_locale
 *(.gnu.linkonce.d.*)
                0x0000000020000390                . = ALIGN (0x8)
                0x0000000020000b90                PROVIDE (__global_pointer$ = (. + 0x800))
 *(.sdata .sdata.*)
 .sdata.adc_index
                0x0000000020000390        0x8 ./zf_driver/zf_driver_adc.o
 .sdata.gFlashStatus.4500
                0x0000000020000398        0x4 ./zf_driver/zf_driver_flash.o
 .sdata.gFlashStatus.4542
                0x000000002000039c        0x4 ./zf_driver/zf_driver_flash.o
 .sdata.dl1a_distance_mm
                0x00000000200003a0        0x2 ./zf_device/zf_device_dl1a.o
                0x00000000200003a0                dl1a_distance_mm
 .sdata.dm1xa_distance_mm
                0x00000000200003a2        0x2 ./zf_device/zf_device_dm1xa.o
 .sdata.imu660ra_transition_factor
                0x00000000200003a4        0x8 ./zf_device/zf_device_imu660ra.o
                0x00000000200003a4                imu660ra_transition_factor
 .sdata.ips200_pencolor
                0x00000000200003ac        0x2 ./zf_device/zf_device_ips200.o
 .sdata.ips200_bgcolor
                0x00000000200003ae        0x2 ./zf_device/zf_device_ips200.o
 .sdata.ips200_display_font
                0x00000000200003b0        0x4 ./zf_device/zf_device_ips200.o
 .sdata.ips200_x_max
                0x00000000200003b4        0x2 ./zf_device/zf_device_ips200.o
 .sdata.ips200_y_max
                0x00000000200003b6        0x2 ./zf_device/zf_device_ips200.o
 .sdata.ips_rst_pin
                0x00000000200003b8        0x4 ./zf_device/zf_device_ips200.o
 .sdata.ips_bl_pin
                0x00000000200003bc        0x4 ./zf_device/zf_device_ips200.o
 .sdata.ips_cs_pin
                0x00000000200003c0        0x4 ./zf_device/zf_device_ips200.o
 .sdata.camera_uart_handler
                0x00000000200003c4        0x4 ./zf_device/zf_device_type.o
                0x00000000200003c4                camera_uart_handler
 .sdata.camera_dvp_handler
                0x00000000200003c8        0x4 ./zf_device/zf_device_type.o
                0x00000000200003c8                camera_dvp_handler
 .sdata.system_clock
                0x00000000200003cc        0x4 ./zf_common/zf_common_clock.o
                0x00000000200003cc                system_clock
 .sdata.zf_debug_assert_enable
                0x00000000200003d0        0x1 ./zf_common/zf_common_debug.o
 *fill*         0x00000000200003d1        0x3 
 .sdata.ADCPrescTable
                0x00000000200003d4        0x4 ./sdk/Peripheral/ch32v30x_rcc.o
 .sdata.USBHD_Dev_Speed
                0x00000000200003d8        0x1 ./sdk/Peripheral/ch32v30x_usbotg_device.o
                0x00000000200003d8                USBHD_Dev_Speed
 *fill*         0x00000000200003d9        0x3 
 .sdata.LineCoding
                0x00000000200003dc        0x7 ./sdk/Peripheral/ch32v30x_usbotg_device.o
                0x00000000200003dc                LineCoding
 .sdata.Island_Switch
                0x00000000200003e3        0x1 ./code/Camera.o
                0x00000000200003e3                Island_Switch
 .sdata.Go      0x00000000200003e4        0x1 ./code/Control.o
                0x00000000200003e4                Go
 .sdata.Go_Direction
                0x00000000200003e5        0x1 ./code/Control.o
                0x00000000200003e5                Go_Direction
 *fill*         0x00000000200003e6        0x2 
 .sdata.ADC_Speed
                0x00000000200003e8        0x4 ./code/Control.o
                0x00000000200003e8                ADC_Speed
 .sdata.Base_Speed
                0x00000000200003ec        0x4 ./code/Control.o
                0x00000000200003ec                Base_Speed
 .sdata.Speed_Left_Set
                0x00000000200003f0        0x4 ./code/Control.o
                0x00000000200003f0                Speed_Left_Set
 .sdata.Speed_Right_Set
                0x00000000200003f4        0x4 ./code/Control.o
                0x00000000200003f4                Speed_Right_Set
 .sdata.Ramp_Speed
                0x00000000200003f8        0x4 ./code/Control.o
                0x00000000200003f8                Ramp_Speed
 .sdata.Island_Speed
                0x00000000200003fc        0x4 ./code/Control.o
                0x00000000200003fc                Island_Speed
 .sdata.Straight_Speed
                0x0000000020000400        0x4 ./code/Control.o
                0x0000000020000400                Straight_Speed
 .sdata.Barricade_Speed
                0x0000000020000404        0x4 ./code/Control.o
                0x0000000020000404                Barricade_Speed
 .sdata.Island_Diff
                0x0000000020000408        0x4 ./code/Control.o
                0x0000000020000408                Island_Diff
 .sdata.Err_Diff
                0x000000002000040c        0x4 ./code/Control.o
                0x000000002000040c                Err_Diff
 .sdata.ADC_Diff
                0x0000000020000410        0x4 ./code/Control.o
                0x0000000020000410                ADC_Diff
 .sdata.Shift_Ratio
                0x0000000020000414        0x4 ./code/Control.o
                0x0000000020000414                Shift_Ratio
 .sdata.FJ_Angle_Max
                0x0000000020000418        0x4 ./code/Gyroscope.o
                0x0000000020000418                FJ_Angle_Max
 .sdata.FJ_Angle_Min
                0x000000002000041c        0x4 ./code/Gyroscope.o
                0x000000002000041c                FJ_Angle_Min
 .sdata.key_up.8195
                0x0000000020000420        0x1 ./code/KEY.o
 *fill*         0x0000000020000421        0x3 
 .sdata.Island_P
                0x0000000020000424        0x4 ./code/PID.o
                0x0000000020000424                Island_P
 .sdata.Island_D
                0x0000000020000428        0x4 ./code/PID.o
                0x0000000020000428                Island_D
 .sdata.Global_D
                0x000000002000042c        0x4 ./code/PID.o
                0x000000002000042c                Global_D
 .sdata.P_L     0x0000000020000430        0x4 ./code/PID.o
                0x0000000020000430                P_L
 .sdata.I_L     0x0000000020000434        0x4 ./code/PID.o
                0x0000000020000434                I_L
 .sdata.P_R     0x0000000020000438        0x4 ./code/PID.o
                0x0000000020000438                P_R
 .sdata.I_R     0x000000002000043c        0x4 ./code/PID.o
                0x000000002000043c                I_R
 .sdata.menu_deep
                0x0000000020000440        0x1 ./code/UI.o
                0x0000000020000440                menu_deep
 .sdata.sec_menu_item
                0x0000000020000441        0x1 ./code/UI.o
                0x0000000020000441                sec_menu_item
 .sdata.main_menu_item
                0x0000000020000442        0x1 ./code/UI.o
                0x0000000020000442                main_menu_item
 .sdata.menu_show_flag
                0x0000000020000443        0x1 ./code/UI.o
                0x0000000020000443                menu_show_flag
 .sdata.__fdlib_version
                0x0000000020000444        0x4 d:/softwares/mounriver/mounriver_studio/toolchain/risc-v embedded gcc/bin/../lib/gcc/riscv-none-embed/8.2.0/../../../../riscv-none-embed/lib/rv32imafc/ilp32f\libm.a(lib_a-s_lib_ver.o)
                0x0000000020000444                __fdlib_version
 .sdata._impure_ptr
                0x0000000020000448        0x4 d:/softwares/mounriver/mounriver_studio/toolchain/risc-v embedded gcc/bin/../lib/gcc/riscv-none-embed/8.2.0/../../../../riscv-none-embed/lib/rv32imafc/ilp32f\libg_nano.a(lib_a-impure.o)
                0x0000000020000448                _impure_ptr
 *(.sdata2.*)
 .sdata2.uart_irq
                0x000000002000044c        0x8 ./zf_driver/zf_driver_uart.o
                0x000000002000044c                uart_irq
 .sdata2.MyLangDescrHD
                0x0000000020000454        0x4 ./sdk/Peripheral/ch32v30x_usbotg_device.o
                0x0000000020000454                MyLangDescrHD
 .sdata2._global_impure_ptr
                0x0000000020000458        0x4 d:/softwares/mounriver/mounriver_studio/toolchain/risc-v embedded gcc/bin/../lib/gcc/riscv-none-embed/8.2.0/../../../../riscv-none-embed/lib/rv32imafc/ilp32f\libg_nano.a(lib_a-impure.o)
                0x0000000020000458                _global_impure_ptr
 *(.gnu.linkonce.s.*)
                0x0000000020000460                . = ALIGN (0x8)
 *fill*         0x000000002000045c        0x4 
 *(.srodata.cst16)
 *(.srodata.cst8)
 *(.srodata.cst4)
 *(.srodata.cst2)
 *(.srodata .srodata.*)
                0x0000000020000460                . = ALIGN (0x4)
                0x0000000020000460                PROVIDE (_edata = .)

.bss            0x0000000020000460     0x73ec load address 0x00000000000238d4
                0x0000000020000460                . = ALIGN (0x4)
                0x0000000020000460                PROVIDE (_sbss = .)
 *(.sbss*)
 .sbss.adc_resolution
                0x0000000020000460        0x2 ./zf_driver/zf_driver_adc.o
 *fill*         0x0000000020000462        0x2 
 .sbss.camera_receiver_buffer
                0x0000000020000464        0x8 ./zf_device/zf_device_camera.o
                0x0000000020000464                camera_receiver_buffer
 .sbss.dl1a_finsh_flag
                0x000000002000046c        0x1 ./zf_device/zf_device_dl1a.o
                0x000000002000046c                dl1a_finsh_flag
 *fill*         0x000000002000046d        0x3 
 .sbss.dm1xa_plus_count
                0x0000000020000470        0x4 ./zf_device/zf_device_dm1xa.o
 .sbss.dm1xa_type
                0x0000000020000474        0x4 ./zf_device/zf_device_dm1xa.o
 .sbss.dm1xa_ranging_state
                0x0000000020000478        0x4 ./zf_device/zf_device_dm1xa.o
 .sbss.gps_tau1201_flag
                0x000000002000047c        0x1 ./zf_device/zf_device_gps_tau1201.o
                0x000000002000047c                gps_tau1201_flag
 .sbss.gps_tau1201_state
                0x000000002000047d        0x1 ./zf_device/zf_device_gps_tau1201.o
 *fill*         0x000000002000047e        0x2 
 .sbss.gps_gga_state
                0x0000000020000480        0x4 ./zf_device/zf_device_gps_tau1201.o
                0x0000000020000480                gps_gga_state
 .sbss.gps_rmc_state
                0x0000000020000484        0x4 ./zf_device/zf_device_gps_tau1201.o
                0x0000000020000484                gps_rmc_state
 .sbss.imu660ra_gyro_x
                0x0000000020000488        0x2 ./zf_device/zf_device_imu660ra.o
                0x0000000020000488                imu660ra_gyro_x
 .sbss.imu660ra_gyro_y
                0x000000002000048a        0x2 ./zf_device/zf_device_imu660ra.o
                0x000000002000048a                imu660ra_gyro_y
 .sbss.imu660ra_gyro_z
                0x000000002000048c        0x2 ./zf_device/zf_device_imu660ra.o
                0x000000002000048c                imu660ra_gyro_z
 *fill*         0x000000002000048e        0x2 
 .sbss.ips200_display_type
                0x0000000020000490        0x4 ./zf_device/zf_device_ips200.o
 .sbss.ips200_display_dir
                0x0000000020000494        0x4 ./zf_device/zf_device_ips200.o
 .sbss.mt9v03x_finish_flag
                0x0000000020000498        0x1 ./zf_device/zf_device_mt9v03x_dvp.o
                0x0000000020000498                mt9v03x_finish_flag
 *fill*         0x0000000020000499        0x3 
 .sbss.mt9v03x_type
                0x000000002000049c        0x4 ./zf_device/zf_device_mt9v03x_dvp.o
 .sbss.mt9v03x_version
                0x00000000200004a0        0x2 ./zf_device/zf_device_mt9v03x_dvp.o
 *fill*         0x00000000200004a2        0x2 
 .sbss.camera_type
                0x00000000200004a4        0x4 ./zf_device/zf_device_type.o
                0x00000000200004a4                camera_type
 .sbss.zf_debug_init_flag
                0x00000000200004a8        0x1 ./zf_common/zf_common_debug.o
 .sbss.assert_nest_index.5017
                0x00000000200004a9        0x1 ./zf_common/zf_common_debug.o
 *fill*         0x00000000200004aa        0x2 
 .sbss.interrupt_nest_count
                0x00000000200004ac        0x4 ./zf_common/zf_common_interrupt.o
 .sbss.Speed_Left_Real
                0x00000000200004b0        0x4 ./user_c/isr.o
                0x00000000200004b0                Speed_Left_Real
 .sbss.Speed_Right_Real
                0x00000000200004b4        0x4 ./user_c/isr.o
                0x00000000200004b4                Speed_Right_Real
 .sbss.Zebra_State
                0x00000000200004b8        0x4 ./user_c/isr.o
                0x00000000200004b8                Zebra_State
 .sbss.count_50ms.8325
                0x00000000200004bc        0x4 ./user_c/isr.o
 .sbss.encoder_accu.8326
                0x00000000200004c0        0x4 ./user_c/isr.o
 .sbss.count_10ms.8330
                0x00000000200004c4        0x4 ./user_c/isr.o
 .sbss.Threshold
                0x00000000200004c8        0x4 ./user_c/main.o
                0x00000000200004c8                Threshold
 .sbss.EP0_DatabufHD
                0x00000000200004cc        0x8 ./sdk/Peripheral/ch32v30x_usbotg_device.o
                0x00000000200004cc                EP0_DatabufHD
 .sbss.pEP0_RAM_Addr
                0x00000000200004d4        0x4 ./sdk/Peripheral/ch32v30x_usbotg_device.o
                0x00000000200004d4                pEP0_RAM_Addr
 .sbss.pEP1_RAM_Addr
                0x00000000200004d8        0x4 ./sdk/Peripheral/ch32v30x_usbotg_device.o
                0x00000000200004d8                pEP1_RAM_Addr
 .sbss.pEP2_RAM_Addr
                0x00000000200004dc        0x4 ./sdk/Peripheral/ch32v30x_usbotg_device.o
                0x00000000200004dc                pEP2_RAM_Addr
 .sbss.pDescr   0x00000000200004e0        0x4 ./sdk/Peripheral/ch32v30x_usbotg_device.o
                0x00000000200004e0                pDescr
 .sbss.USBHD_Dev_SetupReqLen
                0x00000000200004e4        0x2 ./sdk/Peripheral/ch32v30x_usbotg_device.o
                0x00000000200004e4                USBHD_Dev_SetupReqLen
 .sbss.USBHD_Dev_SleepStatus
                0x00000000200004e6        0x1 ./sdk/Peripheral/ch32v30x_usbotg_device.o
                0x00000000200004e6                USBHD_Dev_SleepStatus
 .sbss.DevConfig
                0x00000000200004e7        0x1 ./sdk/Peripheral/ch32v30x_usbotg_device.o
                0x00000000200004e7                DevConfig
 .sbss.SetupReqCode
                0x00000000200004e8        0x1 ./sdk/Peripheral/ch32v30x_usbotg_device.o
                0x00000000200004e8                SetupReqCode
 *fill*         0x00000000200004e9        0x1 
 .sbss.SetupReqLen
                0x00000000200004ea        0x2 ./sdk/Peripheral/ch32v30x_usbotg_device.o
                0x00000000200004ea                SetupReqLen
 .sbss.ADC_Sum_Value
                0x00000000200004ec        0x8 ./code/ADC.o
                0x00000000200004ec                ADC_Sum_Value
 .sbss.ADC_Max_Value
                0x00000000200004f4        0x8 ./code/ADC.o
                0x00000000200004f4                ADC_Max_Value
 .sbss.ADC_Min_Value
                0x00000000200004fc        0x8 ./code/ADC.o
                0x00000000200004fc                ADC_Min_Value
 .sbss.ADC_Sum  0x0000000020000504        0x4 ./code/ADC.o
                0x0000000020000504                ADC_Sum
 .sbss.ADC_Dif  0x0000000020000508        0x4 ./code/ADC.o
                0x0000000020000508                ADC_Dif
 .sbss.ADC_Err  0x000000002000050c        0x4 ./code/ADC.o
                0x000000002000050c                ADC_Err
 .sbss.count.8212
                0x0000000020000510        0x4 ./code/ADC.o
 .sbss.Search_Stop_Line
                0x0000000020000514        0x4 ./code/Camera.o
                0x0000000020000514                Search_Stop_Line
 .sbss.Boundry_Start_Left
                0x0000000020000518        0x4 ./code/Camera.o
                0x0000000020000518                Boundry_Start_Left
 .sbss.Boundry_Start_Right
                0x000000002000051c        0x4 ./code/Camera.o
                0x000000002000051c                Boundry_Start_Right
 .sbss.Left_Lost_Time
                0x0000000020000520        0x4 ./code/Camera.o
                0x0000000020000520                Left_Lost_Time
 .sbss.Right_Lost_Time
                0x0000000020000524        0x4 ./code/Camera.o
                0x0000000020000524                Right_Lost_Time
 .sbss.Both_Lost_Time
                0x0000000020000528        0x4 ./code/Camera.o
                0x0000000020000528                Both_Lost_Time
 .sbss.Longest_White_Column_Left
                0x000000002000052c        0x8 ./code/Camera.o
                0x000000002000052c                Longest_White_Column_Left
 .sbss.Longest_White_Column_Right
                0x0000000020000534        0x8 ./code/Camera.o
                0x0000000020000534                Longest_White_Column_Right
 .sbss.Ramp_Flag
                0x000000002000053c        0x4 ./code/Camera.o
                0x000000002000053c                Ramp_Flag
 .sbss.Cross_Flag
                0x0000000020000540        0x4 ./code/Camera.o
                0x0000000020000540                Cross_Flag
 .sbss.Left_Down_Find
                0x0000000020000544        0x4 ./code/Camera.o
                0x0000000020000544                Left_Down_Find
 .sbss.Left_Up_Find
                0x0000000020000548        0x4 ./code/Camera.o
                0x0000000020000548                Left_Up_Find
 .sbss.Right_Down_Find
                0x000000002000054c        0x4 ./code/Camera.o
                0x000000002000054c                Right_Down_Find
 .sbss.Right_Up_Find
                0x0000000020000550        0x4 ./code/Camera.o
                0x0000000020000550                Right_Up_Find
 .sbss.Zebra_Stripes_Flag
                0x0000000020000554        0x4 ./code/Camera.o
                0x0000000020000554                Zebra_Stripes_Flag
 .sbss.Obstacle_Dir
                0x0000000020000558        0x1 ./code/Camera.o
                0x0000000020000558                Obstacle_Dir
 .sbss.Straight_Flag
                0x0000000020000559        0x1 ./code/Camera.o
                0x0000000020000559                Straight_Flag
 .sbss.Ramp_Switch
                0x000000002000055a        0x1 ./code/Camera.o
                0x000000002000055a                Ramp_Switch
 .sbss.Img_Disappear_Flag
                0x000000002000055b        0x1 ./code/Camera.o
                0x000000002000055b                Img_Disappear_Flag
 .sbss.Outside_Edge_flag
                0x000000002000055c        0x1 ./code/Camera.o
                0x000000002000055c                Outside_Edge_flag
 .sbss.Stop_Flag
                0x000000002000055d        0x1 ./code/Camera.o
                0x000000002000055d                Stop_Flag
 .sbss.Barricade_Flag
                0x000000002000055e        0x1 ./code/Camera.o
                0x000000002000055e                Barricade_Flag
 .sbss.break_road_state.8827
                0x000000002000055f        0x1 ./code/Camera.o
 .sbss.Electromagnet_Flag
                0x0000000020000560        0x1 ./code/Control.o
                0x0000000020000560                Electromagnet_Flag
 *fill*         0x0000000020000561        0x3 
 .sbss.Steer_Angle
                0x0000000020000564        0x4 ./code/Control.o
                0x0000000020000564                Steer_Angle
 .sbss.Err      0x0000000020000568        0x4 ./code/Control.o
                0x0000000020000568                Err
 .sbss.Island_Ratio
                0x000000002000056c        0x4 ./code/Control.o
                0x000000002000056c                Island_Ratio
 .sbss.U        0x0000000020000570        0x4 ./code/Fuzzy.o
                0x0000000020000570                U
 .sbss.PF       0x0000000020000574        0x8 ./code/Fuzzy.o
                0x0000000020000574                PF
 .sbss.DF       0x000000002000057c        0x8 ./code/Fuzzy.o
                0x000000002000057c                DF
 .sbss.Pn       0x0000000020000584        0x4 ./code/Fuzzy.o
                0x0000000020000584                Pn
 .sbss.Dn       0x0000000020000588        0x4 ./code/Fuzzy.o
                0x0000000020000588                Dn
 .sbss.t1       0x000000002000058c        0x4 ./code/Fuzzy.o
                0x000000002000058c                t1
 .sbss.t2       0x0000000020000590        0x4 ./code/Fuzzy.o
                0x0000000020000590                t2
 .sbss.t3       0x0000000020000594        0x4 ./code/Fuzzy.o
                0x0000000020000594                t3
 .sbss.t4       0x0000000020000598        0x4 ./code/Fuzzy.o
                0x0000000020000598                t4
 .sbss.temp1    0x000000002000059c        0x4 ./code/Fuzzy.o
                0x000000002000059c                temp1
 .sbss.temp2    0x00000000200005a0        0x4 ./code/Fuzzy.o
                0x00000000200005a0                temp2
 .sbss.ZeroDrift_gyro_y
                0x00000000200005a4        0x4 ./code/Gyroscope.o
                0x00000000200005a4                ZeroDrift_gyro_y
 .sbss.ZeroDrift_gyro_z
                0x00000000200005a8        0x4 ./code/Gyroscope.o
                0x00000000200005a8                ZeroDrift_gyro_z
 .sbss.FJ_gyro_z
                0x00000000200005ac        0x2 ./code/Gyroscope.o
                0x00000000200005ac                FJ_gyro_z
 .sbss.FJ_gyro_y
                0x00000000200005ae        0x2 ./code/Gyroscope.o
                0x00000000200005ae                FJ_gyro_y
 .sbss.FJ_Angle
                0x00000000200005b0        0x4 ./code/Gyroscope.o
                0x00000000200005b0                FJ_Angle
 .sbss.FJ_Pitch
                0x00000000200005b4        0x4 ./code/Gyroscope.o
                0x00000000200005b4                FJ_Pitch
 .sbss.FJ_PitchSpeed
                0x00000000200005b8        0x4 ./code/Gyroscope.o
                0x00000000200005b8                FJ_PitchSpeed
 .sbss.FJ_LastPitchSpeed
                0x00000000200005bc        0x4 ./code/Gyroscope.o
                0x00000000200005bc                FJ_LastPitchSpeed
 .sbss.FJ_LastAngleSpeed
                0x00000000200005c0        0x4 ./code/Gyroscope.o
                0x00000000200005c0                FJ_LastAngleSpeed
 .sbss.FJ_AngleSpeed
                0x00000000200005c4        0x4 ./code/Gyroscope.o
                0x00000000200005c4                FJ_AngleSpeed
 .sbss.AngleSpeed
                0x00000000200005c8        0x4 ./code/Gyroscope.o
                0x00000000200005c8                AngleSpeed
 .sbss.Island_State
                0x00000000200005cc        0x4 ./code/Island.o
                0x00000000200005cc                Island_State
 .sbss.Left_Island_Flag
                0x00000000200005d0        0x4 ./code/Island.o
                0x00000000200005d0                Left_Island_Flag
 .sbss.Right_Island_Flag
                0x00000000200005d4        0x4 ./code/Island.o
                0x00000000200005d4                Right_Island_Flag
 .sbss.Left_Up_Guai
                0x00000000200005d8        0x8 ./code/Island.o
                0x00000000200005d8                Left_Up_Guai
 .sbss.Right_Up_Guai
                0x00000000200005e0        0x8 ./code/Island.o
                0x00000000200005e0                Right_Up_Guai
 .sbss.left_down_guai.8214
                0x00000000200005e8        0x8 ./code/Island.o
 .sbss.right_down_guai.8215
                0x00000000200005f0        0x8 ./code/Island.o
 .sbss.k.8211   0x00000000200005f8        0x4 ./code/Island.o
 .sbss.island_state_3_up.8213
                0x00000000200005fc        0x8 ./code/Island.o
 .sbss.island_state_5_down.8212
                0x0000000020000604        0x8 ./code/Island.o
 .sbss.error_current.8205
                0x000000002000060c        0x4 ./code/PID.o
 .sbss.error_last.8206
                0x0000000020000610        0x4 ./code/PID.o
 .sbss.error_current.8215
                0x0000000020000614        0x4 ./code/PID.o
 .sbss.error_last.8216
                0x0000000020000618        0x4 ./code/PID.o
 .sbss.ek.8225  0x000000002000061c        0x4 ./code/PID.o
 .sbss.ek1.8226
                0x0000000020000620        0x4 ./code/PID.o
 .sbss.out_increment.8224
                0x0000000020000624        0x4 ./code/PID.o
 .sbss.out.8223
                0x0000000020000628        0x4 ./code/PID.o
 .sbss.ek.8235  0x000000002000062c        0x4 ./code/PID.o
 .sbss.ek1.8236
                0x0000000020000630        0x4 ./code/PID.o
 .sbss.out_increment.8234
                0x0000000020000634        0x4 ./code/PID.o
 .sbss.out.8233
                0x0000000020000638        0x4 ./code/PID.o
 .sbss.data_change_flag
                0x000000002000063c        0x1 ./code/UI.o
                0x000000002000063c                data_change_flag
 *fill*         0x000000002000063d        0x3 
 .sbss.mt9v03x_h_blank
                0x0000000020000640        0x4 F:\十八届智能车\比赛代码\libraries\zf_device\libzf_device_config.a(zf_device_config.o)
 .sbss.mt9v03x_v_blank
                0x0000000020000644        0x4 F:\十八届智能车\比赛代码\libraries\zf_device\libzf_device_config.a(zf_device_config.o)
 .sbss.__malloc_free_list
                0x0000000020000648        0x4 d:/softwares/mounriver/mounriver_studio/toolchain/risc-v embedded gcc/bin/../lib/gcc/riscv-none-embed/8.2.0/../../../../riscv-none-embed/lib/rv32imafc/ilp32f\libg_nano.a(lib_a-nano-mallocr.o)
                0x0000000020000648                __malloc_free_list
 .sbss.__malloc_sbrk_start
                0x000000002000064c        0x4 d:/softwares/mounriver/mounriver_studio/toolchain/risc-v embedded gcc/bin/../lib/gcc/riscv-none-embed/8.2.0/../../../../riscv-none-embed/lib/rv32imafc/ilp32f\libg_nano.a(lib_a-nano-mallocr.o)
                0x000000002000064c                __malloc_sbrk_start
 .sbss.heap_end.1520
                0x0000000020000650        0x4 d:/softwares/mounriver/mounriver_studio/toolchain/risc-v embedded gcc/bin/../lib/gcc/riscv-none-embed/8.2.0/../../../../riscv-none-embed/lib/rv32imafc/ilp32f\libnosys.a(sbrk.o)
 *(.gnu.linkonce.sb.*)
 *(.bss*)
 .bss.flash_union_buffer
                0x0000000020000654      0x400 ./zf_driver/zf_driver_flash.o
                0x0000000020000654                flash_union_buffer
 .bss.timer_function_state
                0x0000000020000a54       0x28 ./zf_driver/zf_driver_timer.o
 .bss.timer_mode_state
                0x0000000020000a7c       0x28 ./zf_driver/zf_driver_timer.o
 .bss.camera_receiver_fifo
                0x0000000020000aa4       0x1c ./zf_device/zf_device_camera.o
                0x0000000020000aa4                camera_receiver_fifo
 .bss.dl1a_iic_struct
                0x0000000020000ac0       0x10 ./zf_device/zf_device_dl1a.o
 .bss.gps_tau1201_receiver_fifo
                0x0000000020000ad0       0x1c ./zf_device/zf_device_gps_tau1201.o
 .bss.gps_gga_buffer
                0x0000000020000aec       0x80 ./zf_device/zf_device_gps_tau1201.o
 .bss.gps_rmc_buffer
                0x0000000020000b6c       0x80 ./zf_device/zf_device_gps_tau1201.o
 .bss.mt9v03x_image
                0x0000000020000bec     0x3138 ./zf_device/zf_device_mt9v03x_dvp.o
                0x0000000020000bec                mt9v03x_image
 .bss.debug_output_info
                0x0000000020003d24       0x14 ./zf_common/zf_common_debug.o
 .bss.ADC_Raw_Value
                0x0000000020003d38       0x28 ./code/ADC.o
                0x0000000020003d38                ADC_Raw_Value
 .bss.ADC_Fil_Value
                0x0000000020003d60       0x10 ./code/ADC.o
                0x0000000020003d60                ADC_Fil_Value
 .bss.ADC_Nor_Value
                0x0000000020003d70       0x10 ./code/ADC.o
                0x0000000020003d70                ADC_Nor_Value
 .bss.image_two_value
                0x0000000020003d80     0x3138 ./code/Camera.o
                0x0000000020003d80                image_two_value
 .bss.Left_Line
                0x0000000020006eb8      0x118 ./code/Camera.o
                0x0000000020006eb8                Left_Line
 .bss.Right_Line
                0x0000000020006fd0      0x118 ./code/Camera.o
                0x0000000020006fd0                Right_Line
 .bss.Road_Wide
                0x00000000200070e8      0x118 ./code/Camera.o
                0x00000000200070e8                Road_Wide
 .bss.White_Column
                0x0000000020007200      0x2d0 ./code/Camera.o
                0x0000000020007200                White_Column
 .bss.Left_Lost_Flag
                0x00000000200074d0      0x118 ./code/Camera.o
                0x00000000200074d0                Left_Lost_Flag
 .bss.Right_Lost_Flag
                0x00000000200075e8      0x118 ./code/Camera.o
                0x00000000200075e8                Right_Lost_Flag
 .bss.MHstruct  0x0000000020007700      0x104 ./code/FUZZY_PID_UCAS.o
                0x0000000020007700                MHstruct
 .bss.UF        0x0000000020007804       0x10 ./code/Fuzzy.o
                0x0000000020007804                UF
 .bss.Un        0x0000000020007814       0x10 ./code/Fuzzy.o
                0x0000000020007814                Un
 .bss.mt9v03x_iic_inf_struct
                0x0000000020007824       0x10 F:\十八届智能车\比赛代码\libraries\zf_device\libzf_device_config.a(zf_device_config.o)
 .bss.mt9v03x_init_config
                0x0000000020007834       0x14 F:\十八届智能车\比赛代码\libraries\zf_device\libzf_device_config.a(zf_device_config.o)
 *(.gnu.linkonce.b.*)
 *(COMMON*)
 COMMON         0x0000000020007848        0x4 d:/softwares/mounriver/mounriver_studio/toolchain/risc-v embedded gcc/bin/../lib/gcc/riscv-none-embed/8.2.0/../../../../riscv-none-embed/lib/rv32imafc/ilp32f\libg_nano.a(lib_a-reent.o)
                0x0000000020007848                errno
                0x000000002000784c                . = ALIGN (0x4)
                0x000000002000784c                PROVIDE (_ebss = .)
                [!provide]                        PROVIDE (_end = _ebss)
                0x000000002000784c                PROVIDE (end = .)

.stack          0x000000002000f800      0x800
                [!provide]                        PROVIDE (_heap_end = .)
                0x000000002000f800                . = ALIGN (0x4)
                [!provide]                        PROVIDE (_susrstack = .)
                0x0000000020010000                . = (. + __stack_size)
 *fill*         0x000000002000f800      0x800 
                0x0000000020010000                PROVIDE (_eusrstack = .)
OUTPUT(Seekfree_CH32V307VCT6_Opensource_Library.elf elf32-littleriscv)

.debug_info     0x0000000000000000    0x3a8f3
 .debug_info    0x0000000000000000      0xea8 ./zf_driver/zf_driver_adc.o
 .debug_info    0x0000000000000ea8      0xa28 ./zf_driver/zf_driver_delay.o
 .debug_info    0x00000000000018d0      0xf36 ./zf_driver/zf_driver_dvp.o
 .debug_info    0x0000000000002806     0x129c ./zf_driver/zf_driver_encoder.o
 .debug_info    0x0000000000003aa2     0x1061 ./zf_driver/zf_driver_exti.o
 .debug_info    0x0000000000004b03      0xdc9 ./zf_driver/zf_driver_flash.o
 .debug_info    0x00000000000058cc      0xefa ./zf_driver/zf_driver_gpio.o
 .debug_info    0x00000000000067c6     0x10a9 ./zf_driver/zf_driver_pit.o
 .debug_info    0x000000000000786f     0x1489 ./zf_driver/zf_driver_pwm.o
 .debug_info    0x0000000000008cf8     0x1602 ./zf_driver/zf_driver_soft_iic.o
 .debug_info    0x000000000000a2fa     0x156a ./zf_driver/zf_driver_spi.o
 .debug_info    0x000000000000b864      0xfb7 ./zf_driver/zf_driver_timer.o
 .debug_info    0x000000000000c81b     0x1460 ./zf_driver/zf_driver_uart.o
 .debug_info    0x000000000000dc7b      0xf30 ./zf_device/zf_device_camera.o
 .debug_info    0x000000000000ebab     0x131b ./zf_device/zf_device_dl1a.o
 .debug_info    0x000000000000fec6      0xe37 ./zf_device/zf_device_dm1xa.o
 .debug_info    0x0000000000010cfd     0x175b ./zf_device/zf_device_gps_tau1201.o
 .debug_info    0x0000000000012458     0x1083 ./zf_device/zf_device_imu660ra.o
 .debug_info    0x00000000000134db     0x1a9e ./zf_device/zf_device_ips200.o
 .debug_info    0x0000000000014f79     0x1471 ./zf_device/zf_device_mt9v03x_dvp.o
 .debug_info    0x00000000000163ea      0xab8 ./zf_device/zf_device_type.o
 .debug_info    0x0000000000016ea2      0xb2d ./zf_common/zf_common_clock.o
 .debug_info    0x00000000000179cf     0x1302 ./zf_common/zf_common_debug.o
 .debug_info    0x0000000000018cd1      0xddf ./zf_common/zf_common_fifo.o
 .debug_info    0x0000000000019ab0      0xa18 ./zf_common/zf_common_font.o
 .debug_info    0x000000000001a4c8     0x11b5 ./zf_common/zf_common_function.o
 .debug_info    0x000000000001b67d      0xf79 ./zf_common/zf_common_interrupt.o
 .debug_info    0x000000000001c5f6     0x1fbf ./user_c/isr.o
 .debug_info    0x000000000001e5b5     0x2285 ./user_c/main.o
 .debug_info    0x000000000002083a       0x22 ./sdk/Startup/startup_ch32v30x_D8C.o
 .debug_info    0x000000000002085c      0xd58 ./sdk/Peripheral/ch32v30x_adc.o
 .debug_info    0x00000000000215b4      0x353 ./sdk/Peripheral/ch32v30x_exti.o
 .debug_info    0x0000000000021907      0x973 ./sdk/Peripheral/ch32v30x_flash.o
 .debug_info    0x000000000002227a      0x712 ./sdk/Peripheral/ch32v30x_gpio.o
 .debug_info    0x000000000002298c      0xc64 ./sdk/Peripheral/ch32v30x_rcc.o
 .debug_info    0x00000000000235f0      0x96e ./sdk/Peripheral/ch32v30x_spi.o
 .debug_info    0x0000000000023f5e     0x1dd2 ./sdk/Peripheral/ch32v30x_tim.o
 .debug_info    0x0000000000025d30      0xa45 ./sdk/Peripheral/ch32v30x_usart.o
 .debug_info    0x0000000000026775     0x13c6 ./sdk/Peripheral/ch32v30x_usbotg_device.o
 .debug_info    0x0000000000027b3b     0x19df ./code/ADC.o
 .debug_info    0x000000000002951a     0x2584 ./code/Camera.o
 .debug_info    0x000000000002ba9e     0x1e83 ./code/Control.o
 .debug_info    0x000000000002d921     0x1919 ./code/FUZZY_PID_UCAS.o
 .debug_info    0x000000000002f23a     0x1987 ./code/Fuzzy.o
 .debug_info    0x0000000000030bc1     0x1921 ./code/Gyroscope.o
 .debug_info    0x00000000000324e2     0x1fb4 ./code/Island.o
 .debug_info    0x0000000000034496     0x1806 ./code/KEY.o
 .debug_info    0x0000000000035c9c     0x1a5c ./code/PID.o
 .debug_info    0x00000000000376f8     0x1b58 ./code/UI.o
 .debug_info    0x0000000000039250     0x16a3 ./code/flash.o

.debug_abbrev   0x0000000000000000     0x7db4
 .debug_abbrev  0x0000000000000000      0x295 ./zf_driver/zf_driver_adc.o
 .debug_abbrev  0x0000000000000295      0x212 ./zf_driver/zf_driver_delay.o
 .debug_abbrev  0x00000000000004a7      0x24e ./zf_driver/zf_driver_dvp.o
 .debug_abbrev  0x00000000000006f5      0x27a ./zf_driver/zf_driver_encoder.o
 .debug_abbrev  0x000000000000096f      0x28c ./zf_driver/zf_driver_exti.o
 .debug_abbrev  0x0000000000000bfb      0x2b3 ./zf_driver/zf_driver_flash.o
 .debug_abbrev  0x0000000000000eae      0x2ad ./zf_driver/zf_driver_gpio.o
 .debug_abbrev  0x000000000000115b      0x256 ./zf_driver/zf_driver_pit.o
 .debug_abbrev  0x00000000000013b1      0x289 ./zf_driver/zf_driver_pwm.o
 .debug_abbrev  0x000000000000163a      0x321 ./zf_driver/zf_driver_soft_iic.o
 .debug_abbrev  0x000000000000195b      0x32f ./zf_driver/zf_driver_spi.o
 .debug_abbrev  0x0000000000001c8a      0x28e ./zf_driver/zf_driver_timer.o
 .debug_abbrev  0x0000000000001f18      0x2be ./zf_driver/zf_driver_uart.o
 .debug_abbrev  0x00000000000021d6      0x25e ./zf_device/zf_device_camera.o
 .debug_abbrev  0x0000000000002434      0x34c ./zf_device/zf_device_dl1a.o
 .debug_abbrev  0x0000000000002780      0x28b ./zf_device/zf_device_dm1xa.o
 .debug_abbrev  0x0000000000002a0b      0x377 ./zf_device/zf_device_gps_tau1201.o
 .debug_abbrev  0x0000000000002d82      0x2e8 ./zf_device/zf_device_imu660ra.o
 .debug_abbrev  0x000000000000306a      0x318 ./zf_device/zf_device_ips200.o
 .debug_abbrev  0x0000000000003382      0x30b ./zf_device/zf_device_mt9v03x_dvp.o
 .debug_abbrev  0x000000000000368d      0x225 ./zf_device/zf_device_type.o
 .debug_abbrev  0x00000000000038b2      0x251 ./zf_common/zf_common_clock.o
 .debug_abbrev  0x0000000000003b03      0x349 ./zf_common/zf_common_debug.o
 .debug_abbrev  0x0000000000003e4c      0x2a5 ./zf_common/zf_common_fifo.o
 .debug_abbrev  0x00000000000040f1      0x1dd ./zf_common/zf_common_font.o
 .debug_abbrev  0x00000000000042ce      0x348 ./zf_common/zf_common_function.o
 .debug_abbrev  0x0000000000004616      0x2c1 ./zf_common/zf_common_interrupt.o
 .debug_abbrev  0x00000000000048d7      0x2f5 ./user_c/isr.o
 .debug_abbrev  0x0000000000004bcc      0x287 ./user_c/main.o
 .debug_abbrev  0x0000000000004e53       0x12 ./sdk/Startup/startup_ch32v30x_D8C.o
 .debug_abbrev  0x0000000000004e65      0x1ae ./sdk/Peripheral/ch32v30x_adc.o
 .debug_abbrev  0x0000000000005013      0x144 ./sdk/Peripheral/ch32v30x_exti.o
 .debug_abbrev  0x0000000000005157      0x1ec ./sdk/Peripheral/ch32v30x_flash.o
 .debug_abbrev  0x0000000000005343      0x1c7 ./sdk/Peripheral/ch32v30x_gpio.o
 .debug_abbrev  0x000000000000550a      0x1ef ./sdk/Peripheral/ch32v30x_rcc.o
 .debug_abbrev  0x00000000000056f9      0x19e ./sdk/Peripheral/ch32v30x_spi.o
 .debug_abbrev  0x0000000000005897      0x1c9 ./sdk/Peripheral/ch32v30x_tim.o
 .debug_abbrev  0x0000000000005a60      0x19e ./sdk/Peripheral/ch32v30x_usart.o
 .debug_abbrev  0x0000000000005bfe      0x299 ./sdk/Peripheral/ch32v30x_usbotg_device.o
 .debug_abbrev  0x0000000000005e97      0x292 ./code/ADC.o
 .debug_abbrev  0x0000000000006129      0x3be ./code/Camera.o
 .debug_abbrev  0x00000000000064e7      0x32f ./code/Control.o
 .debug_abbrev  0x0000000000006816      0x2b4 ./code/FUZZY_PID_UCAS.o
 .debug_abbrev  0x0000000000006aca      0x2b1 ./code/Fuzzy.o
 .debug_abbrev  0x0000000000006d7b      0x2b2 ./code/Gyroscope.o
 .debug_abbrev  0x000000000000702d      0x335 ./code/Island.o
 .debug_abbrev  0x0000000000007362      0x278 ./code/KEY.o
 .debug_abbrev  0x00000000000075da      0x2f3 ./code/PID.o
 .debug_abbrev  0x00000000000078cd      0x2a5 ./code/UI.o
 .debug_abbrev  0x0000000000007b72      0x242 ./code/flash.o

.debug_aranges  0x0000000000000000     0x1880
 .debug_aranges
                0x0000000000000000       0x30 ./zf_driver/zf_driver_adc.o
 .debug_aranges
                0x0000000000000030       0x28 ./zf_driver/zf_driver_delay.o
 .debug_aranges
                0x0000000000000058       0x28 ./zf_driver/zf_driver_dvp.o
 .debug_aranges
                0x0000000000000080       0x38 ./zf_driver/zf_driver_encoder.o
 .debug_aranges
                0x00000000000000b8       0x30 ./zf_driver/zf_driver_exti.o
 .debug_aranges
                0x00000000000000e8       0x50 ./zf_driver/zf_driver_flash.o
 .debug_aranges
                0x0000000000000138       0x40 ./zf_driver/zf_driver_gpio.o
 .debug_aranges
                0x0000000000000178       0x30 ./zf_driver/zf_driver_pit.o
 .debug_aranges
                0x00000000000001a8       0x30 ./zf_driver/zf_driver_pwm.o
 .debug_aranges
                0x00000000000001d8       0xf0 ./zf_driver/zf_driver_soft_iic.o
 .debug_aranges
                0x00000000000002c8       0xb0 ./zf_driver/zf_driver_spi.o
 .debug_aranges
                0x0000000000000378       0x50 ./zf_driver/zf_driver_timer.o
 .debug_aranges
                0x00000000000003c8       0x58 ./zf_driver/zf_driver_uart.o
 .debug_aranges
                0x0000000000000420       0x30 ./zf_device/zf_device_camera.o
 .debug_aranges
                0x0000000000000450       0x90 ./zf_device/zf_device_dl1a.o
 .debug_aranges
                0x00000000000004e0       0x40 ./zf_device/zf_device_dm1xa.o
 .debug_aranges
                0x0000000000000520       0x78 ./zf_device/zf_device_gps_tau1201.o
 .debug_aranges
                0x0000000000000598       0x58 ./zf_device/zf_device_imu660ra.o
 .debug_aranges
                0x00000000000005f0       0xd8 ./zf_device/zf_device_ips200.o
 .debug_aranges
                0x00000000000006c8       0x58 ./zf_device/zf_device_mt9v03x_dvp.o
 .debug_aranges
                0x0000000000000720       0x30 ./zf_device/zf_device_type.o
 .debug_aranges
                0x0000000000000750       0x30 ./zf_common/zf_common_clock.o
 .debug_aranges
                0x0000000000000780       0x80 ./zf_common/zf_common_debug.o
 .debug_aranges
                0x0000000000000800       0x68 ./zf_common/zf_common_fifo.o
 .debug_aranges
                0x0000000000000868       0x18 ./zf_common/zf_common_font.o
 .debug_aranges
                0x0000000000000880       0x90 ./zf_common/zf_common_function.o
 .debug_aranges
                0x0000000000000910       0x70 ./zf_common/zf_common_interrupt.o
 .debug_aranges
                0x0000000000000980       0xf8 ./user_c/isr.o
 .debug_aranges
                0x0000000000000a78       0x20 ./user_c/main.o
 .debug_aranges
                0x0000000000000a98       0x30 ./sdk/Startup/startup_ch32v30x_D8C.o
 .debug_aranges
                0x0000000000000ac8      0x150 ./sdk/Peripheral/ch32v30x_adc.o
 .debug_aranges
                0x0000000000000c18       0x58 ./sdk/Peripheral/ch32v30x_exti.o
 .debug_aranges
                0x0000000000000c70      0x118 ./sdk/Peripheral/ch32v30x_flash.o
 .debug_aranges
                0x0000000000000d88       0xa8 ./sdk/Peripheral/ch32v30x_gpio.o
 .debug_aranges
                0x0000000000000e30      0x1a8 ./sdk/Peripheral/ch32v30x_rcc.o
 .debug_aranges
                0x0000000000000fd8       0xd0 ./sdk/Peripheral/ch32v30x_spi.o
 .debug_aranges
                0x00000000000010a8      0x2f0 ./sdk/Peripheral/ch32v30x_tim.o
 .debug_aranges
                0x0000000000001398      0x100 ./sdk/Peripheral/ch32v30x_usart.o
 .debug_aranges
                0x0000000000001498       0x50 ./sdk/Peripheral/ch32v30x_usbotg_device.o
 .debug_aranges
                0x00000000000014e8       0x28 ./code/ADC.o
 .debug_aranges
                0x0000000000001510       0xd8 ./code/Camera.o
 .debug_aranges
                0x00000000000015e8       0x50 ./code/Control.o
 .debug_aranges
                0x0000000000001638       0x38 ./code/FUZZY_PID_UCAS.o
 .debug_aranges
                0x0000000000001670       0x28 ./code/Fuzzy.o
 .debug_aranges
                0x0000000000001698       0x48 ./code/Gyroscope.o
 .debug_aranges
                0x00000000000016e0       0x98 ./code/Island.o
 .debug_aranges
                0x0000000000001778       0x28 ./code/KEY.o
 .debug_aranges
                0x00000000000017a0       0x38 ./code/PID.o
 .debug_aranges
                0x00000000000017d8       0x80 ./code/UI.o
 .debug_aranges
                0x0000000000001858       0x28 ./code/flash.o

.debug_ranges   0x0000000000000000     0x1560
 .debug_ranges  0x0000000000000000       0x20 ./zf_driver/zf_driver_adc.o
 .debug_ranges  0x0000000000000020       0x18 ./zf_driver/zf_driver_delay.o
 .debug_ranges  0x0000000000000038       0x18 ./zf_driver/zf_driver_dvp.o
 .debug_ranges  0x0000000000000050       0x28 ./zf_driver/zf_driver_encoder.o
 .debug_ranges  0x0000000000000078       0x20 ./zf_driver/zf_driver_exti.o
 .debug_ranges  0x0000000000000098       0x40 ./zf_driver/zf_driver_flash.o
 .debug_ranges  0x00000000000000d8       0x30 ./zf_driver/zf_driver_gpio.o
 .debug_ranges  0x0000000000000108       0x20 ./zf_driver/zf_driver_pit.o
 .debug_ranges  0x0000000000000128       0x20 ./zf_driver/zf_driver_pwm.o
 .debug_ranges  0x0000000000000148       0xe0 ./zf_driver/zf_driver_soft_iic.o
 .debug_ranges  0x0000000000000228       0xa0 ./zf_driver/zf_driver_spi.o
 .debug_ranges  0x00000000000002c8       0x40 ./zf_driver/zf_driver_timer.o
 .debug_ranges  0x0000000000000308       0x48 ./zf_driver/zf_driver_uart.o
 .debug_ranges  0x0000000000000350       0x20 ./zf_device/zf_device_camera.o
 .debug_ranges  0x0000000000000370       0x80 ./zf_device/zf_device_dl1a.o
 .debug_ranges  0x00000000000003f0       0x30 ./zf_device/zf_device_dm1xa.o
 .debug_ranges  0x0000000000000420       0x68 ./zf_device/zf_device_gps_tau1201.o
 .debug_ranges  0x0000000000000488       0x48 ./zf_device/zf_device_imu660ra.o
 .debug_ranges  0x00000000000004d0       0xc8 ./zf_device/zf_device_ips200.o
 .debug_ranges  0x0000000000000598       0x48 ./zf_device/zf_device_mt9v03x_dvp.o
 .debug_ranges  0x00000000000005e0       0x20 ./zf_device/zf_device_type.o
 .debug_ranges  0x0000000000000600       0x20 ./zf_common/zf_common_clock.o
 .debug_ranges  0x0000000000000620       0x70 ./zf_common/zf_common_debug.o
 .debug_ranges  0x0000000000000690       0x58 ./zf_common/zf_common_fifo.o
 .debug_ranges  0x00000000000006e8       0x80 ./zf_common/zf_common_function.o
 .debug_ranges  0x0000000000000768       0x60 ./zf_common/zf_common_interrupt.o
 .debug_ranges  0x00000000000007c8       0xe8 ./user_c/isr.o
 .debug_ranges  0x00000000000008b0       0x10 ./user_c/main.o
 .debug_ranges  0x00000000000008c0       0x28 ./sdk/Startup/startup_ch32v30x_D8C.o
 .debug_ranges  0x00000000000008e8      0x140 ./sdk/Peripheral/ch32v30x_adc.o
 .debug_ranges  0x0000000000000a28       0x48 ./sdk/Peripheral/ch32v30x_exti.o
 .debug_ranges  0x0000000000000a70      0x108 ./sdk/Peripheral/ch32v30x_flash.o
 .debug_ranges  0x0000000000000b78       0x98 ./sdk/Peripheral/ch32v30x_gpio.o
 .debug_ranges  0x0000000000000c10      0x198 ./sdk/Peripheral/ch32v30x_rcc.o
 .debug_ranges  0x0000000000000da8       0xc0 ./sdk/Peripheral/ch32v30x_spi.o
 .debug_ranges  0x0000000000000e68      0x2e0 ./sdk/Peripheral/ch32v30x_tim.o
 .debug_ranges  0x0000000000001148       0xf0 ./sdk/Peripheral/ch32v30x_usart.o
 .debug_ranges  0x0000000000001238       0x40 ./sdk/Peripheral/ch32v30x_usbotg_device.o
 .debug_ranges  0x0000000000001278       0x18 ./code/ADC.o
 .debug_ranges  0x0000000000001290       0xc8 ./code/Camera.o
 .debug_ranges  0x0000000000001358       0x40 ./code/Control.o
 .debug_ranges  0x0000000000001398       0x28 ./code/FUZZY_PID_UCAS.o
 .debug_ranges  0x00000000000013c0       0x18 ./code/Fuzzy.o
 .debug_ranges  0x00000000000013d8       0x38 ./code/Gyroscope.o
 .debug_ranges  0x0000000000001410       0x88 ./code/Island.o
 .debug_ranges  0x0000000000001498       0x18 ./code/KEY.o
 .debug_ranges  0x00000000000014b0       0x28 ./code/PID.o
 .debug_ranges  0x00000000000014d8       0x70 ./code/UI.o
 .debug_ranges  0x0000000000001548       0x18 ./code/flash.o

.debug_line     0x0000000000000000    0x2bb84
 .debug_line    0x0000000000000000      0x5e8 ./zf_driver/zf_driver_adc.o
 .debug_line    0x00000000000005e8      0x46a ./zf_driver/zf_driver_delay.o
 .debug_line    0x0000000000000a52      0x4c5 ./zf_driver/zf_driver_dvp.o
 .debug_line    0x0000000000000f17      0xac1 ./zf_driver/zf_driver_encoder.o
 .debug_line    0x00000000000019d8      0x51b ./zf_driver/zf_driver_exti.o
 .debug_line    0x0000000000001ef3      0x8d7 ./zf_driver/zf_driver_flash.o
 .debug_line    0x00000000000027ca      0x6ab ./zf_driver/zf_driver_gpio.o
 .debug_line    0x0000000000002e75      0x5c0 ./zf_driver/zf_driver_pit.o
 .debug_line    0x0000000000003435      0xae6 ./zf_driver/zf_driver_pwm.o
 .debug_line    0x0000000000003f1b     0x1299 ./zf_driver/zf_driver_soft_iic.o
 .debug_line    0x00000000000051b4     0x1985 ./zf_driver/zf_driver_spi.o
 .debug_line    0x0000000000006b39      0xa7c ./zf_driver/zf_driver_timer.o
 .debug_line    0x00000000000075b5      0xa40 ./zf_driver/zf_driver_uart.o
 .debug_line    0x0000000000007ff5      0x53f ./zf_device/zf_device_camera.o
 .debug_line    0x0000000000008534     0x1263 ./zf_device/zf_device_dl1a.o
 .debug_line    0x0000000000009797      0x6fa ./zf_device/zf_device_dm1xa.o
 .debug_line    0x0000000000009e91     0x11dc ./zf_device/zf_device_gps_tau1201.o
 .debug_line    0x000000000000b06d      0x7f7 ./zf_device/zf_device_imu660ra.o
 .debug_line    0x000000000000b864     0x1b78 ./zf_device/zf_device_ips200.o
 .debug_line    0x000000000000d3dc      0xc7f ./zf_device/zf_device_mt9v03x_dvp.o
 .debug_line    0x000000000000e05b      0x2e1 ./zf_device/zf_device_type.o
 .debug_line    0x000000000000e33c      0x5a0 ./zf_common/zf_common_clock.o
 .debug_line    0x000000000000e8dc      0xce4 ./zf_common/zf_common_debug.o
 .debug_line    0x000000000000f5c0      0xf41 ./zf_common/zf_common_fifo.o
 .debug_line    0x0000000000010501      0x210 ./zf_common/zf_common_font.o
 .debug_line    0x0000000000010711     0x1545 ./zf_common/zf_common_function.o
 .debug_line    0x0000000000011c56      0x556 ./zf_common/zf_common_interrupt.o
 .debug_line    0x00000000000121ac     0x116e ./user_c/isr.o
 .debug_line    0x000000000001331a      0x782 ./user_c/main.o
 .debug_line    0x0000000000013a9c      0x393 ./sdk/Startup/startup_ch32v30x_D8C.o
 .debug_line    0x0000000000013e2f     0x121f ./sdk/Peripheral/ch32v30x_adc.o
 .debug_line    0x000000000001504e      0x554 ./sdk/Peripheral/ch32v30x_exti.o
 .debug_line    0x00000000000155a2     0x1532 ./sdk/Peripheral/ch32v30x_flash.o
 .debug_line    0x0000000000016ad4      0xa75 ./sdk/Peripheral/ch32v30x_gpio.o
 .debug_line    0x0000000000017549     0x1284 ./sdk/Peripheral/ch32v30x_rcc.o
 .debug_line    0x00000000000187cd      0xa6b ./sdk/Peripheral/ch32v30x_spi.o
 .debug_line    0x0000000000019238     0x2220 ./sdk/Peripheral/ch32v30x_tim.o
 .debug_line    0x000000000001b458      0xca9 ./sdk/Peripheral/ch32v30x_usart.o
 .debug_line    0x000000000001c101     0x13ef ./sdk/Peripheral/ch32v30x_usbotg_device.o
 .debug_line    0x000000000001d4f0      0x922 ./code/ADC.o
 .debug_line    0x000000000001de12     0x40fd ./code/Camera.o
 .debug_line    0x0000000000021f0f      0xef1 ./code/Control.o
 .debug_line    0x0000000000022e00      0x96e ./code/FUZZY_PID_UCAS.o
 .debug_line    0x000000000002376e     0x1910 ./code/Fuzzy.o
 .debug_line    0x000000000002507e      0x8d1 ./code/Gyroscope.o
 .debug_line    0x000000000002594f     0x2e8e ./code/Island.o
 .debug_line    0x00000000000287dd      0x731 ./code/KEY.o
 .debug_line    0x0000000000028f0e      0x871 ./code/PID.o
 .debug_line    0x000000000002977f     0x1cef ./code/UI.o
 .debug_line    0x000000000002b46e      0x716 ./code/flash.o

.debug_str      0x0000000000000000     0x99e7
 .debug_str     0x0000000000000000      0x9a3 ./zf_driver/zf_driver_adc.o
                                        0xa57 (size before relaxing)
 .debug_str     0x00000000000009a3       0xa3 ./zf_driver/zf_driver_delay.o
                                        0x64f (size before relaxing)
 .debug_str     0x0000000000000a46      0x69b ./zf_driver/zf_driver_dvp.o
                                        0xd39 (size before relaxing)
 .debug_str     0x00000000000010e1      0x7bd ./zf_driver/zf_driver_encoder.o
                                        0xe6c (size before relaxing)
 .debug_str     0x000000000000189e      0x1ee ./zf_driver/zf_driver_exti.o
                                        0xdad (size before relaxing)
 .debug_str     0x0000000000001a8c      0x253 ./zf_driver/zf_driver_flash.o
                                        0x842 (size before relaxing)
 .debug_str     0x0000000000001cdf      0x20a ./zf_driver/zf_driver_gpio.o
                                        0x8b0 (size before relaxing)
 .debug_str     0x0000000000001ee9      0x115 ./zf_driver/zf_driver_pit.o
                                        0xeea (size before relaxing)
 .debug_str     0x0000000000001ffe      0x794 ./zf_driver/zf_driver_pwm.o
                                       0x1130 (size before relaxing)
 .debug_str     0x0000000000002792      0x341 ./zf_driver/zf_driver_soft_iic.o
                                        0x9f0 (size before relaxing)
 .debug_str     0x0000000000002ad3      0x45a ./zf_driver/zf_driver_spi.o
                                        0xbd9 (size before relaxing)
 .debug_str     0x0000000000002f2d      0x12d ./zf_driver/zf_driver_timer.o
                                        0xa24 (size before relaxing)
 .debug_str     0x000000000000305a      0x55f ./zf_driver/zf_driver_uart.o
                                       0x1194 (size before relaxing)
 .debug_str     0x00000000000035b9      0x2bf ./zf_device/zf_device_camera.o
                                        0x93d (size before relaxing)
 .debug_str     0x0000000000003878      0x4ce ./zf_device/zf_device_dl1a.o
                                        0xc0f (size before relaxing)
 .debug_str     0x0000000000003d46      0x207 ./zf_device/zf_device_dm1xa.o
                                        0x935 (size before relaxing)
 .debug_str     0x0000000000003f4d      0x4b2 ./zf_device/zf_device_gps_tau1201.o
                                        0xf31 (size before relaxing)
 .debug_str     0x00000000000043ff      0x2ba ./zf_device/zf_device_imu660ra.o
                                        0xabf (size before relaxing)
 .debug_str     0x00000000000046b9      0x5f1 ./zf_device/zf_device_ips200.o
                                        0xe7c (size before relaxing)
 .debug_str     0x0000000000004caa      0x2e0 ./zf_device/zf_device_mt9v03x_dvp.o
                                        0xf2d (size before relaxing)
 .debug_str     0x0000000000004f8a       0xab ./zf_device/zf_device_type.o
                                        0x75b (size before relaxing)
 .debug_str     0x0000000000005035      0x102 ./zf_common/zf_common_clock.o
                                        0x74c (size before relaxing)
 .debug_str     0x0000000000005137      0x1d7 ./zf_common/zf_common_debug.o
                                        0xc93 (size before relaxing)
 .debug_str     0x000000000000530e      0x1c3 ./zf_common/zf_common_fifo.o
                                        0x834 (size before relaxing)
 .debug_str     0x00000000000054d1       0x5d ./zf_common/zf_common_font.o
                                        0x63a (size before relaxing)
 .debug_str     0x000000000000552e      0x252 ./zf_common/zf_common_function.o
                                        0x832 (size before relaxing)
 .debug_str     0x0000000000005780      0x198 ./zf_common/zf_common_interrupt.o
                                        0xcf3 (size before relaxing)
 .debug_str     0x0000000000005918      0x936 ./user_c/isr.o
                                       0x1656 (size before relaxing)
 .debug_str     0x000000000000624e       0xa5 ./user_c/main.o
                                       0x280c (size before relaxing)
 .debug_str     0x00000000000062f3       0x71 ./sdk/Startup/startup_ch32v30x_D8C.o
                                         0xb9 (size before relaxing)
 .debug_str     0x0000000000006364      0x515 ./sdk/Peripheral/ch32v30x_adc.o
                                        0x854 (size before relaxing)
 .debug_str     0x0000000000006879       0xfa ./sdk/Peripheral/ch32v30x_exti.o
                                        0x3e1 (size before relaxing)
 .debug_str     0x0000000000006973      0x438 ./sdk/Peripheral/ch32v30x_flash.o
                                        0x6c8 (size before relaxing)
 .debug_str     0x0000000000006dab      0x25a ./sdk/Peripheral/ch32v30x_gpio.o
                                        0x5ae (size before relaxing)
 .debug_str     0x0000000000007005      0x659 ./sdk/Peripheral/ch32v30x_rcc.o
                                        0x915 (size before relaxing)
 .debug_str     0x000000000000765e      0x2d7 ./sdk/Peripheral/ch32v30x_spi.o
                                        0x6a3 (size before relaxing)
 .debug_str     0x0000000000007935      0x9f6 ./sdk/Peripheral/ch32v30x_tim.o
                                        0xea1 (size before relaxing)
 .debug_str     0x000000000000832b      0x3c1 ./sdk/Peripheral/ch32v30x_usart.o
                                        0x72b (size before relaxing)
 .debug_str     0x00000000000086ec      0x577 ./sdk/Peripheral/ch32v30x_usbotg_device.o
                                        0xca9 (size before relaxing)
 .debug_str     0x0000000000008c63       0xb5 ./code/ADC.o
                                       0x131e (size before relaxing)
 .debug_str     0x0000000000008d18      0x466 ./code/Camera.o
                                       0x1653 (size before relaxing)
 .debug_str     0x000000000000917e      0x182 ./code/Control.o
                                       0x19ea (size before relaxing)
 .debug_str     0x0000000000009300       0xa5 ./code/FUZZY_PID_UCAS.o
                                       0x1162 (size before relaxing)
 .debug_str     0x00000000000093a5       0x43 ./code/Fuzzy.o
                                       0x10ec (size before relaxing)
 .debug_str     0x00000000000093e8      0x15e ./code/Gyroscope.o
                                       0x1217 (size before relaxing)
 .debug_str     0x0000000000009546      0x273 ./code/Island.o
